{
  "_format": "hh-sol-artifact-1",
  "contractName": "ERC20AtomicSwap",
  "sourceName": "contracts/ERC20AtomicSwap.sol",
  "abi": [
    {
      "anonymous": false,
      "inputs": [
        {
          "indexed": true,
          "internalType": "bytes32",
          "name": "contractId",
          "type": "bytes32"
        },
        {
          "indexed": true,
          "internalType": "address",
          "name": "sender",
          "type": "address"
        },
        {
          "indexed": true,
          "internalType": "address",
          "name": "receiver",
          "type": "address"
        },
        {
          "indexed": false,
          "internalType": "address",
          "name": "tokenContract",
          "type": "address"
        },
        {
          "indexed": false,
          "internalType": "uint256",
          "name": "amount",
          "type": "uint256"
        },
        {
          "indexed": false,
          "internalType": "bytes32",
          "name": "hashlock",
          "type": "bytes32"
        },
        {
          "indexed": false,
          "internalType": "uint256",
          "name": "timelock",
          "type": "uint256"
        }
      ],
      "name": "HTLCERC20Created",
      "type": "event"
    },
    {
      "anonymous": false,
      "inputs": [
        {
          "indexed": true,
          "internalType": "bytes32",
          "name": "contractId",
          "type": "bytes32"
        }
      ],
      "name": "HTLCERC20Refunded",
      "type": "event"
    },
    {
      "anonymous": false,
      "inputs": [
        {
          "indexed": true,
          "internalType": "bytes32",
          "name": "contractId",
          "type": "bytes32"
        }
      ],
      "name": "HTLCERC20Withdrawn",
      "type": "event"
    },
    {
      "inputs": [
        {
          "internalType": "bytes32",
          "name": "_contractId",
          "type": "bytes32"
        }
      ],
      "name": "getContract",
      "outputs": [
        {
          "internalType": "address",
          "name": "sender",
          "type": "address"
        },
        {
          "internalType": "address",
          "name": "receiver",
          "type": "address"
        },
        {
          "internalType": "address",
          "name": "tokenContract",
          "type": "address"
        },
        {
          "internalType": "uint256",
          "name": "amount",
          "type": "uint256"
        },
        {
          "internalType": "bytes32",
          "name": "hashlock",
          "type": "bytes32"
        },
        {
          "internalType": "uint256",
          "name": "timelock",
          "type": "uint256"
        },
        {
          "internalType": "bool",
          "name": "withdrawn",
          "type": "bool"
        },
        {
          "internalType": "bool",
          "name": "refunded",
          "type": "bool"
        },
        {
          "internalType": "bytes32",
          "name": "preimage",
          "type": "bytes32"
        }
      ],
      "stateMutability": "view",
      "type": "function"
    },
    {
      "inputs": [
        {
          "internalType": "address",
          "name": "_receiver",
          "type": "address"
        },
        {
          "internalType": "bytes32",
          "name": "_hashlock",
          "type": "bytes32"
        },
        {
          "internalType": "uint256",
          "name": "_timelock",
          "type": "uint256"
        },
        {
          "internalType": "address",
          "name": "_tokenContract",
          "type": "address"
        },
        {
          "internalType": "uint256",
          "name": "_amount",
          "type": "uint256"
        }
      ],
      "name": "newContract",
      "outputs": [
        {
          "internalType": "bytes32",
          "name": "contractId",
          "type": "bytes32"
        }
      ],
      "stateMutability": "nonpayable",
      "type": "function"
    },
    {
      "inputs": [
        {
          "internalType": "bytes32",
          "name": "_contractId",
          "type": "bytes32"
        }
      ],
      "name": "refund",
      "outputs": [
        {
          "internalType": "bool",
          "name": "",
          "type": "bool"
        }
      ],
      "stateMutability": "nonpayable",
      "type": "function"
    },
    {
      "inputs": [
        {
          "internalType": "bytes32",
          "name": "_contractId",
          "type": "bytes32"
        },
        {
          "internalType": "bytes32",
          "name": "_preimage",
          "type": "bytes32"
        }
      ],
      "name": "withdraw",
      "outputs": [
        {
          "internalType": "bool",
          "name": "",
          "type": "bool"
        }
      ],
      "stateMutability": "nonpayable",
      "type": "function"
    }
  ],
  "bytecode": "0x608060405234801561001057600080fd5b50611c55806100206000396000f3fe608060405234801561001057600080fd5b506004361061004c5760003560e01c8063398a7a981461005157806363615149146100815780637249fbb6146100b1578063e16c7d98146100e1575b600080fd5b61006b60048036038101906100669190610fb2565b610119565b604051610078919061103c565b60405180910390f35b61009b60048036038101906100969190611057565b61063c565b6040516100a891906110b2565b60405180910390f35b6100cb60048036038101906100c691906110cd565b6109f5565b6040516100d891906110b2565b60405180910390f35b6100fb60048036038101906100f691906110cd565b610d45565b60405161011099989796959493929190611118565b60405180910390f35b600082338360008111610161576040517f08c379a000000000000000000000000000000000000000000000000000000000815260040161015890611228565b60405180910390fd5b808373ffffffffffffffffffffffffffffffffffffffff1663dd62ed3e84306040518363ffffffff1660e01b815260040161019d929190611248565b602060405180830381865afa1580156101ba573d6000803e3d6000fd5b505050506040513d601f19601f820116820180604052508101906101de9190611286565b101561021f576040517f08c379a000000000000000000000000000000000000000000000000000000000815260040161021690611325565b60405180910390fd5b86428111610262576040517f08c379a0000000000000000000000000000000000000000000000000000000008152600401610259906113b7565b60405180910390fd5b6002338b89898d8d60405160200161027f96959493929190611461565b60405160208183030381529060405260405161029b919061154b565b602060405180830381855afa1580156102b8573d6000803e3d6000fd5b5050506040513d601f19601f820116820180604052508101906102db9190611577565b94506102e685610e75565b15610326576040517f08c379a000000000000000000000000000000000000000000000000000000000815260040161031d90611616565b60405180910390fd5b8673ffffffffffffffffffffffffffffffffffffffff166323b872dd3330896040518463ffffffff1660e01b815260040161036393929190611636565b6020604051808303816000875af1158015610382573d6000803e3d6000fd5b505050506040513d601f19601f820116820180604052508101906103a69190611699565b6103e5576040517f08c379a00000000000000000000000000000000000000000000000000000000081526004016103dc90611738565b60405180910390fd5b6040518061012001604052803373ffffffffffffffffffffffffffffffffffffffff1681526020018b73ffffffffffffffffffffffffffffffffffffffff1681526020018873ffffffffffffffffffffffffffffffffffffffff1681526020018781526020018a81526020018981526020016000151581526020016000151581526020016000801b81525060008087815260200190815260200160002060008201518160000160006101000a81548173ffffffffffffffffffffffffffffffffffffffff021916908373ffffffffffffffffffffffffffffffffffffffff16021790555060208201518160010160006101000a81548173ffffffffffffffffffffffffffffffffffffffff021916908373ffffffffffffffffffffffffffffffffffffffff16021790555060408201518160020160006101000a81548173ffffffffffffffffffffffffffffffffffffffff021916908373ffffffffffffffffffffffffffffffffffffffff160217905550606082015181600301556080820151816004015560a0820151816005015560c08201518160060160006101000a81548160ff02191690831515021790555060e08201518160060160016101000a81548160ff02191690831515021790555061010082015181600701559050508973ffffffffffffffffffffffffffffffffffffffff163373ffffffffffffffffffffffffffffffffffffffff16867f7485157685208fbbd831decdb75d88989fc519757980ad5310f26d4aef0801e48a8a8e8e6040516106279493929190611758565b60405180910390a45050505095945050505050565b60008261064881610e75565b610687576040517f08c379a000000000000000000000000000000000000000000000000000000000815260040161067e9061180f565b60405180910390fd5b838360028160405160200161069c919061182f565b6040516020818303038152906040526040516106b8919061154b565b602060405180830381855afa1580156106d5573d6000803e3d6000fd5b5050506040513d601f19601f820116820180604052508101906106f89190611577565b600080848152602001908152602001600020600401541461074e576040517f08c379a0000000000000000000000000000000000000000000000000000000008152600401610745906118bc565b60405180910390fd5b853373ffffffffffffffffffffffffffffffffffffffff1660008083815260200190815260200160002060010160009054906101000a900473ffffffffffffffffffffffffffffffffffffffff1673ffffffffffffffffffffffffffffffffffffffff16146107f2576040517f08c379a00000000000000000000000000000000000000000000000000000000081526004016107e990611928565b60405180910390fd5b6000151560008083815260200190815260200160002060060160009054906101000a900460ff1615151461085b576040517f08c379a000000000000000000000000000000000000000000000000000000000815260040161085290611994565b60405180910390fd5b4260008083815260200190815260200160002060050154116108b2576040517f08c379a00000000000000000000000000000000000000000000000000000000081526004016108a990611a00565b60405180910390fd5b6000806000898152602001908152602001600020905086816007018190555060018160060160006101000a81548160ff0219169083151502179055508060020160009054906101000a900473ffffffffffffffffffffffffffffffffffffffff1673ffffffffffffffffffffffffffffffffffffffff1663a9059cbb8260010160009054906101000a900473ffffffffffffffffffffffffffffffffffffffff1683600301546040518363ffffffff1660e01b8152600401610975929190611a20565b6020604051808303816000875af1158015610994573d6000803e3d6000fd5b505050506040513d601f19601f820116820180604052508101906109b89190611699565b50877f90b949193e894c5c3d695af213116f68e6d6d74c408b46f99eebacab52bff6be60405160405180910390a260019550505050505092915050565b600081610a0181610e75565b610a40576040517f08c379a0000000000000000000000000000000000000000000000000000000008152600401610a379061180f565b60405180910390fd5b823373ffffffffffffffffffffffffffffffffffffffff1660008083815260200190815260200160002060000160009054906101000a900473ffffffffffffffffffffffffffffffffffffffff1673ffffffffffffffffffffffffffffffffffffffff1614610ae4576040517f08c379a0000000000000000000000000000000000000000000000000000000008152600401610adb90611a95565b60405180910390fd5b6000151560008083815260200190815260200160002060060160019054906101000a900460ff16151514610b4d576040517f08c379a0000000000000000000000000000000000000000000000000000000008152600401610b4490611b01565b60405180910390fd5b6000151560008083815260200190815260200160002060060160009054906101000a900460ff16151514610bb6576040517f08c379a0000000000000000000000000000000000000000000000000000000008152600401610bad90611b6d565b60405180910390fd5b42600080838152602001908152602001600020600501541115610c0e576040517f08c379a0000000000000000000000000000000000000000000000000000000008152600401610c0590611bff565b60405180910390fd5b6000806000868152602001908152602001600020905060018160060160016101000a81548160ff0219169083151502179055508060020160009054906101000a900473ffffffffffffffffffffffffffffffffffffffff1673ffffffffffffffffffffffffffffffffffffffff1663a9059cbb8260000160009054906101000a900473ffffffffffffffffffffffffffffffffffffffff1683600301546040518363ffffffff1660e01b8152600401610cc8929190611a20565b6020604051808303816000875af1158015610ce7573d6000803e3d6000fd5b505050506040513d601f19601f82011682018060405250810190610d0b9190611699565b50847f25c0cb42002f469b8c07222f77709effe07c20669210af3511c8a0eaf671006660405160405180910390a260019350505050919050565b6000806000806000806000806000801515610d5f8b610e75565b151503610d975760008060008060008060008060008460001b94508060001b9050985098509850985098509850985098509850610e68565b60008060008c815260200190815260200160002090508060000160009054906101000a900473ffffffffffffffffffffffffffffffffffffffff168160010160009054906101000a900473ffffffffffffffffffffffffffffffffffffffff168260020160009054906101000a900473ffffffffffffffffffffffffffffffffffffffff168360030154846004015485600501548660060160009054906101000a900460ff168760060160019054906101000a900460ff168860070154995099509950995099509950995099509950505b9193959799909294969850565b60008073ffffffffffffffffffffffffffffffffffffffff1660008084815260200190815260200160002060000160009054906101000a900473ffffffffffffffffffffffffffffffffffffffff1673ffffffffffffffffffffffffffffffffffffffff1614159050919050565b600080fd5b600073ffffffffffffffffffffffffffffffffffffffff82169050919050565b6000610f1382610ee8565b9050919050565b610f2381610f08565b8114610f2e57600080fd5b50565b600081359050610f4081610f1a565b92915050565b6000819050919050565b610f5981610f46565b8114610f6457600080fd5b50565b600081359050610f7681610f50565b92915050565b6000819050919050565b610f8f81610f7c565b8114610f9a57600080fd5b50565b600081359050610fac81610f86565b92915050565b600080600080600060a08688031215610fce57610fcd610ee3565b5b6000610fdc88828901610f31565b9550506020610fed88828901610f67565b9450506040610ffe88828901610f9d565b935050606061100f88828901610f31565b925050608061102088828901610f9d565b9150509295509295909350565b61103681610f46565b82525050565b6000602082019050611051600083018461102d565b92915050565b6000806040838503121561106e5761106d610ee3565b5b600061107c85828601610f67565b925050602061108d85828601610f67565b9150509250929050565b60008115159050919050565b6110ac81611097565b82525050565b60006020820190506110c760008301846110a3565b92915050565b6000602082840312156110e3576110e2610ee3565b5b60006110f184828501610f67565b91505092915050565b61110381610f08565b82525050565b61111281610f7c565b82525050565b60006101208201905061112e600083018c6110fa565b61113b602083018b6110fa565b611148604083018a6110fa565b6111556060830189611109565b611162608083018861102d565b61116f60a0830187611109565b61117c60c08301866110a3565b61118960e08301856110a3565b61119761010083018461102d565b9a9950505050505050505050565b600082825260208201905092915050565b7f746f6b656e735472616e7366657261626c653a20746f6b656e20616d6f756e7460008201527f206d757374206265203e20300000000000000000000000000000000000000000602082015250565b6000611212602c836111a5565b915061121d826111b6565b604082019050919050565b6000602082019050818103600083015261124181611205565b9050919050565b600060408201905061125d60008301856110fa565b61126a60208301846110fa565b9392505050565b60008151905061128081610f86565b92915050565b60006020828403121561129c5761129b610ee3565b5b60006112aa84828501611271565b91505092915050565b7f746f6b656e735472616e7366657261626c653a20746f6b656e20616c6c6f776160008201527f6e6365206d757374206265203e3d20616d6f756e740000000000000000000000602082015250565b600061130f6035836111a5565b915061131a826112b3565b604082019050919050565b6000602082019050818103600083015261133e81611302565b9050919050565b7f66757475726554696d656c6f636b3a2074696d656c6f636b2074696d65206d7560008201527f737420626520696e207468652066757475726500000000000000000000000000602082015250565b60006113a16033836111a5565b91506113ac82611345565b604082019050919050565b600060208201905081810360008301526113d081611394565b9050919050565b60008160601b9050919050565b60006113ef826113d7565b9050919050565b6000611401826113e4565b9050919050565b61141961141482610f08565b6113f6565b82525050565b6000819050919050565b61143a61143582610f7c565b61141f565b82525050565b6000819050919050565b61145b61145682610f46565b611440565b82525050565b600061146d8289611408565b60148201915061147d8288611408565b60148201915061148d8287611408565b60148201915061149d8286611429565b6020820191506114ad828561144a565b6020820191506114bd8284611429565b602082019150819050979650505050505050565b600081519050919050565b600081905092915050565b60005b838110156115055780820151818401526020810190506114ea565b83811115611514576000848401525b50505050565b6000611525826114d1565b61152f81856114dc565b935061153f8185602086016114e7565b80840191505092915050565b6000611557828461151a565b915081905092915050565b60008151905061157181610f50565b92915050565b60006020828403121561158d5761158c610ee3565b5b600061159b84828501611562565b91505092915050565b7f6e6577436f6e74726163743a20436f6e747261637420616c726561647920657860008201527f6973747300000000000000000000000000000000000000000000000000000000602082015250565b60006116006024836111a5565b915061160b826115a4565b604082019050919050565b6000602082019050818103600083015261162f816115f3565b9050919050565b600060608201905061164b60008301866110fa565b61165860208301856110fa565b6116656040830184611109565b949350505050565b61167681611097565b811461168157600080fd5b50565b6000815190506116938161166d565b92915050565b6000602082840312156116af576116ae610ee3565b5b60006116bd84828501611684565b91505092915050565b7f6e6577436f6e74726163743a207472616e7366657246726f6d2073656e64657260008201527f20746f2074686973206661696c65640000000000000000000000000000000000602082015250565b6000611722602f836111a5565b915061172d826116c6565b604082019050919050565b6000602082019050818103600083015261175181611715565b9050919050565b600060808201905061176d60008301876110fa565b61177a6020830186611109565b611787604083018561102d565b6117946060830184611109565b95945050505050565b7f636f6e74726163744578697374733a20636f6e7472616374496420646f65732060008201527f6e6f742065786973740000000000000000000000000000000000000000000000602082015250565b60006117f96029836111a5565b91506118048261179d565b604082019050919050565b60006020820190508181036000830152611828816117ec565b9050919050565b600061183b828461144a565b60208201915081905092915050565b7f686173686c6f636b4d6174636865733a20686173686c6f636b2068617368206460008201527f6f6573206e6f74206d6174636800000000000000000000000000000000000000602082015250565b60006118a6602d836111a5565b91506118b18261184a565b604082019050919050565b600060208201905081810360008301526118d581611899565b9050919050565b7f776974686472617761626c653a206e6f74207265636569766572000000000000600082015250565b6000611912601a836111a5565b915061191d826118dc565b602082019050919050565b6000602082019050818103600083015261194181611905565b9050919050565b7f776974686472617761626c653a20616c72656164792077697468647261776e00600082015250565b600061197e601f836111a5565b915061198982611948565b602082019050919050565b600060208201905081810360008301526119ad81611971565b9050919050565b7f776974686472617761626c653a2074696d656c6f636b20657870697265640000600082015250565b60006119ea601e836111a5565b91506119f5826119b4565b602082019050919050565b60006020820190508181036000830152611a19816119dd565b9050919050565b6000604082019050611a3560008301856110fa565b611a426020830184611109565b9392505050565b7f726566756e6461626c653a206e6f742073656e64657200000000000000000000600082015250565b6000611a7f6016836111a5565b9150611a8a82611a49565b602082019050919050565b60006020820190508181036000830152611aae81611a72565b9050919050565b7f726566756e6461626c653a20616c726561647920726566756e64656400000000600082015250565b6000611aeb601c836111a5565b9150611af682611ab5565b602082019050919050565b60006020820190508181036000830152611b1a81611ade565b9050919050565b7f726566756e6461626c653a20616c72656164792077697468647261776e000000600082015250565b6000611b57601d836111a5565b9150611b6282611b21565b602082019050919050565b60006020820190508181036000830152611b8681611b4a565b9050919050565b7f726566756e6461626c653a2074696d656c6f636b206e6f74207965742070617360008201527f7365640000000000000000000000000000000000000000000000000000000000602082015250565b6000611be96023836111a5565b9150611bf482611b8d565b604082019050919050565b60006020820190508181036000830152611c1881611bdc565b905091905056fea26469706673582212206bf0d00dda309c95a30838c117ef176dc3a72cf733a061bb3fa325b779f92f9864736f6c634300080d0033",
  "linkReferences": {},
  "deployedLinkReferences": {}
}