{
  "_format": "hh-sol-artifact-1",
  "contractName": "ERC20MultichainAtomicSwapReceiver",
  "sourceName": "contracts/ERC20MultichainAtomicSwapReceiver.sol",
  "abi": [
    {
      "anonymous": false,
      "inputs": [
        {
          "indexed": true,
          "internalType": "address",
          "name": "abacusConnectionManager",
          "type": "address"
        }
      ],
      "name": "AbacusConnectionManagerSet",
      "type": "event"
    },
    {
      "anonymous": false,
      "inputs": [
        {
          "indexed": true,
          "internalType": "bytes32",
          "name": "htlcId",
          "type": "bytes32"
        }
      ],
      "name": "HTLCERC20Refunded",
      "type": "event"
    },
    {
      "anonymous": false,
      "inputs": [
        {
          "indexed": true,
          "internalType": "bytes32",
          "name": "htlcId",
          "type": "bytes32"
        }
      ],
      "name": "HTLCERC20WithdrawalCompleted",
      "type": "event"
    },
    {
      "anonymous": false,
      "inputs": [
        {
          "indexed": true,
          "internalType": "bytes32",
          "name": "htlcId",
          "type": "bytes32"
        }
      ],
      "name": "HTLCERC20WithdrawalInitiated",
      "type": "event"
    },
    {
      "anonymous": false,
      "inputs": [
        {
          "indexed": false,
          "internalType": "uint8",
          "name": "version",
          "type": "uint8"
        }
      ],
      "name": "Initialized",
      "type": "event"
    },
    {
      "anonymous": false,
      "inputs": [
        {
          "indexed": true,
          "internalType": "address",
          "name": "interchainGasPaymaster",
          "type": "address"
        }
      ],
      "name": "InterchainGasPaymasterSet",
      "type": "event"
    },
    {
      "anonymous": false,
      "inputs": [
        {
          "indexed": true,
          "internalType": "address",
          "name": "previousOwner",
          "type": "address"
        },
        {
          "indexed": true,
          "internalType": "address",
          "name": "newOwner",
          "type": "address"
        }
      ],
      "name": "OwnershipTransferred",
      "type": "event"
    },
    {
      "anonymous": false,
      "inputs": [
        {
          "indexed": true,
          "internalType": "uint32",
          "name": "domain",
          "type": "uint32"
        },
        {
          "indexed": true,
          "internalType": "bytes32",
          "name": "router",
          "type": "bytes32"
        }
      ],
      "name": "RemoteRouterEnrolled",
      "type": "event"
    },
    {
      "inputs": [],
      "name": "abacusConnectionManager",
      "outputs": [
        {
          "internalType": "contract IAbacusConnectionManager",
          "name": "",
          "type": "address"
        }
      ],
      "stateMutability": "view",
      "type": "function"
    },
    {
      "inputs": [
        {
          "internalType": "uint32",
          "name": "_domain",
          "type": "uint32"
        },
        {
          "internalType": "bytes32",
          "name": "_router",
          "type": "bytes32"
        }
      ],
      "name": "enrollRemoteRouter",
      "outputs": [],
      "stateMutability": "nonpayable",
      "type": "function"
    },
    {
      "inputs": [],
      "name": "getDomain",
      "outputs": [
        {
          "internalType": "uint32",
          "name": "_receiverDomain",
          "type": "uint32"
        }
      ],
      "stateMutability": "view",
      "type": "function"
    },
    {
      "inputs": [
        {
          "internalType": "bytes32",
          "name": "_htlcId",
          "type": "bytes32"
        }
      ],
      "name": "getHTLC",
      "outputs": [
        {
          "internalType": "bool",
          "name": "confirmed",
          "type": "bool"
        },
        {
          "internalType": "bool",
          "name": "refunded",
          "type": "bool"
        },
        {
          "internalType": "address",
          "name": "receiver",
          "type": "address"
        }
      ],
      "stateMutability": "view",
      "type": "function"
    },
    {
      "inputs": [],
      "name": "getHTLCIds",
      "outputs": [
        {
          "internalType": "bytes32[]",
          "name": "",
          "type": "bytes32[]"
        }
      ],
      "stateMutability": "view",
      "type": "function"
    },
    {
      "inputs": [
        {
          "internalType": "uint32",
          "name": "_origin",
          "type": "uint32"
        },
        {
          "internalType": "bytes32",
          "name": "_sender",
          "type": "bytes32"
        },
        {
          "internalType": "bytes",
          "name": "_message",
          "type": "bytes"
        }
      ],
      "name": "handle",
      "outputs": [],
      "stateMutability": "nonpayable",
      "type": "function"
    },
    {
      "inputs": [
        {
          "internalType": "address",
          "name": "_connectionManager",
          "type": "address"
        },
        {
          "internalType": "address",
          "name": "_interchainGasPaymaster",
          "type": "address"
        },
        {
          "internalType": "uint32",
          "name": "_receiverDomain",
          "type": "uint32"
        }
      ],
      "name": "initialize",
      "outputs": [],
      "stateMutability": "nonpayable",
      "type": "function"
    },
    {
      "inputs": [],
      "name": "interchainGasPaymaster",
      "outputs": [
        {
          "internalType": "contract IInterchainGasPaymaster",
          "name": "",
          "type": "address"
        }
      ],
      "stateMutability": "view",
      "type": "function"
    },
    {
      "inputs": [],
      "name": "owner",
      "outputs": [
        {
          "internalType": "address",
          "name": "",
          "type": "address"
        }
      ],
      "stateMutability": "view",
      "type": "function"
    },
    {
      "inputs": [
        {
          "internalType": "bytes32",
          "name": "_htlcId",
          "type": "bytes32"
        }
      ],
      "name": "refund",
      "outputs": [
        {
          "internalType": "bool",
          "name": "",
          "type": "bool"
        }
      ],
      "stateMutability": "nonpayable",
      "type": "function"
    },
    {
      "inputs": [],
      "name": "renounceOwnership",
      "outputs": [],
      "stateMutability": "nonpayable",
      "type": "function"
    },
    {
      "inputs": [
        {
          "internalType": "uint32",
          "name": "",
          "type": "uint32"
        }
      ],
      "name": "routers",
      "outputs": [
        {
          "internalType": "bytes32",
          "name": "",
          "type": "bytes32"
        }
      ],
      "stateMutability": "view",
      "type": "function"
    },
    {
      "inputs": [
        {
          "internalType": "address",
          "name": "_abacusConnectionManager",
          "type": "address"
        }
      ],
      "name": "setAbacusConnectionManager",
      "outputs": [],
      "stateMutability": "nonpayable",
      "type": "function"
    },
    {
      "inputs": [
        {
          "internalType": "address",
          "name": "_interchainGasPaymaster",
          "type": "address"
        }
      ],
      "name": "setInterchainGasPaymaster",
      "outputs": [],
      "stateMutability": "nonpayable",
      "type": "function"
    },
    {
      "inputs": [
        {
          "internalType": "uint256",
          "name": "_timelock",
          "type": "uint256"
        },
        {
          "internalType": "address",
          "name": "_sender",
          "type": "address"
        },
        {
          "internalType": "uint32",
          "name": "_senderDomain",
          "type": "uint32"
        },
        {
          "internalType": "address",
          "name": "_senderToken",
          "type": "address"
        },
        {
          "internalType": "uint256",
          "name": "_senderAmount",
          "type": "uint256"
        },
        {
          "internalType": "address",
          "name": "_receiverToken",
          "type": "address"
        },
        {
          "internalType": "uint256",
          "name": "_receiverAmount",
          "type": "uint256"
        }
      ],
      "name": "startWithdrawal",
      "outputs": [
        {
          "internalType": "bytes32",
          "name": "htlcId",
          "type": "bytes32"
        }
      ],
      "stateMutability": "payable",
      "type": "function"
    },
    {
      "inputs": [
        {
          "internalType": "address",
          "name": "newOwner",
          "type": "address"
        }
      ],
      "name": "transferOwnership",
      "outputs": [],
      "stateMutability": "nonpayable",
      "type": "function"
    }
  ],
  "bytecode": "0x608060405234801561001057600080fd5b506130e9806100206000396000f3fe6080604052600436106100f35760003560e01c80638da5cb5b1161008a578063b68d180911610059578063b68d18091461031d578063e4a1ed6f14610348578063f1bd6f0a14610373578063f2fde38b1461039c576100f3565b80638da5cb5b1461025f57806390c268381461028a5780639a35c359146102c9578063b49c53a7146102f4576100f3565b806356d5d475116100c657806356d5d475146101b95780636ecf2b22146101e2578063715018a61461020b5780637249fbb614610222576100f3565b806312b1d780146100f85780632d8b7d16146101215780632ead72f61461015157806339bb4ad91461018e575b600080fd5b34801561010457600080fd5b5061011f600480360381019061011a9190611c5a565b6103c5565b005b61013b60048036038101906101369190611cf9565b6103d9565b6040516101489190611db4565b60405180910390f35b34801561015d57600080fd5b5061017860048036038101906101739190611dcf565b61088b565b6040516101859190611db4565b60405180910390f35b34801561019a57600080fd5b506101a36108a3565b6040516101b09190611e5b565b60405180910390f35b3480156101c557600080fd5b506101e060048036038101906101db9190611f07565b6108c9565b005b3480156101ee57600080fd5b5061020960048036038101906102049190611f7b565b61098c565b005b34801561021757600080fd5b50610220610af0565b005b34801561022e57600080fd5b5061024960048036038101906102449190611fce565b610b04565b6040516102569190612016565b60405180910390f35b34801561026b57600080fd5b50610274610d7d565b6040516102819190612040565b60405180910390f35b34801561029657600080fd5b506102b160048036038101906102ac9190611fce565b610da7565b6040516102c09392919061205b565b60405180910390f35b3480156102d557600080fd5b506102de610e3e565b6040516102eb91906120b3565b60405180910390f35b34801561030057600080fd5b5061031b600480360381019061031691906120ce565b610e64565b005b34801561032957600080fd5b50610332610e7a565b60405161033f919061211d565b60405180910390f35b34801561035457600080fd5b5061035d610e94565b60405161036a91906121f6565b60405180910390f35b34801561037f57600080fd5b5061039a60048036038101906103959190611c5a565b610ea5565b005b3480156103a857600080fd5b506103c360048036038101906103be9190611c5a565b610eb9565b005b6103cd610f3c565b6103d681610fba565b50565b600082338360008111610421576040517f08c379a00000000000000000000000000000000000000000000000000000000081526004016104189061229b565b60405180910390fd5b808373ffffffffffffffffffffffffffffffffffffffff1663dd62ed3e84306040518363ffffffff1660e01b815260040161045d9291906122bb565b602060405180830381865afa15801561047a573d6000803e3d6000fd5b505050506040513d601f19601f8201168201806040525081019061049e91906122f9565b10156104df576040517f08c379a00000000000000000000000000000000000000000000000000000000081526004016104d690612398565b60405180910390fd5b6105116104ee8b8b8b8b611041565b61050b60cc60009054906101000a900463ffffffff16898961107a565b8d6110b0565b935061051c846110e6565b1561055c576040517f08c379a00000000000000000000000000000000000000000000000000000000081526004016105539061242a565b60405180910390fd5b8573ffffffffffffffffffffffffffffffffffffffff166323b872dd3330886040518463ffffffff1660e01b815260040161059993929190612459565b6020604051808303816000875af11580156105b8573d6000803e3d6000fd5b505050506040513d601f19601f820116820180604052508101906105dc91906124bc565b61061b576040517f08c379a00000000000000000000000000000000000000000000000000000000081526004016106129061255b565b60405180910390fd5b6040518061010001604052803373ffffffffffffffffffffffffffffffffffffffff1681526020018773ffffffffffffffffffffffffffffffffffffffff1681526020018681526020018b73ffffffffffffffffffffffffffffffffffffffff1681526020018a63ffffffff1681526020018c81526020016000151581526020016000151581525060c9600086815260200190815260200160002060008201518160000160006101000a81548173ffffffffffffffffffffffffffffffffffffffff021916908373ffffffffffffffffffffffffffffffffffffffff16021790555060208201518160010160006101000a81548173ffffffffffffffffffffffffffffffffffffffff021916908373ffffffffffffffffffffffffffffffffffffffff1602179055506040820151816002015560608201518160030160006101000a81548173ffffffffffffffffffffffffffffffffffffffff021916908373ffffffffffffffffffffffffffffffffffffffff16021790555060808201518160030160146101000a81548163ffffffff021916908363ffffffff16021790555060a0820151816004015560c08201518160050160006101000a81548160ff02191690831515021790555060e08201518160050160016101000a81548160ff02191690831515021790555090505061081d8460ca61110390919063ffffffff16565b506108508961084a866108453373ffffffffffffffffffffffffffffffffffffffff1661111a565b61113d565b34611169565b837fe59f6ed7e6aa917139f70a9ff46948c557c38f09881a8649fd3f68e29689b82e60405160405180910390a2505050979650505050505050565b60976020528060005260406000206000915090505481565b606660009054906101000a900473ffffffffffffffffffffffffffffffffffffffff1681565b6108d233611227565b610911576040517f08c379a0000000000000000000000000000000000000000000000000000000008152600401610908906125c7565b60405180910390fd5b838361091d82826112cc565b6040518060800160405280604381526020016130716043913990610977576040517f08c379a000000000000000000000000000000000000000000000000000000000815260040161096e919061266f565b60405180910390fd5b50610984868686866112f8565b505050505050565b60008060019054906101000a900460ff161590508080156109bd5750600160008054906101000a900460ff1660ff16105b806109ea57506109cc3061135f565b1580156109e95750600160008054906101000a900460ff1660ff16145b5b610a29576040517f08c379a0000000000000000000000000000000000000000000000000000000008152600401610a2090612703565b60405180910390fd5b60016000806101000a81548160ff021916908360ff1602179055508015610a66576001600060016101000a81548160ff0219169083151502179055505b610a708484611382565b8160cc60006101000a81548163ffffffff021916908363ffffffff1602179055508015610aea5760008060016101000a81548160ff0219169083151502179055507f7f26b83ff96e1f2b6a682f133852f6798a09c465da95921460cefb38474024986001604051610ae1919061276b565b60405180910390a15b50505050565b610af8610f3c565b610b0260006113e7565b565b600081610b10816110e6565b610b4f576040517f08c379a0000000000000000000000000000000000000000000000000000000008152600401610b46906127f8565b60405180910390fd5b600060c960008581526020019081526020016000209050600015158160050160009054906101000a900460ff16151514610bbe576040517f08c379a0000000000000000000000000000000000000000000000000000000008152600401610bb590612864565b60405180910390fd5b600015158160050160019054906101000a900460ff16151514610c16576040517f08c379a0000000000000000000000000000000000000000000000000000000008152600401610c0d906128d0565b60405180910390fd5b4281600401541115610c5d576040517f08c379a0000000000000000000000000000000000000000000000000000000008152600401610c5490612962565b60405180910390fd5b60018160050160016101000a81548160ff0219169083151502179055508060010160009054906101000a900473ffffffffffffffffffffffffffffffffffffffff1673ffffffffffffffffffffffffffffffffffffffff1663a9059cbb8260000160009054906101000a900473ffffffffffffffffffffffffffffffffffffffff1683600201546040518363ffffffff1660e01b8152600401610d01929190612982565b6020604051808303816000875af1158015610d20573d6000803e3d6000fd5b505050506040513d601f19601f82011682018060405250810190610d4491906124bc565b50837f25c0cb42002f469b8c07222f77709effe07c20669210af3511c8a0eaf671006660405160405180910390a2600192505050919050565b6000603360009054906101000a900473ffffffffffffffffffffffffffffffffffffffff16905090565b6000806000801515610db8856110e6565b151503610dcf576000806000925092509250610e37565b600060c9600086815260200190815260200160002090508060050160009054906101000a900460ff168160050160019054906101000a900460ff168260030160009054906101000a900473ffffffffffffffffffffffffffffffffffffffff16935093509350505b9193909250565b606560009054906101000a900473ffffffffffffffffffffffffffffffffffffffff1681565b610e6c610f3c565b610e7682826114ad565b5050565b600060cc60009054906101000a900463ffffffff16905090565b6060610ea060ca611509565b905090565b610ead610f3c565b610eb68161152a565b50565b610ec1610f3c565b600073ffffffffffffffffffffffffffffffffffffffff168173ffffffffffffffffffffffffffffffffffffffff1603610f30576040517f08c379a0000000000000000000000000000000000000000000000000000000008152600401610f2790612a1d565b60405180910390fd5b610f39816113e7565b50565b610f446115b1565b73ffffffffffffffffffffffffffffffffffffffff16610f62610d7d565b73ffffffffffffffffffffffffffffffffffffffff1614610fb8576040517f08c379a0000000000000000000000000000000000000000000000000000000008152600401610faf90612a89565b60405180910390fd5b565b80606560006101000a81548173ffffffffffffffffffffffffffffffffffffffff021916908373ffffffffffffffffffffffffffffffffffffffff1602179055508073ffffffffffffffffffffffffffffffffffffffff167f7c10de8878ed89478ff01b9cd8c11a5271ea8ac91d46f662e6aea7e3adf5b11f60405160405180910390a250565b60008484848460405160200161105a9493929190612b48565b604051602081830303815290604052805190602001209050949350505050565b600083838360405160200161109193929190612b96565b6040516020818303038152906040528051906020012090509392505050565b60008383836040516020016110c793929190612bf4565b6040516020818303038152906040528051906020012090509392505050565b60006110fc8260ca6115b990919063ffffffff16565b9050919050565b600061111283600001836115d0565b905092915050565b60008173ffffffffffffffffffffffffffffffffffffffff1660001b9050919050565b60608282604051602001611152929190612c31565b604051602081830303815290604052905092915050565b6000611173611640565b905060006111828286866116d8565b9050600083111561122057606660009054906101000a900473ffffffffffffffffffffffffffffffffffffffff1673ffffffffffffffffffffffffffffffffffffffff1663a5703c8e848484896040518563ffffffff1660e01b81526004016111ed93929190612c5d565b6000604051808303818588803b15801561120657600080fd5b505af115801561121a573d6000803e3d6000fd5b50505050505b5050505050565b6000606560009054906101000a900473ffffffffffffffffffffffffffffffffffffffff1673ffffffffffffffffffffffffffffffffffffffff1663282f51eb836040518263ffffffff1660e01b81526004016112849190612040565b602060405180830381865afa1580156112a1573d6000803e3d6000fd5b505050506040513d601f19601f820116820180604052508101906112c591906124bc565b9050919050565b600081609760008563ffffffff1663ffffffff1681526020019081526020016000205414905092915050565b60006113048383611770565b905061130f816110e6565b61134e576040517f08c379a000000000000000000000000000000000000000000000000000000000815260040161134590612ce0565b60405180910390fd5b61135781611799565b505050505050565b6000808273ffffffffffffffffffffffffffffffffffffffff163b119050919050565b600060019054906101000a900460ff166113d1576040517f08c379a00000000000000000000000000000000000000000000000000000000081526004016113c890612d72565b60405180910390fd5b6113da8161152a565b6113e3826119cb565b5050565b6000603360009054906101000a900473ffffffffffffffffffffffffffffffffffffffff16905081603360006101000a81548173ffffffffffffffffffffffffffffffffffffffff021916908373ffffffffffffffffffffffffffffffffffffffff1602179055508173ffffffffffffffffffffffffffffffffffffffff168173ffffffffffffffffffffffffffffffffffffffff167f8be0079c531659141344cd1fd0a4f28419497f9722a3daafe3b4186f6b6457e060405160405180910390a35050565b80609760008463ffffffff1663ffffffff16815260200190815260200160002081905550808263ffffffff167f97fd51fef1f80c854cbd0150c248e8b2ac4ecdc97cc05e742b5f61c9f4dc645860405160405180910390a35050565b6060600061151983600001611a2e565b905060608190508092505050919050565b80606660006101000a81548173ffffffffffffffffffffffffffffffffffffffff021916908373ffffffffffffffffffffffffffffffffffffffff1602179055508073ffffffffffffffffffffffffffffffffffffffff167fb87f5a0bface22cde699143559fb99f990ae54eea236995fc54178af91af859f60405160405180910390a250565b600033905090565b60006115c88360000183611a8a565b905092915050565b60006115dc8383611a8a565b61163557826000018290806001815401808255809150506001900390600052602060002001600090919091909150558260000180549050836001016000848152602001908152602001600020819055506001905061163a565b600090505b92915050565b6000606560009054906101000a900473ffffffffffffffffffffffffffffffffffffffff1673ffffffffffffffffffffffffffffffffffffffff1663ce11e6ab6040518163ffffffff1660e01b8152600401602060405180830381865afa1580156116af573d6000803e3d6000fd5b505050506040513d601f19601f820116820180604052508101906116d39190612dd0565b905090565b6000806116e484611aad565b90508473ffffffffffffffffffffffffffffffffffffffff1663fa31de018583866040518463ffffffff1660e01b815260040161172393929190612e52565b6020604051808303816000875af1158015611742573d6000803e3d6000fd5b505050506040513d601f19601f8201168201806040525081019061176691906122f9565b9150509392505050565b6000828260009060209261178693929190612e9a565b906117919190612eed565b905092915050565b6000816117a5816110e6565b6117e4576040517f08c379a00000000000000000000000000000000000000000000000000000000081526004016117db906127f8565b60405180910390fd5b600060c960008581526020019081526020016000209050600015158160050160009054906101000a900460ff16151514611853576040517f08c379a000000000000000000000000000000000000000000000000000000000815260040161184a90612fbe565b60405180910390fd5b600015158160050160019054906101000a900460ff161515146118ab576040517f08c379a00000000000000000000000000000000000000000000000000000000081526004016118a290613050565b60405180910390fd5b8060010160009054906101000a900473ffffffffffffffffffffffffffffffffffffffff1673ffffffffffffffffffffffffffffffffffffffff1663a9059cbb8260030160009054906101000a900473ffffffffffffffffffffffffffffffffffffffff1683600201546040518363ffffffff1660e01b8152600401611932929190612982565b6020604051808303816000875af1158015611951573d6000803e3d6000fd5b505050506040513d601f19601f8201168201806040525081019061197591906124bc565b5060018160050160006101000a81548160ff021916908315150217905550837fda7cf22fe8502350535e86f79b05f9e563096630898b73b0b985c95e342c360260405160405180910390a2600192505050919050565b600060019054906101000a900460ff16611a1a576040517f08c379a0000000000000000000000000000000000000000000000000000000008152600401611a1190612d72565b60405180910390fd5b611a2381610fba565b611a2b611b38565b50565b606081600001805480602002602001604051908101604052809291908181526020018280548015611a7e57602002820191906000526020600020905b815481526020019060010190808311611a6a575b50505050509050919050565b600080836001016000848152602001908152602001600020541415905092915050565b6000609760008363ffffffff1663ffffffff1681526020019081526020016000205490506000801b8114156040518060800160405280604381526020016130716043913990611b32576040517f08c379a0000000000000000000000000000000000000000000000000000000008152600401611b29919061266f565b60405180910390fd5b50919050565b600060019054906101000a900460ff16611b87576040517f08c379a0000000000000000000000000000000000000000000000000000000008152600401611b7e90612d72565b60405180910390fd5b611b8f611b91565b565b600060019054906101000a900460ff16611be0576040517f08c379a0000000000000000000000000000000000000000000000000000000008152600401611bd790612d72565b60405180910390fd5b611bf0611beb6115b1565b6113e7565b565b600080fd5b600080fd5b600073ffffffffffffffffffffffffffffffffffffffff82169050919050565b6000611c2782611bfc565b9050919050565b611c3781611c1c565b8114611c4257600080fd5b50565b600081359050611c5481611c2e565b92915050565b600060208284031215611c7057611c6f611bf2565b5b6000611c7e84828501611c45565b91505092915050565b6000819050919050565b611c9a81611c87565b8114611ca557600080fd5b50565b600081359050611cb781611c91565b92915050565b600063ffffffff82169050919050565b611cd681611cbd565b8114611ce157600080fd5b50565b600081359050611cf381611ccd565b92915050565b600080600080600080600060e0888a031215611d1857611d17611bf2565b5b6000611d268a828b01611ca8565b9750506020611d378a828b01611c45565b9650506040611d488a828b01611ce4565b9550506060611d598a828b01611c45565b9450506080611d6a8a828b01611ca8565b93505060a0611d7b8a828b01611c45565b92505060c0611d8c8a828b01611ca8565b91505092959891949750929550565b6000819050919050565b611dae81611d9b565b82525050565b6000602082019050611dc96000830184611da5565b92915050565b600060208284031215611de557611de4611bf2565b5b6000611df384828501611ce4565b91505092915050565b6000819050919050565b6000611e21611e1c611e1784611bfc565b611dfc565b611bfc565b9050919050565b6000611e3382611e06565b9050919050565b6000611e4582611e28565b9050919050565b611e5581611e3a565b82525050565b6000602082019050611e706000830184611e4c565b92915050565b611e7f81611d9b565b8114611e8a57600080fd5b50565b600081359050611e9c81611e76565b92915050565b600080fd5b600080fd5b600080fd5b60008083601f840112611ec757611ec6611ea2565b5b8235905067ffffffffffffffff811115611ee457611ee3611ea7565b5b602083019150836001820283011115611f0057611eff611eac565b5b9250929050565b60008060008060608587031215611f2157611f20611bf2565b5b6000611f2f87828801611ce4565b9450506020611f4087828801611e8d565b935050604085013567ffffffffffffffff811115611f6157611f60611bf7565b5b611f6d87828801611eb1565b925092505092959194509250565b600080600060608486031215611f9457611f93611bf2565b5b6000611fa286828701611c45565b9350506020611fb386828701611c45565b9250506040611fc486828701611ce4565b9150509250925092565b600060208284031215611fe457611fe3611bf2565b5b6000611ff284828501611e8d565b91505092915050565b60008115159050919050565b61201081611ffb565b82525050565b600060208201905061202b6000830184612007565b92915050565b61203a81611c1c565b82525050565b60006020820190506120556000830184612031565b92915050565b60006060820190506120706000830186612007565b61207d6020830185612007565b61208a6040830184612031565b949350505050565b600061209d82611e28565b9050919050565b6120ad81612092565b82525050565b60006020820190506120c860008301846120a4565b92915050565b600080604083850312156120e5576120e4611bf2565b5b60006120f385828601611ce4565b925050602061210485828601611e8d565b9150509250929050565b61211781611cbd565b82525050565b6000602082019050612132600083018461210e565b92915050565b600081519050919050565b600082825260208201905092915050565b6000819050602082019050919050565b61216d81611d9b565b82525050565b600061217f8383612164565b60208301905092915050565b6000602082019050919050565b60006121a382612138565b6121ad8185612143565b93506121b883612154565b8060005b838110156121e95781516121d08882612173565b97506121db8361218b565b9250506001810190506121bc565b5085935050505092915050565b600060208201905081810360008301526122108184612198565b905092915050565b600082825260208201905092915050565b7f746f6b656e735472616e7366657261626c653a20746f6b656e20616d6f756e7460008201527f206d757374206265203e20300000000000000000000000000000000000000000602082015250565b6000612285602c83612218565b915061229082612229565b604082019050919050565b600060208201905081810360008301526122b481612278565b9050919050565b60006040820190506122d06000830185612031565b6122dd6020830184612031565b9392505050565b6000815190506122f381611c91565b92915050565b60006020828403121561230f5761230e611bf2565b5b600061231d848285016122e4565b91505092915050565b7f746f6b656e735472616e7366657261626c653a20746f6b656e20616c6c6f776160008201527f6e6365206d757374206265203e3d20616d6f756e740000000000000000000000602082015250565b6000612382603583612218565b915061238d82612326565b604082019050919050565b600060208201905081810360008301526123b181612375565b9050919050565b7f73746172745769746864726177616c3a205769746864726177616c20616c726560008201527f6164792073746172746564000000000000000000000000000000000000000000602082015250565b6000612414602b83612218565b915061241f826123b8565b604082019050919050565b6000602082019050818103600083015261244381612407565b9050919050565b61245381611c87565b82525050565b600060608201905061246e6000830186612031565b61247b6020830185612031565b612488604083018461244a565b949350505050565b61249981611ffb565b81146124a457600080fd5b50565b6000815190506124b681612490565b92915050565b6000602082840312156124d2576124d1611bf2565b5b60006124e0848285016124a7565b91505092915050565b7f77697468647261773a207472616e7366657246726f6d2073656e64657220746f60008201527f2074686973206661696c65640000000000000000000000000000000000000000602082015250565b6000612545602c83612218565b9150612550826124e9565b604082019050919050565b6000602082019050818103600083015261257481612538565b9050919050565b7f21696e626f780000000000000000000000000000000000000000000000000000600082015250565b60006125b1600683612218565b91506125bc8261257b565b602082019050919050565b600060208201905081810360008301526125e0816125a4565b9050919050565b600081519050919050565b60005b838110156126105780820151818401526020810190506125f5565b8381111561261f576000848401525b50505050565b6000601f19601f8301169050919050565b6000612641826125e7565b61264b8185612218565b935061265b8185602086016125f2565b61266481612625565b840191505092915050565b600060208201905081810360008301526126898184612636565b905092915050565b7f496e697469616c697a61626c653a20636f6e747261637420697320616c72656160008201527f647920696e697469616c697a6564000000000000000000000000000000000000602082015250565b60006126ed602e83612218565b91506126f882612691565b604082019050919050565b6000602082019050818103600083015261271c816126e0565b9050919050565b6000819050919050565b600060ff82169050919050565b600061275561275061274b84612723565b611dfc565b61272d565b9050919050565b6127658161273a565b82525050565b6000602082019050612780600083018461275c565b92915050565b7f68746c634578697374733a2068746c63496420646f6573206e6f74206578697360008201527f7400000000000000000000000000000000000000000000000000000000000000602082015250565b60006127e2602183612218565b91506127ed82612786565b604082019050919050565b60006020820190508181036000830152612811816127d5565b9050919050565b7f726566756e6461626c653a20616c72656164792077697468647261776e000000600082015250565b600061284e601d83612218565b915061285982612818565b602082019050919050565b6000602082019050818103600083015261287d81612841565b9050919050565b7f726566756e6461626c653a20616c726561647920726566756e64656400000000600082015250565b60006128ba601c83612218565b91506128c582612884565b602082019050919050565b600060208201905081810360008301526128e9816128ad565b9050919050565b7f726566756e6461626c653a2074696d656c6f636b206e6f74207965742070617360008201527f7365640000000000000000000000000000000000000000000000000000000000602082015250565b600061294c602383612218565b9150612957826128f0565b604082019050919050565b6000602082019050818103600083015261297b8161293f565b9050919050565b60006040820190506129976000830185612031565b6129a4602083018461244a565b9392505050565b7f4f776e61626c653a206e6577206f776e657220697320746865207a65726f206160008201527f6464726573730000000000000000000000000000000000000000000000000000602082015250565b6000612a07602683612218565b9150612a12826129ab565b604082019050919050565b60006020820190508181036000830152612a36816129fa565b9050919050565b7f4f776e61626c653a2063616c6c6572206973206e6f7420746865206f776e6572600082015250565b6000612a73602083612218565b9150612a7e82612a3d565b602082019050919050565b60006020820190508181036000830152612aa281612a66565b9050919050565b60008160601b9050919050565b6000612ac182612aa9565b9050919050565b6000612ad382612ab6565b9050919050565b612aeb612ae682611c1c565b612ac8565b82525050565b60008160e01b9050919050565b6000612b0982612af1565b9050919050565b612b21612b1c82611cbd565b612afe565b82525050565b6000819050919050565b612b42612b3d82611c87565b612b27565b82525050565b6000612b548287612ada565b601482019150612b648286612b10565b600482019150612b748285612ada565b601482019150612b848284612b31565b60208201915081905095945050505050565b6000612ba28286612b10565b600482019150612bb28285612ada565b601482019150612bc28284612b31565b602082019150819050949350505050565b6000819050919050565b612bee612be982611d9b565b612bd3565b82525050565b6000612c008286612bdd565b602082019150612c108285612bdd565b602082019150612c208284612b31565b602082019150819050949350505050565b6000612c3d8285612bdd565b602082019150612c4d8284612bdd565b6020820191508190509392505050565b6000606082019050612c726000830186612031565b612c7f602083018561244a565b612c8c604083018461210e565b949350505050565b7f5f68616e646c653a2048544c43206e6f7420666f756e64000000000000000000600082015250565b6000612cca601783612218565b9150612cd582612c94565b602082019050919050565b60006020820190508181036000830152612cf981612cbd565b9050919050565b7f496e697469616c697a61626c653a20636f6e7472616374206973206e6f74206960008201527f6e697469616c697a696e67000000000000000000000000000000000000000000602082015250565b6000612d5c602b83612218565b9150612d6782612d00565b604082019050919050565b60006020820190508181036000830152612d8b81612d4f565b9050919050565b6000612d9d82611c1c565b9050919050565b612dad81612d92565b8114612db857600080fd5b50565b600081519050612dca81612da4565b92915050565b600060208284031215612de657612de5611bf2565b5b6000612df484828501612dbb565b91505092915050565b600081519050919050565b600082825260208201905092915050565b6000612e2482612dfd565b612e2e8185612e08565b9350612e3e8185602086016125f2565b612e4781612625565b840191505092915050565b6000606082019050612e67600083018661210e565b612e746020830185611da5565b8181036040830152612e868184612e19565b9050949350505050565b600080fd5b600080fd5b60008085851115612eae57612ead612e90565b5b83861115612ebf57612ebe612e95565b5b6001850283019150848603905094509492505050565b600082905092915050565b600082821b905092915050565b6000612ef98383612ed5565b82612f048135611d9b565b92506020821015612f4457612f3f7fffffffffffffffffffffffffffffffffffffffffffffffffffffffffffffffff83602003600802612ee0565b831692505b505092915050565b7f66696e6973685769746864726177616c3a20616c72656164792077697468647260008201527f61776e0000000000000000000000000000000000000000000000000000000000602082015250565b6000612fa8602383612218565b9150612fb382612f4c565b604082019050919050565b60006020820190508181036000830152612fd781612f9b565b9050919050565b7f66696e6973685769746864726177616c3a20616c726561647920726566756e6460008201527f6564000000000000000000000000000000000000000000000000000000000000602082015250565b600061303a602283612218565b915061304582612fde565b604082019050919050565b600060208201905081810360008301526130698161302d565b905091905056fe4e6f20726f7574657220656e726f6c6c656420666f7220646f6d61696e2e2044696420796f7520737065636966792074686520726967687420646f6d61696e2049443fa26469706673582212205081668af2320244f3176b9c37f29b55b4c2f2d7512867a128f4a8128fff134664736f6c634300080d0033",
  "linkReferences": {},
  "deployedLinkReferences": {}
}