{
  "_format": "hh-sol-artifact-1",
  "contractName": "ERC20MultichainAtomicSwapReceiver",
  "sourceName": "contracts/ERC20MultichainAtomicSwapReceiver.sol",
  "abi": [
    {
      "anonymous": false,
      "inputs": [
        {
          "indexed": true,
          "internalType": "address",
          "name": "abacusConnectionManager",
          "type": "address"
        }
      ],
      "name": "AbacusConnectionManagerSet",
      "type": "event"
    },
    {
      "anonymous": false,
      "inputs": [
        {
          "indexed": true,
          "internalType": "bytes32",
          "name": "htlcId",
          "type": "bytes32"
        }
      ],
      "name": "HTLCERC20Refunded",
      "type": "event"
    },
    {
      "anonymous": false,
      "inputs": [
        {
          "indexed": true,
          "internalType": "bytes32",
          "name": "htlcId",
          "type": "bytes32"
        }
      ],
      "name": "HTLCERC20WithdrawalCompleted",
      "type": "event"
    },
    {
      "anonymous": false,
      "inputs": [
        {
          "indexed": true,
          "internalType": "bytes32",
          "name": "htlcId",
          "type": "bytes32"
        }
      ],
      "name": "HTLCERC20WithdrawalInitiated",
      "type": "event"
    },
    {
      "anonymous": false,
      "inputs": [
        {
          "indexed": false,
          "internalType": "uint8",
          "name": "version",
          "type": "uint8"
        }
      ],
      "name": "Initialized",
      "type": "event"
    },
    {
      "anonymous": false,
      "inputs": [
        {
          "indexed": true,
          "internalType": "address",
          "name": "interchainGasPaymaster",
          "type": "address"
        }
      ],
      "name": "InterchainGasPaymasterSet",
      "type": "event"
    },
    {
      "anonymous": false,
      "inputs": [
        {
          "indexed": true,
          "internalType": "address",
          "name": "previousOwner",
          "type": "address"
        },
        {
          "indexed": true,
          "internalType": "address",
          "name": "newOwner",
          "type": "address"
        }
      ],
      "name": "OwnershipTransferred",
      "type": "event"
    },
    {
      "anonymous": false,
      "inputs": [
        {
          "indexed": true,
          "internalType": "uint32",
          "name": "domain",
          "type": "uint32"
        },
        {
          "indexed": true,
          "internalType": "bytes32",
          "name": "router",
          "type": "bytes32"
        }
      ],
      "name": "RemoteRouterEnrolled",
      "type": "event"
    },
    {
      "inputs": [],
      "name": "abacusConnectionManager",
      "outputs": [
        {
          "internalType": "contract IAbacusConnectionManager",
          "name": "",
          "type": "address"
        }
      ],
      "stateMutability": "view",
      "type": "function"
    },
    {
      "inputs": [
        {
          "internalType": "uint32",
          "name": "_domain",
          "type": "uint32"
        },
        {
          "internalType": "bytes32",
          "name": "_router",
          "type": "bytes32"
        }
      ],
      "name": "enrollRemoteRouter",
      "outputs": [],
      "stateMutability": "nonpayable",
      "type": "function"
    },
    {
      "inputs": [],
      "name": "getDomain",
      "outputs": [
        {
          "internalType": "uint32",
          "name": "_receiverDomain",
          "type": "uint32"
        }
      ],
      "stateMutability": "view",
      "type": "function"
    },
    {
      "inputs": [
        {
          "internalType": "bytes32",
          "name": "_htlcId",
          "type": "bytes32"
        }
      ],
      "name": "getHTLC",
      "outputs": [
        {
          "internalType": "bool",
          "name": "confirmed",
          "type": "bool"
        },
        {
          "internalType": "bool",
          "name": "refunded",
          "type": "bool"
        },
        {
          "internalType": "address",
          "name": "receiver",
          "type": "address"
        }
      ],
      "stateMutability": "view",
      "type": "function"
    },
    {
      "inputs": [
        {
          "internalType": "uint32",
          "name": "_origin",
          "type": "uint32"
        },
        {
          "internalType": "bytes32",
          "name": "_sender",
          "type": "bytes32"
        },
        {
          "internalType": "bytes",
          "name": "_message",
          "type": "bytes"
        }
      ],
      "name": "handle",
      "outputs": [],
      "stateMutability": "nonpayable",
      "type": "function"
    },
    {
      "inputs": [
        {
          "internalType": "address",
          "name": "_connectionManager",
          "type": "address"
        },
        {
          "internalType": "address",
          "name": "_interchainGasPaymaster",
          "type": "address"
        },
        {
          "internalType": "uint32",
          "name": "_receiverDomain",
          "type": "uint32"
        }
      ],
      "name": "initialize",
      "outputs": [],
      "stateMutability": "nonpayable",
      "type": "function"
    },
    {
      "inputs": [],
      "name": "interchainGasPaymaster",
      "outputs": [
        {
          "internalType": "contract IInterchainGasPaymaster",
          "name": "",
          "type": "address"
        }
      ],
      "stateMutability": "view",
      "type": "function"
    },
    {
      "inputs": [],
      "name": "owner",
      "outputs": [
        {
          "internalType": "address",
          "name": "",
          "type": "address"
        }
      ],
      "stateMutability": "view",
      "type": "function"
    },
    {
      "inputs": [
        {
          "internalType": "bytes32",
          "name": "_htlcId",
          "type": "bytes32"
        }
      ],
      "name": "refund",
      "outputs": [
        {
          "internalType": "bool",
          "name": "",
          "type": "bool"
        }
      ],
      "stateMutability": "nonpayable",
      "type": "function"
    },
    {
      "inputs": [],
      "name": "renounceOwnership",
      "outputs": [],
      "stateMutability": "nonpayable",
      "type": "function"
    },
    {
      "inputs": [
        {
          "internalType": "uint32",
          "name": "",
          "type": "uint32"
        }
      ],
      "name": "routers",
      "outputs": [
        {
          "internalType": "bytes32",
          "name": "",
          "type": "bytes32"
        }
      ],
      "stateMutability": "view",
      "type": "function"
    },
    {
      "inputs": [
        {
          "internalType": "address",
          "name": "_abacusConnectionManager",
          "type": "address"
        }
      ],
      "name": "setAbacusConnectionManager",
      "outputs": [],
      "stateMutability": "nonpayable",
      "type": "function"
    },
    {
      "inputs": [
        {
          "internalType": "address",
          "name": "_interchainGasPaymaster",
          "type": "address"
        }
      ],
      "name": "setInterchainGasPaymaster",
      "outputs": [],
      "stateMutability": "nonpayable",
      "type": "function"
    },
    {
      "inputs": [
        {
          "internalType": "uint256",
          "name": "_timelock",
          "type": "uint256"
        },
        {
          "internalType": "address",
          "name": "_sender",
          "type": "address"
        },
        {
          "internalType": "uint32",
          "name": "_senderDomain",
          "type": "uint32"
        },
        {
          "internalType": "address",
          "name": "_senderToken",
          "type": "address"
        },
        {
          "internalType": "uint256",
          "name": "_senderAmount",
          "type": "uint256"
        },
        {
          "internalType": "address",
          "name": "_receiverToken",
          "type": "address"
        },
        {
          "internalType": "uint256",
          "name": "_receiverAmount",
          "type": "uint256"
        }
      ],
      "name": "startWithdrawal",
      "outputs": [
        {
          "internalType": "bytes32",
          "name": "htlcId",
          "type": "bytes32"
        }
      ],
      "stateMutability": "payable",
      "type": "function"
    },
    {
      "inputs": [
        {
          "internalType": "address",
          "name": "newOwner",
          "type": "address"
        }
      ],
      "name": "transferOwnership",
      "outputs": [],
      "stateMutability": "nonpayable",
      "type": "function"
    }
  ],
  "bytecode": "0x608060405234801561001057600080fd5b50612ec1806100206000396000f3fe6080604052600436106100e85760003560e01c80637249fbb61161008a578063b49c53a711610059578063b49c53a7146102e9578063b68d180914610312578063f1bd6f0a1461033d578063f2fde38b14610366576100e8565b80637249fbb6146102175780638da5cb5b1461025457806390c268381461027f5780639a35c359146102be576100e8565b806339bb4ad9116100c657806339bb4ad91461018357806356d5d475146101ae5780636ecf2b22146101d7578063715018a614610200576100e8565b806312b1d780146100ed5780632d8b7d16146101165780632ead72f614610146575b600080fd5b3480156100f957600080fd5b50610114600480360381019061010f9190611b12565b61038f565b005b610130600480360381019061012b9190611bb1565b6103a3565b60405161013d9190611c6c565b60405180910390f35b34801561015257600080fd5b5061016d60048036038101906101689190611c87565b610840565b60405161017a9190611c6c565b60405180910390f35b34801561018f57600080fd5b50610198610858565b6040516101a59190611d13565b60405180910390f35b3480156101ba57600080fd5b506101d560048036038101906101d09190611dbf565b61087e565b005b3480156101e357600080fd5b506101fe60048036038101906101f99190611e33565b610941565b005b34801561020c57600080fd5b50610215610aa5565b005b34801561022357600080fd5b5061023e60048036038101906102399190611e86565b610ab9565b60405161024b9190611ece565b60405180910390f35b34801561026057600080fd5b50610269610d32565b6040516102769190611ef8565b60405180910390f35b34801561028b57600080fd5b506102a660048036038101906102a19190611e86565b610d5c565b6040516102b593929190611f13565b60405180910390f35b3480156102ca57600080fd5b506102d3610df3565b6040516102e09190611f6b565b60405180910390f35b3480156102f557600080fd5b50610310600480360381019061030b9190611f86565b610e19565b005b34801561031e57600080fd5b50610327610e2f565b6040516103349190611fd5565b60405180910390f35b34801561034957600080fd5b50610364600480360381019061035f9190611b12565b610e49565b005b34801561037257600080fd5b5061038d60048036038101906103889190611b12565b610e5d565b005b610397610ee0565b6103a081610f5e565b50565b6000823383600081116103eb576040517f08c379a00000000000000000000000000000000000000000000000000000000081526004016103e290612073565b60405180910390fd5b808373ffffffffffffffffffffffffffffffffffffffff1663dd62ed3e84306040518363ffffffff1660e01b8152600401610427929190612093565b602060405180830381865afa158015610444573d6000803e3d6000fd5b505050506040513d601f19601f8201168201806040525081019061046891906120d1565b10156104a9576040517f08c379a00000000000000000000000000000000000000000000000000000000081526004016104a090612170565b60405180910390fd5b6104db6104b88b8b8b8b610fe5565b6104d560ca60009054906101000a900463ffffffff16898961101e565b8d611054565b93506104e68461108a565b15610526576040517f08c379a000000000000000000000000000000000000000000000000000000000815260040161051d90612202565b60405180910390fd5b8573ffffffffffffffffffffffffffffffffffffffff166323b872dd3330886040518463ffffffff1660e01b815260040161056393929190612231565b6020604051808303816000875af1158015610582573d6000803e3d6000fd5b505050506040513d601f19601f820116820180604052508101906105a69190612294565b6105e5576040517f08c379a00000000000000000000000000000000000000000000000000000000081526004016105dc90612333565b60405180910390fd5b6040518061010001604052803373ffffffffffffffffffffffffffffffffffffffff1681526020018773ffffffffffffffffffffffffffffffffffffffff1681526020018681526020018b73ffffffffffffffffffffffffffffffffffffffff1681526020018a63ffffffff1681526020018c81526020016000151581526020016000151581525060c9600086815260200190815260200160002060008201518160000160006101000a81548173ffffffffffffffffffffffffffffffffffffffff021916908373ffffffffffffffffffffffffffffffffffffffff16021790555060208201518160010160006101000a81548173ffffffffffffffffffffffffffffffffffffffff021916908373ffffffffffffffffffffffffffffffffffffffff1602179055506040820151816002015560608201518160030160006101000a81548173ffffffffffffffffffffffffffffffffffffffff021916908373ffffffffffffffffffffffffffffffffffffffff16021790555060808201518160030160146101000a81548163ffffffff021916908363ffffffff16021790555060a0820151816004015560c08201518160050160006101000a81548160ff02191690831515021790555060e08201518160050160016101000a81548160ff021916908315150217905550905050610805896107ff866107fa3373ffffffffffffffffffffffffffffffffffffffff166110f9565b61111c565b34611148565b837fe59f6ed7e6aa917139f70a9ff46948c557c38f09881a8649fd3f68e29689b82e60405160405180910390a2505050979650505050505050565b60976020528060005260406000206000915090505481565b606660009054906101000a900473ffffffffffffffffffffffffffffffffffffffff1681565b61088733611206565b6108c6576040517f08c379a00000000000000000000000000000000000000000000000000000000081526004016108bd9061239f565b60405180910390fd5b83836108d282826112ab565b604051806080016040528060438152602001612e49604391399061092c576040517f08c379a00000000000000000000000000000000000000000000000000000000081526004016109239190612447565b60405180910390fd5b50610939868686866112d7565b505050505050565b60008060019054906101000a900460ff161590508080156109725750600160008054906101000a900460ff1660ff16105b8061099f57506109813061133e565b15801561099e5750600160008054906101000a900460ff1660ff16145b5b6109de576040517f08c379a00000000000000000000000000000000000000000000000000000000081526004016109d5906124db565b60405180910390fd5b60016000806101000a81548160ff021916908360ff1602179055508015610a1b576001600060016101000a81548160ff0219169083151502179055505b610a258484611361565b8160ca60006101000a81548163ffffffff021916908363ffffffff1602179055508015610a9f5760008060016101000a81548160ff0219169083151502179055507f7f26b83ff96e1f2b6a682f133852f6798a09c465da95921460cefb38474024986001604051610a969190612543565b60405180910390a15b50505050565b610aad610ee0565b610ab760006113c6565b565b600081610ac58161108a565b610b04576040517f08c379a0000000000000000000000000000000000000000000000000000000008152600401610afb906125d0565b60405180910390fd5b600060c960008581526020019081526020016000209050600015158160050160009054906101000a900460ff16151514610b73576040517f08c379a0000000000000000000000000000000000000000000000000000000008152600401610b6a9061263c565b60405180910390fd5b600015158160050160019054906101000a900460ff16151514610bcb576040517f08c379a0000000000000000000000000000000000000000000000000000000008152600401610bc2906126a8565b60405180910390fd5b4281600401541115610c12576040517f08c379a0000000000000000000000000000000000000000000000000000000008152600401610c099061273a565b60405180910390fd5b60018160050160016101000a81548160ff0219169083151502179055508060010160009054906101000a900473ffffffffffffffffffffffffffffffffffffffff1673ffffffffffffffffffffffffffffffffffffffff1663a9059cbb8260000160009054906101000a900473ffffffffffffffffffffffffffffffffffffffff1683600201546040518363ffffffff1660e01b8152600401610cb692919061275a565b6020604051808303816000875af1158015610cd5573d6000803e3d6000fd5b505050506040513d601f19601f82011682018060405250810190610cf99190612294565b50837f25c0cb42002f469b8c07222f77709effe07c20669210af3511c8a0eaf671006660405160405180910390a2600192505050919050565b6000603360009054906101000a900473ffffffffffffffffffffffffffffffffffffffff16905090565b6000806000801515610d6d8561108a565b151503610d84576000806000925092509250610dec565b600060c9600086815260200190815260200160002090508060050160009054906101000a900460ff168160050160019054906101000a900460ff168260030160009054906101000a900473ffffffffffffffffffffffffffffffffffffffff16935093509350505b9193909250565b606560009054906101000a900473ffffffffffffffffffffffffffffffffffffffff1681565b610e21610ee0565b610e2b828261148c565b5050565b600060ca60009054906101000a900463ffffffff16905090565b610e51610ee0565b610e5a816114e8565b50565b610e65610ee0565b600073ffffffffffffffffffffffffffffffffffffffff168173ffffffffffffffffffffffffffffffffffffffff1603610ed4576040517f08c379a0000000000000000000000000000000000000000000000000000000008152600401610ecb906127f5565b60405180910390fd5b610edd816113c6565b50565b610ee861156f565b73ffffffffffffffffffffffffffffffffffffffff16610f06610d32565b73ffffffffffffffffffffffffffffffffffffffff1614610f5c576040517f08c379a0000000000000000000000000000000000000000000000000000000008152600401610f5390612861565b60405180910390fd5b565b80606560006101000a81548173ffffffffffffffffffffffffffffffffffffffff021916908373ffffffffffffffffffffffffffffffffffffffff1602179055508073ffffffffffffffffffffffffffffffffffffffff167f7c10de8878ed89478ff01b9cd8c11a5271ea8ac91d46f662e6aea7e3adf5b11f60405160405180910390a250565b600084848484604051602001610ffe9493929190612920565b604051602081830303815290604052805190602001209050949350505050565b60008383836040516020016110359392919061296e565b6040516020818303038152906040528051906020012090509392505050565b600083838360405160200161106b939291906129cc565b6040516020818303038152906040528051906020012090509392505050565b60008073ffffffffffffffffffffffffffffffffffffffff1660c9600084815260200190815260200160002060030160009054906101000a900473ffffffffffffffffffffffffffffffffffffffff1673ffffffffffffffffffffffffffffffffffffffff1614159050919050565b60008173ffffffffffffffffffffffffffffffffffffffff1660001b9050919050565b60608282604051602001611131929190612a09565b604051602081830303815290604052905092915050565b6000611152611577565b9050600061116182868661160f565b905060008311156111ff57606660009054906101000a900473ffffffffffffffffffffffffffffffffffffffff1673ffffffffffffffffffffffffffffffffffffffff1663a5703c8e848484896040518563ffffffff1660e01b81526004016111cc93929190612a35565b6000604051808303818588803b1580156111e557600080fd5b505af11580156111f9573d6000803e3d6000fd5b50505050505b5050505050565b6000606560009054906101000a900473ffffffffffffffffffffffffffffffffffffffff1673ffffffffffffffffffffffffffffffffffffffff1663282f51eb836040518263ffffffff1660e01b81526004016112639190611ef8565b602060405180830381865afa158015611280573d6000803e3d6000fd5b505050506040513d601f19601f820116820180604052508101906112a49190612294565b9050919050565b600081609760008563ffffffff1663ffffffff1681526020019081526020016000205414905092915050565b60006112e383836116a7565b90506112ee8161108a565b61132d576040517f08c379a000000000000000000000000000000000000000000000000000000000815260040161132490612ab8565b60405180910390fd5b611336816116d0565b505050505050565b6000808273ffffffffffffffffffffffffffffffffffffffff163b119050919050565b600060019054906101000a900460ff166113b0576040517f08c379a00000000000000000000000000000000000000000000000000000000081526004016113a790612b4a565b60405180910390fd5b6113b9816114e8565b6113c282611902565b5050565b6000603360009054906101000a900473ffffffffffffffffffffffffffffffffffffffff16905081603360006101000a81548173ffffffffffffffffffffffffffffffffffffffff021916908373ffffffffffffffffffffffffffffffffffffffff1602179055508173ffffffffffffffffffffffffffffffffffffffff168173ffffffffffffffffffffffffffffffffffffffff167f8be0079c531659141344cd1fd0a4f28419497f9722a3daafe3b4186f6b6457e060405160405180910390a35050565b80609760008463ffffffff1663ffffffff16815260200190815260200160002081905550808263ffffffff167f97fd51fef1f80c854cbd0150c248e8b2ac4ecdc97cc05e742b5f61c9f4dc645860405160405180910390a35050565b80606660006101000a81548173ffffffffffffffffffffffffffffffffffffffff021916908373ffffffffffffffffffffffffffffffffffffffff1602179055508073ffffffffffffffffffffffffffffffffffffffff167fb87f5a0bface22cde699143559fb99f990ae54eea236995fc54178af91af859f60405160405180910390a250565b600033905090565b6000606560009054906101000a900473ffffffffffffffffffffffffffffffffffffffff1673ffffffffffffffffffffffffffffffffffffffff1663ce11e6ab6040518163ffffffff1660e01b8152600401602060405180830381865afa1580156115e6573d6000803e3d6000fd5b505050506040513d601f19601f8201168201806040525081019061160a9190612ba8565b905090565b60008061161b84611965565b90508473ffffffffffffffffffffffffffffffffffffffff1663fa31de018583866040518463ffffffff1660e01b815260040161165a93929190612c2a565b6020604051808303816000875af1158015611679573d6000803e3d6000fd5b505050506040513d601f19601f8201168201806040525081019061169d91906120d1565b9150509392505050565b600082826000906020926116bd93929190612c72565b906116c89190612cc5565b905092915050565b6000816116dc8161108a565b61171b576040517f08c379a0000000000000000000000000000000000000000000000000000000008152600401611712906125d0565b60405180910390fd5b600060c960008581526020019081526020016000209050600015158160050160009054906101000a900460ff1615151461178a576040517f08c379a000000000000000000000000000000000000000000000000000000000815260040161178190612d96565b60405180910390fd5b600015158160050160019054906101000a900460ff161515146117e2576040517f08c379a00000000000000000000000000000000000000000000000000000000081526004016117d990612e28565b60405180910390fd5b8060010160009054906101000a900473ffffffffffffffffffffffffffffffffffffffff1673ffffffffffffffffffffffffffffffffffffffff1663a9059cbb8260030160009054906101000a900473ffffffffffffffffffffffffffffffffffffffff1683600201546040518363ffffffff1660e01b815260040161186992919061275a565b6020604051808303816000875af1158015611888573d6000803e3d6000fd5b505050506040513d601f19601f820116820180604052508101906118ac9190612294565b5060018160050160006101000a81548160ff021916908315150217905550837fda7cf22fe8502350535e86f79b05f9e563096630898b73b0b985c95e342c360260405160405180910390a2600192505050919050565b600060019054906101000a900460ff16611951576040517f08c379a000000000000000000000000000000000000000000000000000000000815260040161194890612b4a565b60405180910390fd5b61195a81610f5e565b6119626119f0565b50565b6000609760008363ffffffff1663ffffffff1681526020019081526020016000205490506000801b811415604051806080016040528060438152602001612e4960439139906119ea576040517f08c379a00000000000000000000000000000000000000000000000000000000081526004016119e19190612447565b60405180910390fd5b50919050565b600060019054906101000a900460ff16611a3f576040517f08c379a0000000000000000000000000000000000000000000000000000000008152600401611a3690612b4a565b60405180910390fd5b611a47611a49565b565b600060019054906101000a900460ff16611a98576040517f08c379a0000000000000000000000000000000000000000000000000000000008152600401611a8f90612b4a565b60405180910390fd5b611aa8611aa361156f565b6113c6565b565b600080fd5b600080fd5b600073ffffffffffffffffffffffffffffffffffffffff82169050919050565b6000611adf82611ab4565b9050919050565b611aef81611ad4565b8114611afa57600080fd5b50565b600081359050611b0c81611ae6565b92915050565b600060208284031215611b2857611b27611aaa565b5b6000611b3684828501611afd565b91505092915050565b6000819050919050565b611b5281611b3f565b8114611b5d57600080fd5b50565b600081359050611b6f81611b49565b92915050565b600063ffffffff82169050919050565b611b8e81611b75565b8114611b9957600080fd5b50565b600081359050611bab81611b85565b92915050565b600080600080600080600060e0888a031215611bd057611bcf611aaa565b5b6000611bde8a828b01611b60565b9750506020611bef8a828b01611afd565b9650506040611c008a828b01611b9c565b9550506060611c118a828b01611afd565b9450506080611c228a828b01611b60565b93505060a0611c338a828b01611afd565b92505060c0611c448a828b01611b60565b91505092959891949750929550565b6000819050919050565b611c6681611c53565b82525050565b6000602082019050611c816000830184611c5d565b92915050565b600060208284031215611c9d57611c9c611aaa565b5b6000611cab84828501611b9c565b91505092915050565b6000819050919050565b6000611cd9611cd4611ccf84611ab4565b611cb4565b611ab4565b9050919050565b6000611ceb82611cbe565b9050919050565b6000611cfd82611ce0565b9050919050565b611d0d81611cf2565b82525050565b6000602082019050611d286000830184611d04565b92915050565b611d3781611c53565b8114611d4257600080fd5b50565b600081359050611d5481611d2e565b92915050565b600080fd5b600080fd5b600080fd5b60008083601f840112611d7f57611d7e611d5a565b5b8235905067ffffffffffffffff811115611d9c57611d9b611d5f565b5b602083019150836001820283011115611db857611db7611d64565b5b9250929050565b60008060008060608587031215611dd957611dd8611aaa565b5b6000611de787828801611b9c565b9450506020611df887828801611d45565b935050604085013567ffffffffffffffff811115611e1957611e18611aaf565b5b611e2587828801611d69565b925092505092959194509250565b600080600060608486031215611e4c57611e4b611aaa565b5b6000611e5a86828701611afd565b9350506020611e6b86828701611afd565b9250506040611e7c86828701611b9c565b9150509250925092565b600060208284031215611e9c57611e9b611aaa565b5b6000611eaa84828501611d45565b91505092915050565b60008115159050919050565b611ec881611eb3565b82525050565b6000602082019050611ee36000830184611ebf565b92915050565b611ef281611ad4565b82525050565b6000602082019050611f0d6000830184611ee9565b92915050565b6000606082019050611f286000830186611ebf565b611f356020830185611ebf565b611f426040830184611ee9565b949350505050565b6000611f5582611ce0565b9050919050565b611f6581611f4a565b82525050565b6000602082019050611f806000830184611f5c565b92915050565b60008060408385031215611f9d57611f9c611aaa565b5b6000611fab85828601611b9c565b9250506020611fbc85828601611d45565b9150509250929050565b611fcf81611b75565b82525050565b6000602082019050611fea6000830184611fc6565b92915050565b600082825260208201905092915050565b7f746f6b656e735472616e7366657261626c653a20746f6b656e20616d6f756e7460008201527f206d757374206265203e20300000000000000000000000000000000000000000602082015250565b600061205d602c83611ff0565b915061206882612001565b604082019050919050565b6000602082019050818103600083015261208c81612050565b9050919050565b60006040820190506120a86000830185611ee9565b6120b56020830184611ee9565b9392505050565b6000815190506120cb81611b49565b92915050565b6000602082840312156120e7576120e6611aaa565b5b60006120f5848285016120bc565b91505092915050565b7f746f6b656e735472616e7366657261626c653a20746f6b656e20616c6c6f776160008201527f6e6365206d757374206265203e3d20616d6f756e740000000000000000000000602082015250565b600061215a603583611ff0565b9150612165826120fe565b604082019050919050565b600060208201905081810360008301526121898161214d565b9050919050565b7f73746172745769746864726177616c3a205769746864726177616c20616c726560008201527f6164792073746172746564000000000000000000000000000000000000000000602082015250565b60006121ec602b83611ff0565b91506121f782612190565b604082019050919050565b6000602082019050818103600083015261221b816121df565b9050919050565b61222b81611b3f565b82525050565b60006060820190506122466000830186611ee9565b6122536020830185611ee9565b6122606040830184612222565b949350505050565b61227181611eb3565b811461227c57600080fd5b50565b60008151905061228e81612268565b92915050565b6000602082840312156122aa576122a9611aaa565b5b60006122b88482850161227f565b91505092915050565b7f77697468647261773a207472616e7366657246726f6d2073656e64657220746f60008201527f2074686973206661696c65640000000000000000000000000000000000000000602082015250565b600061231d602c83611ff0565b9150612328826122c1565b604082019050919050565b6000602082019050818103600083015261234c81612310565b9050919050565b7f21696e626f780000000000000000000000000000000000000000000000000000600082015250565b6000612389600683611ff0565b915061239482612353565b602082019050919050565b600060208201905081810360008301526123b88161237c565b9050919050565b600081519050919050565b60005b838110156123e85780820151818401526020810190506123cd565b838111156123f7576000848401525b50505050565b6000601f19601f8301169050919050565b6000612419826123bf565b6124238185611ff0565b93506124338185602086016123ca565b61243c816123fd565b840191505092915050565b60006020820190508181036000830152612461818461240e565b905092915050565b7f496e697469616c697a61626c653a20636f6e747261637420697320616c72656160008201527f647920696e697469616c697a6564000000000000000000000000000000000000602082015250565b60006124c5602e83611ff0565b91506124d082612469565b604082019050919050565b600060208201905081810360008301526124f4816124b8565b9050919050565b6000819050919050565b600060ff82169050919050565b600061252d612528612523846124fb565b611cb4565b612505565b9050919050565b61253d81612512565b82525050565b60006020820190506125586000830184612534565b92915050565b7f68746c634578697374733a2068746c63496420646f6573206e6f74206578697360008201527f7400000000000000000000000000000000000000000000000000000000000000602082015250565b60006125ba602183611ff0565b91506125c58261255e565b604082019050919050565b600060208201905081810360008301526125e9816125ad565b9050919050565b7f726566756e6461626c653a20616c72656164792077697468647261776e000000600082015250565b6000612626601d83611ff0565b9150612631826125f0565b602082019050919050565b6000602082019050818103600083015261265581612619565b9050919050565b7f726566756e6461626c653a20616c726561647920726566756e64656400000000600082015250565b6000612692601c83611ff0565b915061269d8261265c565b602082019050919050565b600060208201905081810360008301526126c181612685565b9050919050565b7f726566756e6461626c653a2074696d656c6f636b206e6f74207965742070617360008201527f7365640000000000000000000000000000000000000000000000000000000000602082015250565b6000612724602383611ff0565b915061272f826126c8565b604082019050919050565b6000602082019050818103600083015261275381612717565b9050919050565b600060408201905061276f6000830185611ee9565b61277c6020830184612222565b9392505050565b7f4f776e61626c653a206e6577206f776e657220697320746865207a65726f206160008201527f6464726573730000000000000000000000000000000000000000000000000000602082015250565b60006127df602683611ff0565b91506127ea82612783565b604082019050919050565b6000602082019050818103600083015261280e816127d2565b9050919050565b7f4f776e61626c653a2063616c6c6572206973206e6f7420746865206f776e6572600082015250565b600061284b602083611ff0565b915061285682612815565b602082019050919050565b6000602082019050818103600083015261287a8161283e565b9050919050565b60008160601b9050919050565b600061289982612881565b9050919050565b60006128ab8261288e565b9050919050565b6128c36128be82611ad4565b6128a0565b82525050565b60008160e01b9050919050565b60006128e1826128c9565b9050919050565b6128f96128f482611b75565b6128d6565b82525050565b6000819050919050565b61291a61291582611b3f565b6128ff565b82525050565b600061292c82876128b2565b60148201915061293c82866128e8565b60048201915061294c82856128b2565b60148201915061295c8284612909565b60208201915081905095945050505050565b600061297a82866128e8565b60048201915061298a82856128b2565b60148201915061299a8284612909565b602082019150819050949350505050565b6000819050919050565b6129c66129c182611c53565b6129ab565b82525050565b60006129d882866129b5565b6020820191506129e882856129b5565b6020820191506129f88284612909565b602082019150819050949350505050565b6000612a1582856129b5565b602082019150612a2582846129b5565b6020820191508190509392505050565b6000606082019050612a4a6000830186611ee9565b612a576020830185612222565b612a646040830184611fc6565b949350505050565b7f5f68616e646c653a2048544c43206e6f7420666f756e64000000000000000000600082015250565b6000612aa2601783611ff0565b9150612aad82612a6c565b602082019050919050565b60006020820190508181036000830152612ad181612a95565b9050919050565b7f496e697469616c697a61626c653a20636f6e7472616374206973206e6f74206960008201527f6e697469616c697a696e67000000000000000000000000000000000000000000602082015250565b6000612b34602b83611ff0565b9150612b3f82612ad8565b604082019050919050565b60006020820190508181036000830152612b6381612b27565b9050919050565b6000612b7582611ad4565b9050919050565b612b8581612b6a565b8114612b9057600080fd5b50565b600081519050612ba281612b7c565b92915050565b600060208284031215612bbe57612bbd611aaa565b5b6000612bcc84828501612b93565b91505092915050565b600081519050919050565b600082825260208201905092915050565b6000612bfc82612bd5565b612c068185612be0565b9350612c168185602086016123ca565b612c1f816123fd565b840191505092915050565b6000606082019050612c3f6000830186611fc6565b612c4c6020830185611c5d565b8181036040830152612c5e8184612bf1565b9050949350505050565b600080fd5b600080fd5b60008085851115612c8657612c85612c68565b5b83861115612c9757612c96612c6d565b5b6001850283019150848603905094509492505050565b600082905092915050565b600082821b905092915050565b6000612cd18383612cad565b82612cdc8135611c53565b92506020821015612d1c57612d177fffffffffffffffffffffffffffffffffffffffffffffffffffffffffffffffff83602003600802612cb8565b831692505b505092915050565b7f66696e6973685769746864726177616c3a20616c72656164792077697468647260008201527f61776e0000000000000000000000000000000000000000000000000000000000602082015250565b6000612d80602383611ff0565b9150612d8b82612d24565b604082019050919050565b60006020820190508181036000830152612daf81612d73565b9050919050565b7f66696e6973685769746864726177616c3a20616c726561647920726566756e6460008201527f6564000000000000000000000000000000000000000000000000000000000000602082015250565b6000612e12602283611ff0565b9150612e1d82612db6565b604082019050919050565b60006020820190508181036000830152612e4181612e05565b905091905056fe4e6f20726f7574657220656e726f6c6c656420666f7220646f6d61696e2e2044696420796f7520737065636966792074686520726967687420646f6d61696e2049443fa2646970667358221220e0e4a13064ddac54f4666d3aeca7bb1e03bb8583e25b9d6673e78d409599ace664736f6c634300080d0033",
  "linkReferences": {},
  "deployedLinkReferences": {}
}