{
  "_format": "hh-sol-artifact-1",
  "contractName": "ERC20MultichainAtomicSwapSender",
  "sourceName": "contracts/ERC20MultichainAtomicSwapSender.sol",
  "abi": [
    {
      "anonymous": false,
      "inputs": [
        {
          "indexed": true,
          "internalType": "address",
          "name": "abacusConnectionManager",
          "type": "address"
        }
      ],
      "name": "AbacusConnectionManagerSet",
      "type": "event"
    },
    {
      "anonymous": false,
      "inputs": [
        {
          "indexed": true,
          "internalType": "bytes32",
          "name": "htlcId",
          "type": "bytes32"
        },
        {
          "indexed": true,
          "internalType": "address",
          "name": "sender",
          "type": "address"
        },
        {
          "indexed": false,
          "internalType": "address",
          "name": "senderToken",
          "type": "address"
        },
        {
          "indexed": false,
          "internalType": "address",
          "name": "receiverToken",
          "type": "address"
        },
        {
          "indexed": false,
          "internalType": "uint32",
          "name": "receiverDomain",
          "type": "uint32"
        }
      ],
      "name": "HTLCERC20Created",
      "type": "event"
    },
    {
      "anonymous": false,
      "inputs": [
        {
          "indexed": true,
          "internalType": "bytes32",
          "name": "htlcId",
          "type": "bytes32"
        }
      ],
      "name": "HTLCERC20Refunded",
      "type": "event"
    },
    {
      "anonymous": false,
      "inputs": [
        {
          "indexed": true,
          "internalType": "bytes32",
          "name": "htlcId",
          "type": "bytes32"
        }
      ],
      "name": "HTLCERC20Withdrawn",
      "type": "event"
    },
    {
      "anonymous": false,
      "inputs": [
        {
          "indexed": false,
          "internalType": "uint8",
          "name": "version",
          "type": "uint8"
        }
      ],
      "name": "Initialized",
      "type": "event"
    },
    {
      "anonymous": false,
      "inputs": [
        {
          "indexed": true,
          "internalType": "address",
          "name": "interchainGasPaymaster",
          "type": "address"
        }
      ],
      "name": "InterchainGasPaymasterSet",
      "type": "event"
    },
    {
      "anonymous": false,
      "inputs": [
        {
          "indexed": true,
          "internalType": "address",
          "name": "previousOwner",
          "type": "address"
        },
        {
          "indexed": true,
          "internalType": "address",
          "name": "newOwner",
          "type": "address"
        }
      ],
      "name": "OwnershipTransferred",
      "type": "event"
    },
    {
      "anonymous": false,
      "inputs": [
        {
          "indexed": true,
          "internalType": "uint32",
          "name": "domain",
          "type": "uint32"
        },
        {
          "indexed": true,
          "internalType": "bytes32",
          "name": "router",
          "type": "bytes32"
        }
      ],
      "name": "RemoteRouterEnrolled",
      "type": "event"
    },
    {
      "inputs": [],
      "name": "abacusConnectionManager",
      "outputs": [
        {
          "internalType": "contract IAbacusConnectionManager",
          "name": "",
          "type": "address"
        }
      ],
      "stateMutability": "view",
      "type": "function"
    },
    {
      "inputs": [
        {
          "internalType": "uint32",
          "name": "_domain",
          "type": "uint32"
        },
        {
          "internalType": "bytes32",
          "name": "_router",
          "type": "bytes32"
        }
      ],
      "name": "enrollRemoteRouter",
      "outputs": [],
      "stateMutability": "nonpayable",
      "type": "function"
    },
    {
      "inputs": [],
      "name": "getDomain",
      "outputs": [
        {
          "internalType": "uint32",
          "name": "_senderDomain",
          "type": "uint32"
        }
      ],
      "stateMutability": "view",
      "type": "function"
    },
    {
      "inputs": [
        {
          "internalType": "bytes32",
          "name": "_htlcId",
          "type": "bytes32"
        }
      ],
      "name": "getHTLC",
      "outputs": [
        {
          "internalType": "address",
          "name": "sender",
          "type": "address"
        },
        {
          "internalType": "address",
          "name": "senderToken",
          "type": "address"
        },
        {
          "internalType": "uint256",
          "name": "senderAmount",
          "type": "uint256"
        },
        {
          "internalType": "address",
          "name": "receiver",
          "type": "address"
        },
        {
          "internalType": "uint32",
          "name": "receiverDomain",
          "type": "uint32"
        },
        {
          "internalType": "address",
          "name": "receiverToken",
          "type": "address"
        },
        {
          "internalType": "uint256",
          "name": "receiverAmount",
          "type": "uint256"
        },
        {
          "internalType": "uint256",
          "name": "timelock",
          "type": "uint256"
        },
        {
          "internalType": "bool",
          "name": "withdrawn",
          "type": "bool"
        },
        {
          "internalType": "bool",
          "name": "refunded",
          "type": "bool"
        }
      ],
      "stateMutability": "view",
      "type": "function"
    },
    {
      "inputs": [],
      "name": "getHTLCIds",
      "outputs": [
        {
          "internalType": "bytes32[]",
          "name": "",
          "type": "bytes32[]"
        }
      ],
      "stateMutability": "view",
      "type": "function"
    },
    {
      "inputs": [
        {
          "internalType": "uint32",
          "name": "_origin",
          "type": "uint32"
        },
        {
          "internalType": "bytes32",
          "name": "_sender",
          "type": "bytes32"
        },
        {
          "internalType": "bytes",
          "name": "_message",
          "type": "bytes"
        }
      ],
      "name": "handle",
      "outputs": [],
      "stateMutability": "nonpayable",
      "type": "function"
    },
    {
      "inputs": [
        {
          "internalType": "address",
          "name": "_connectionManager",
          "type": "address"
        },
        {
          "internalType": "address",
          "name": "_interchainGasPaymaster",
          "type": "address"
        },
        {
          "internalType": "uint32",
          "name": "_senderDomain",
          "type": "uint32"
        }
      ],
      "name": "initialize",
      "outputs": [],
      "stateMutability": "nonpayable",
      "type": "function"
    },
    {
      "inputs": [],
      "name": "interchainGasPaymaster",
      "outputs": [
        {
          "internalType": "contract IInterchainGasPaymaster",
          "name": "",
          "type": "address"
        }
      ],
      "stateMutability": "view",
      "type": "function"
    },
    {
      "inputs": [
        {
          "internalType": "uint256",
          "name": "_timelock",
          "type": "uint256"
        },
        {
          "internalType": "address",
          "name": "_senderToken",
          "type": "address"
        },
        {
          "internalType": "uint256",
          "name": "_senderAmount",
          "type": "uint256"
        },
        {
          "internalType": "uint32",
          "name": "_receiverDomain",
          "type": "uint32"
        },
        {
          "internalType": "address",
          "name": "_receiverToken",
          "type": "address"
        },
        {
          "internalType": "uint256",
          "name": "_receiverAmount",
          "type": "uint256"
        }
      ],
      "name": "newContract",
      "outputs": [
        {
          "internalType": "bytes32",
          "name": "htlcId",
          "type": "bytes32"
        }
      ],
      "stateMutability": "nonpayable",
      "type": "function"
    },
    {
      "inputs": [],
      "name": "owner",
      "outputs": [
        {
          "internalType": "address",
          "name": "",
          "type": "address"
        }
      ],
      "stateMutability": "view",
      "type": "function"
    },
    {
      "inputs": [
        {
          "internalType": "bytes32",
          "name": "_htlcId",
          "type": "bytes32"
        }
      ],
      "name": "refund",
      "outputs": [
        {
          "internalType": "bool",
          "name": "",
          "type": "bool"
        }
      ],
      "stateMutability": "nonpayable",
      "type": "function"
    },
    {
      "inputs": [],
      "name": "renounceOwnership",
      "outputs": [],
      "stateMutability": "nonpayable",
      "type": "function"
    },
    {
      "inputs": [
        {
          "internalType": "uint32",
          "name": "",
          "type": "uint32"
        }
      ],
      "name": "routers",
      "outputs": [
        {
          "internalType": "bytes32",
          "name": "",
          "type": "bytes32"
        }
      ],
      "stateMutability": "view",
      "type": "function"
    },
    {
      "inputs": [
        {
          "internalType": "address",
          "name": "_abacusConnectionManager",
          "type": "address"
        }
      ],
      "name": "setAbacusConnectionManager",
      "outputs": [],
      "stateMutability": "nonpayable",
      "type": "function"
    },
    {
      "inputs": [
        {
          "internalType": "address",
          "name": "_interchainGasPaymaster",
          "type": "address"
        }
      ],
      "name": "setInterchainGasPaymaster",
      "outputs": [],
      "stateMutability": "nonpayable",
      "type": "function"
    },
    {
      "inputs": [
        {
          "internalType": "address",
          "name": "newOwner",
          "type": "address"
        }
      ],
      "name": "transferOwnership",
      "outputs": [],
      "stateMutability": "nonpayable",
      "type": "function"
    }
  ],
  "bytecode": "0x608060405234801561001057600080fd5b5061368f806100206000396000f3fe608060405234801561001057600080fd5b50600436106101005760003560e01c80638da5cb5b11610097578063b68d180911610066578063b68d1809146102a2578063e4a1ed6f146102c0578063f1bd6f0a146102de578063f2fde38b146102fa57610100565b80638da5cb5b1461021157806390c268381461022f5780639a35c35914610268578063b49c53a71461028657610100565b806356d5d475116100d357806356d5d4751461019f5780636ecf2b22146101bb578063715018a6146101d75780637249fbb6146101e157610100565b8063059ee4d91461010557806312b1d780146101355780632ead72f61461015157806339bb4ad914610181575b600080fd5b61011f600480360381019061011a9190612015565b610316565b60405161012c91906120bb565b60405180910390f35b61014f600480360381019061014a91906120d6565b6108ba565b005b61016b60048036038101906101669190612103565b6108ce565b60405161017891906120bb565b60405180910390f35b6101896108e6565b604051610196919061218f565b60405180910390f35b6101b960048036038101906101b4919061223b565b61090c565b005b6101d560048036038101906101d091906122af565b6109cf565b005b6101df610b33565b005b6101fb60048036038101906101f69190612302565b610b47565b604051610208919061234a565b60405180910390f35b610219610e9c565b6040516102269190612374565b60405180910390f35b61024960048036038101906102449190612302565b610ec6565b60405161025f9a999897969594939291906123ad565b60405180910390f35b610270611027565b60405161027d919061246a565b60405180910390f35b6102a0600480360381019061029b9190612485565b61104d565b005b6102aa611063565b6040516102b791906124c5565b60405180910390f35b6102c861107d565b6040516102d5919061259e565b60405180910390f35b6102f860048036038101906102f391906120d6565b61108e565b005b610314600480360381019061030f91906120d6565b6110a2565b005b6000816000811161035c576040517f08c379a000000000000000000000000000000000000000000000000000000000815260040161035390612643565b60405180910390fd5b863387600081116103a2576040517f08c379a0000000000000000000000000000000000000000000000000000000008152600401610399906126d5565b60405180910390fd5b808373ffffffffffffffffffffffffffffffffffffffff1663dd62ed3e84306040518363ffffffff1660e01b81526004016103de9291906126f5565b602060405180830381865afa1580156103fb573d6000803e3d6000fd5b505050506040513d601f19601f8201168201806040525081019061041f9190612733565b1015610460576040517f08c379a0000000000000000000000000000000000000000000000000000000008152600401610457906127d2565b60405180910390fd5b8a4281116104a3576040517f08c379a000000000000000000000000000000000000000000000000000000000815260040161049a90612864565b60405180910390fd5b6104d56104c43360cc60009054906101000a900463ffffffff168e8e611125565b6104cf8b8b8b61115e565b8e611194565b95506104e0866111ca565b15610520576040517f08c379a0000000000000000000000000000000000000000000000000000000008152600401610517906128f6565b60405180910390fd5b8a73ffffffffffffffffffffffffffffffffffffffff166323b872dd33308d6040518463ffffffff1660e01b815260040161055d93929190612916565b6020604051808303816000875af115801561057c573d6000803e3d6000fd5b505050506040513d601f19601f820116820180604052508101906105a09190612979565b6105df576040517f08c379a00000000000000000000000000000000000000000000000000000000081526004016105d690612a18565b60405180910390fd5b6040518061014001604052803373ffffffffffffffffffffffffffffffffffffffff1681526020018c73ffffffffffffffffffffffffffffffffffffffff1681526020018b8152602001600073ffffffffffffffffffffffffffffffffffffffff1681526020018a63ffffffff1681526020018973ffffffffffffffffffffffffffffffffffffffff1681526020018881526020018d81526020016000151581526020016000151581525060c9600088815260200190815260200160002060008201518160000160006101000a81548173ffffffffffffffffffffffffffffffffffffffff021916908373ffffffffffffffffffffffffffffffffffffffff16021790555060208201518160010160006101000a81548173ffffffffffffffffffffffffffffffffffffffff021916908373ffffffffffffffffffffffffffffffffffffffff1602179055506040820151816002015560608201518160030160006101000a81548173ffffffffffffffffffffffffffffffffffffffff021916908373ffffffffffffffffffffffffffffffffffffffff16021790555060808201518160030160146101000a81548163ffffffff021916908363ffffffff16021790555060a08201518160040160006101000a81548173ffffffffffffffffffffffffffffffffffffffff021916908373ffffffffffffffffffffffffffffffffffffffff16021790555060c0820151816005015560e082015181600601556101008201518160070160006101000a81548160ff0219169083151502179055506101208201518160070160016101000a81548160ff0219169083151502179055509050506108578660ca61123990919063ffffffff16565b503373ffffffffffffffffffffffffffffffffffffffff16867f43d3067c0e62c45bf3a2eb5595a91ef09293ef3ce97e2e9c0618802fa65a709a8d8b8d6040516108a393929190612a38565b60405180910390a350505050509695505050505050565b6108c2611250565b6108cb816112ce565b50565b60976020528060005260406000206000915090505481565b606660009054906101000a900473ffffffffffffffffffffffffffffffffffffffff1681565b61091533611355565b610954576040517f08c379a000000000000000000000000000000000000000000000000000000000815260040161094b90612abb565b60405180910390fd5b838361096082826113fa565b60405180608001604052806043815260200161361760439139906109ba576040517f08c379a00000000000000000000000000000000000000000000000000000000081526004016109b19190612b63565b60405180910390fd5b506109c786868686611426565b505050505050565b60008060019054906101000a900460ff16159050808015610a005750600160008054906101000a900460ff1660ff16105b80610a2d5750610a0f306115ed565b158015610a2c5750600160008054906101000a900460ff1660ff16145b5b610a6c576040517f08c379a0000000000000000000000000000000000000000000000000000000008152600401610a6390612bf7565b60405180910390fd5b60016000806101000a81548160ff021916908360ff1602179055508015610aa9576001600060016101000a81548160ff0219169083151502179055505b610ab38484611610565b8160cc60006101000a81548163ffffffff021916908363ffffffff1602179055508015610b2d5760008060016101000a81548160ff0219169083151502179055507f7f26b83ff96e1f2b6a682f133852f6798a09c465da95921460cefb38474024986001604051610b249190612c5f565b60405180910390a15b50505050565b610b3b611250565b610b456000611675565b565b600081610b53816111ca565b610b92576040517f08c379a0000000000000000000000000000000000000000000000000000000008152600401610b8990612cec565b60405180910390fd5b823373ffffffffffffffffffffffffffffffffffffffff1660c9600083815260200190815260200160002060000160009054906101000a900473ffffffffffffffffffffffffffffffffffffffff1673ffffffffffffffffffffffffffffffffffffffff1614610c37576040517f08c379a0000000000000000000000000000000000000000000000000000000008152600401610c2e90612d58565b60405180910390fd5b6000151560c9600083815260200190815260200160002060070160019054906101000a900460ff16151514610ca1576040517f08c379a0000000000000000000000000000000000000000000000000000000008152600401610c9890612dc4565b60405180910390fd5b6000151560c9600083815260200190815260200160002060070160009054906101000a900460ff16151514610d0b576040517f08c379a0000000000000000000000000000000000000000000000000000000008152600401610d0290612e30565b60405180910390fd5b4260c96000838152602001908152602001600020600601541115610d64576040517f08c379a0000000000000000000000000000000000000000000000000000000008152600401610d5b90612ec2565b60405180910390fd5b600060c96000868152602001908152602001600020905060018160070160016101000a81548160ff0219169083151502179055508060010160009054906101000a900473ffffffffffffffffffffffffffffffffffffffff1673ffffffffffffffffffffffffffffffffffffffff1663a9059cbb8260000160009054906101000a900473ffffffffffffffffffffffffffffffffffffffff1683600201546040518363ffffffff1660e01b8152600401610e1f929190612ee2565b6020604051808303816000875af1158015610e3e573d6000803e3d6000fd5b505050506040513d601f19601f82011682018060405250810190610e629190612979565b50847f25c0cb42002f469b8c07222f77709effe07c20669210af3511c8a0eaf671006660405160405180910390a260019350505050919050565b6000603360009054906101000a900473ffffffffffffffffffffffffffffffffffffffff16905090565b60008060008060008060008060008060001515610ee28c6111ca565b151503610f1157600080600080600080600080600080995099509950995099509950995099509950995061101a565b600060c960008d815260200190815260200160002090508060000160009054906101000a900473ffffffffffffffffffffffffffffffffffffffff168160010160009054906101000a900473ffffffffffffffffffffffffffffffffffffffff1682600201548360030160009054906101000a900473ffffffffffffffffffffffffffffffffffffffff168460030160149054906101000a900463ffffffff168560040160009054906101000a900473ffffffffffffffffffffffffffffffffffffffff16866005015487600601548860070160009054906101000a900460ff168960070160019054906101000a900460ff169a509a509a509a509a509a509a509a509a509a50505b9193959799509193959799565b606560009054906101000a900473ffffffffffffffffffffffffffffffffffffffff1681565b611055611250565b61105f828261173b565b5050565b600060cc60009054906101000a900463ffffffff16905090565b606061108960ca611797565b905090565b611096611250565b61109f816117b8565b50565b6110aa611250565b600073ffffffffffffffffffffffffffffffffffffffff168173ffffffffffffffffffffffffffffffffffffffff1603611119576040517f08c379a000000000000000000000000000000000000000000000000000000000815260040161111090612f7d565b60405180910390fd5b61112281611675565b50565b60008484848460405160200161113e949392919061303c565b604051602081830303815290604052805190602001209050949350505050565b60008383836040516020016111759392919061308a565b6040516020818303038152906040528051906020012090509392505050565b60008383836040516020016111ab939291906130e8565b6040516020818303038152906040528051906020012090509392505050565b60008073ffffffffffffffffffffffffffffffffffffffff1660c9600084815260200190815260200160002060000160009054906101000a900473ffffffffffffffffffffffffffffffffffffffff1673ffffffffffffffffffffffffffffffffffffffff1614159050919050565b6000611248836000018361183f565b905092915050565b6112586118af565b73ffffffffffffffffffffffffffffffffffffffff16611276610e9c565b73ffffffffffffffffffffffffffffffffffffffff16146112cc576040517f08c379a00000000000000000000000000000000000000000000000000000000081526004016112c390613171565b60405180910390fd5b565b80606560006101000a81548173ffffffffffffffffffffffffffffffffffffffff021916908373ffffffffffffffffffffffffffffffffffffffff1602179055508073ffffffffffffffffffffffffffffffffffffffff167f7c10de8878ed89478ff01b9cd8c11a5271ea8ac91d46f662e6aea7e3adf5b11f60405160405180910390a250565b6000606560009054906101000a900473ffffffffffffffffffffffffffffffffffffffff1673ffffffffffffffffffffffffffffffffffffffff1663282f51eb836040518263ffffffff1660e01b81526004016113b29190612374565b602060405180830381865afa1580156113cf573d6000803e3d6000fd5b505050506040513d601f19601f820116820180604052508101906113f39190612979565b9050919050565b600081609760008563ffffffff1663ffffffff1681526020019081526020016000205414905092915050565b600061143a61143584846118b7565b6118e0565b9050600061144884846118ed565b9050611453816111ca565b611492576040517f08c379a0000000000000000000000000000000000000000000000000000000008152600401611489906131dd565b60405180910390fd5b8563ffffffff1660c9600083815260200190815260200160002060030160149054906101000a900463ffffffff1663ffffffff1614611506576040517f08c379a00000000000000000000000000000000000000000000000000000000081526004016114fd9061326f565b60405180910390fd5b6000151560c9600083815260200190815260200160002060070160009054906101000a900460ff16151514611570576040517f08c379a0000000000000000000000000000000000000000000000000000000008152600401611567906132db565b60405180910390fd5b6000151560c9600083815260200190815260200160002060070160019054906101000a900460ff161515146115da576040517f08c379a00000000000000000000000000000000000000000000000000000000081526004016115d190613347565b60405180910390fd5b6115e48183611916565b50505050505050565b6000808273ffffffffffffffffffffffffffffffffffffffff163b119050919050565b600060019054906101000a900460ff1661165f576040517f08c379a0000000000000000000000000000000000000000000000000000000008152600401611656906133d9565b60405180910390fd5b611668816117b8565b61167182611ad7565b5050565b6000603360009054906101000a900473ffffffffffffffffffffffffffffffffffffffff16905081603360006101000a81548173ffffffffffffffffffffffffffffffffffffffff021916908373ffffffffffffffffffffffffffffffffffffffff1602179055508173ffffffffffffffffffffffffffffffffffffffff168173ffffffffffffffffffffffffffffffffffffffff167f8be0079c531659141344cd1fd0a4f28419497f9722a3daafe3b4186f6b6457e060405160405180910390a35050565b80609760008463ffffffff1663ffffffff16815260200190815260200160002081905550808263ffffffff167f97fd51fef1f80c854cbd0150c248e8b2ac4ecdc97cc05e742b5f61c9f4dc645860405160405180910390a35050565b606060006117a783600001611b3a565b905060608190508092505050919050565b80606660006101000a81548173ffffffffffffffffffffffffffffffffffffffff021916908373ffffffffffffffffffffffffffffffffffffffff1602179055508073ffffffffffffffffffffffffffffffffffffffff167fb87f5a0bface22cde699143559fb99f990ae54eea236995fc54178af91af859f60405160405180910390a250565b600061184b8383611b96565b6118a45782600001829080600181540180825580915050600190039060005260206000200160009091909190915055826000018054905083600101600084815260200190815260200160002081905550600190506118a9565b600090505b92915050565b600033905090565b600082826020906040926118cd93929190613403565b906118d89190613456565b905092915050565b60008160001c9050919050565b6000828260009060209261190393929190613403565b9061190e9190613456565b905092915050565b60008060c960008581526020019081526020016000209050828160030160006101000a81548173ffffffffffffffffffffffffffffffffffffffff021916908373ffffffffffffffffffffffffffffffffffffffff16021790555060018160070160006101000a81548160ff0219169083151502179055508060010160009054906101000a900473ffffffffffffffffffffffffffffffffffffffff1673ffffffffffffffffffffffffffffffffffffffff1663a9059cbb8483600201546040518363ffffffff1660e01b81526004016119f1929190612ee2565b6020604051808303816000875af1158015611a10573d6000803e3d6000fd5b505050506040513d601f19601f82011682018060405250810190611a349190612979565b50611a9f8160030160149054906101000a900463ffffffff16611a9986611a948560000160009054906101000a900473ffffffffffffffffffffffffffffffffffffffff1673ffffffffffffffffffffffffffffffffffffffff16611bb9565b611bdc565b34611c08565b837f90b949193e894c5c3d695af213116f68e6d6d74c408b46f99eebacab52bff6be60405160405180910390a2600191505092915050565b600060019054906101000a900460ff16611b26576040517f08c379a0000000000000000000000000000000000000000000000000000000008152600401611b1d906133d9565b60405180910390fd5b611b2f816112ce565b611b37611cc6565b50565b606081600001805480602002602001604051908101604052809291908181526020018280548015611b8a57602002820191906000526020600020905b815481526020019060010190808311611b76575b50505050509050919050565b600080836001016000848152602001908152602001600020541415905092915050565b60008173ffffffffffffffffffffffffffffffffffffffff1660001b9050919050565b60608282604051602001611bf19291906134b5565b604051602081830303815290604052905092915050565b6000611c12611d1f565b90506000611c21828686611db7565b90506000831115611cbf57606660009054906101000a900473ffffffffffffffffffffffffffffffffffffffff1673ffffffffffffffffffffffffffffffffffffffff1663a5703c8e848484896040518563ffffffff1660e01b8152600401611c8c939291906134e1565b6000604051808303818588803b158015611ca557600080fd5b505af1158015611cb9573d6000803e3d6000fd5b50505050505b5050505050565b600060019054906101000a900460ff16611d15576040517f08c379a0000000000000000000000000000000000000000000000000000000008152600401611d0c906133d9565b60405180910390fd5b611d1d611e4f565b565b6000606560009054906101000a900473ffffffffffffffffffffffffffffffffffffffff1673ffffffffffffffffffffffffffffffffffffffff1663ce11e6ab6040518163ffffffff1660e01b8152600401602060405180830381865afa158015611d8e573d6000803e3d6000fd5b505050506040513d601f19601f82011682018060405250810190611db29190613556565b905090565b600080611dc384611eb0565b90508473ffffffffffffffffffffffffffffffffffffffff1663fa31de018583866040518463ffffffff1660e01b8152600401611e02939291906135d8565b6020604051808303816000875af1158015611e21573d6000803e3d6000fd5b505050506040513d601f19601f82011682018060405250810190611e459190612733565b9150509392505050565b600060019054906101000a900460ff16611e9e576040517f08c379a0000000000000000000000000000000000000000000000000000000008152600401611e95906133d9565b60405180910390fd5b611eae611ea96118af565b611675565b565b6000609760008363ffffffff1663ffffffff1681526020019081526020016000205490506000801b8114156040518060800160405280604381526020016136176043913990611f35576040517f08c379a0000000000000000000000000000000000000000000000000000000008152600401611f2c9190612b63565b60405180910390fd5b50919050565b600080fd5b600080fd5b6000819050919050565b611f5881611f45565b8114611f6357600080fd5b50565b600081359050611f7581611f4f565b92915050565b600073ffffffffffffffffffffffffffffffffffffffff82169050919050565b6000611fa682611f7b565b9050919050565b611fb681611f9b565b8114611fc157600080fd5b50565b600081359050611fd381611fad565b92915050565b600063ffffffff82169050919050565b611ff281611fd9565b8114611ffd57600080fd5b50565b60008135905061200f81611fe9565b92915050565b60008060008060008060c0878903121561203257612031611f3b565b5b600061204089828a01611f66565b965050602061205189828a01611fc4565b955050604061206289828a01611f66565b945050606061207389828a01612000565b935050608061208489828a01611fc4565b92505060a061209589828a01611f66565b9150509295509295509295565b6000819050919050565b6120b5816120a2565b82525050565b60006020820190506120d060008301846120ac565b92915050565b6000602082840312156120ec576120eb611f3b565b5b60006120fa84828501611fc4565b91505092915050565b60006020828403121561211957612118611f3b565b5b600061212784828501612000565b91505092915050565b6000819050919050565b600061215561215061214b84611f7b565b612130565b611f7b565b9050919050565b60006121678261213a565b9050919050565b60006121798261215c565b9050919050565b6121898161216e565b82525050565b60006020820190506121a46000830184612180565b92915050565b6121b3816120a2565b81146121be57600080fd5b50565b6000813590506121d0816121aa565b92915050565b600080fd5b600080fd5b600080fd5b60008083601f8401126121fb576121fa6121d6565b5b8235905067ffffffffffffffff811115612218576122176121db565b5b602083019150836001820283011115612234576122336121e0565b5b9250929050565b6000806000806060858703121561225557612254611f3b565b5b600061226387828801612000565b9450506020612274878288016121c1565b935050604085013567ffffffffffffffff81111561229557612294611f40565b5b6122a1878288016121e5565b925092505092959194509250565b6000806000606084860312156122c8576122c7611f3b565b5b60006122d686828701611fc4565b93505060206122e786828701611fc4565b92505060406122f886828701612000565b9150509250925092565b60006020828403121561231857612317611f3b565b5b6000612326848285016121c1565b91505092915050565b60008115159050919050565b6123448161232f565b82525050565b600060208201905061235f600083018461233b565b92915050565b61236e81611f9b565b82525050565b60006020820190506123896000830184612365565b92915050565b61239881611f45565b82525050565b6123a781611fd9565b82525050565b6000610140820190506123c3600083018d612365565b6123d0602083018c612365565b6123dd604083018b61238f565b6123ea606083018a612365565b6123f7608083018961239e565b61240460a0830188612365565b61241160c083018761238f565b61241e60e083018661238f565b61242c61010083018561233b565b61243a61012083018461233b565b9b9a5050505050505050505050565b60006124548261215c565b9050919050565b61246481612449565b82525050565b600060208201905061247f600083018461245b565b92915050565b6000806040838503121561249c5761249b611f3b565b5b60006124aa85828601612000565b92505060206124bb858286016121c1565b9150509250929050565b60006020820190506124da600083018461239e565b92915050565b600081519050919050565b600082825260208201905092915050565b6000819050602082019050919050565b612515816120a2565b82525050565b6000612527838361250c565b60208301905092915050565b6000602082019050919050565b600061254b826124e0565b61255581856124eb565b9350612560836124fc565b8060005b83811015612591578151612578888261251b565b975061258383612533565b925050600181019050612564565b5085935050505092915050565b600060208201905081810360008301526125b88184612540565b905092915050565b600082825260208201905092915050565b7f746f6b656e416d6f756e7456616c69643a20746f6b656e20616d6f756e74206d60008201527f757374206265203e203000000000000000000000000000000000000000000000602082015250565b600061262d602a836125c0565b9150612638826125d1565b604082019050919050565b6000602082019050818103600083015261265c81612620565b9050919050565b7f746f6b656e735472616e7366657261626c653a20746f6b656e20616d6f756e7460008201527f206d757374206265203e20300000000000000000000000000000000000000000602082015250565b60006126bf602c836125c0565b91506126ca82612663565b604082019050919050565b600060208201905081810360008301526126ee816126b2565b9050919050565b600060408201905061270a6000830185612365565b6127176020830184612365565b9392505050565b60008151905061272d81611f4f565b92915050565b60006020828403121561274957612748611f3b565b5b60006127578482850161271e565b91505092915050565b7f746f6b656e735472616e7366657261626c653a20746f6b656e20616c6c6f776160008201527f6e6365206d757374206265203e3d20616d6f756e740000000000000000000000602082015250565b60006127bc6035836125c0565b91506127c782612760565b604082019050919050565b600060208201905081810360008301526127eb816127af565b9050919050565b7f66757475726554696d656c6f636b3a2074696d656c6f636b2074696d65206d7560008201527f737420626520696e207468652066757475726500000000000000000000000000602082015250565b600061284e6033836125c0565b9150612859826127f2565b604082019050919050565b6000602082019050818103600083015261287d81612841565b9050919050565b7f6e6577436f6e74726163743a20436f6e747261637420616c726561647920657860008201527f6973747300000000000000000000000000000000000000000000000000000000602082015250565b60006128e06024836125c0565b91506128eb82612884565b604082019050919050565b6000602082019050818103600083015261290f816128d3565b9050919050565b600060608201905061292b6000830186612365565b6129386020830185612365565b612945604083018461238f565b949350505050565b6129568161232f565b811461296157600080fd5b50565b6000815190506129738161294d565b92915050565b60006020828403121561298f5761298e611f3b565b5b600061299d84828501612964565b91505092915050565b7f7472616e7366657246726f6d2073656e64657220746f2074686973206661696c60008201527f6564000000000000000000000000000000000000000000000000000000000000602082015250565b6000612a026022836125c0565b9150612a0d826129a6565b604082019050919050565b60006020820190508181036000830152612a31816129f5565b9050919050565b6000606082019050612a4d6000830186612365565b612a5a6020830185612365565b612a67604083018461239e565b949350505050565b7f21696e626f780000000000000000000000000000000000000000000000000000600082015250565b6000612aa56006836125c0565b9150612ab082612a6f565b602082019050919050565b60006020820190508181036000830152612ad481612a98565b9050919050565b600081519050919050565b60005b83811015612b04578082015181840152602081019050612ae9565b83811115612b13576000848401525b50505050565b6000601f19601f8301169050919050565b6000612b3582612adb565b612b3f81856125c0565b9350612b4f818560208601612ae6565b612b5881612b19565b840191505092915050565b60006020820190508181036000830152612b7d8184612b2a565b905092915050565b7f496e697469616c697a61626c653a20636f6e747261637420697320616c72656160008201527f647920696e697469616c697a6564000000000000000000000000000000000000602082015250565b6000612be1602e836125c0565b9150612bec82612b85565b604082019050919050565b60006020820190508181036000830152612c1081612bd4565b9050919050565b6000819050919050565b600060ff82169050919050565b6000612c49612c44612c3f84612c17565b612130565b612c21565b9050919050565b612c5981612c2e565b82525050565b6000602082019050612c746000830184612c50565b92915050565b7f636f6e74726163744578697374733a2068746c63496420646f6573206e6f742060008201527f6578697374000000000000000000000000000000000000000000000000000000602082015250565b6000612cd66025836125c0565b9150612ce182612c7a565b604082019050919050565b60006020820190508181036000830152612d0581612cc9565b9050919050565b7f726566756e6461626c653a206e6f742073656e64657200000000000000000000600082015250565b6000612d426016836125c0565b9150612d4d82612d0c565b602082019050919050565b60006020820190508181036000830152612d7181612d35565b9050919050565b7f726566756e6461626c653a20616c726561647920726566756e64656400000000600082015250565b6000612dae601c836125c0565b9150612db982612d78565b602082019050919050565b60006020820190508181036000830152612ddd81612da1565b9050919050565b7f726566756e6461626c653a20616c72656164792077697468647261776e000000600082015250565b6000612e1a601d836125c0565b9150612e2582612de4565b602082019050919050565b60006020820190508181036000830152612e4981612e0d565b9050919050565b7f726566756e6461626c653a2074696d656c6f636b206e6f74207965742070617360008201527f7365640000000000000000000000000000000000000000000000000000000000602082015250565b6000612eac6023836125c0565b9150612eb782612e50565b604082019050919050565b60006020820190508181036000830152612edb81612e9f565b9050919050565b6000604082019050612ef76000830185612365565b612f04602083018461238f565b9392505050565b7f4f776e61626c653a206e6577206f776e657220697320746865207a65726f206160008201527f6464726573730000000000000000000000000000000000000000000000000000602082015250565b6000612f676026836125c0565b9150612f7282612f0b565b604082019050919050565b60006020820190508181036000830152612f9681612f5a565b9050919050565b60008160601b9050919050565b6000612fb582612f9d565b9050919050565b6000612fc782612faa565b9050919050565b612fdf612fda82611f9b565b612fbc565b82525050565b60008160e01b9050919050565b6000612ffd82612fe5565b9050919050565b61301561301082611fd9565b612ff2565b82525050565b6000819050919050565b61303661303182611f45565b61301b565b82525050565b60006130488287612fce565b6014820191506130588286613004565b6004820191506130688285612fce565b6014820191506130788284613025565b60208201915081905095945050505050565b60006130968286613004565b6004820191506130a68285612fce565b6014820191506130b68284613025565b602082019150819050949350505050565b6000819050919050565b6130e26130dd826120a2565b6130c7565b82525050565b60006130f482866130d1565b60208201915061310482856130d1565b6020820191506131148284613025565b602082019150819050949350505050565b7f4f776e61626c653a2063616c6c6572206973206e6f7420746865206f776e6572600082015250565b600061315b6020836125c0565b915061316682613125565b602082019050919050565b6000602082019050818103600083015261318a8161314e565b9050919050565b7f5f68616e646c653a2068746c63496420646f6573206e6f742065786973740000600082015250565b60006131c7601e836125c0565b91506131d282613191565b602082019050919050565b600060208201905081810360008301526131f6816131ba565b9050919050565b7f5f68616e646c653a2063616c6c65642066726f6d2074686520696e636f72726560008201527f637420636861696e000000000000000000000000000000000000000000000000602082015250565b60006132596028836125c0565b9150613264826131fd565b604082019050919050565b600060208201905081810360008301526132888161324c565b9050919050565b7f5f68616e646c653a20616c72656164792077697468647261776e000000000000600082015250565b60006132c5601a836125c0565b91506132d08261328f565b602082019050919050565b600060208201905081810360008301526132f4816132b8565b9050919050565b7f5f68616e646c653a20616c726561647920726566756e64656400000000000000600082015250565b60006133316019836125c0565b915061333c826132fb565b602082019050919050565b6000602082019050818103600083015261336081613324565b9050919050565b7f496e697469616c697a61626c653a20636f6e7472616374206973206e6f74206960008201527f6e697469616c697a696e67000000000000000000000000000000000000000000602082015250565b60006133c3602b836125c0565b91506133ce82613367565b604082019050919050565b600060208201905081810360008301526133f2816133b6565b9050919050565b600080fd5b600080fd5b60008085851115613417576134166133f9565b5b83861115613428576134276133fe565b5b6001850283019150848603905094509492505050565b600082905092915050565b600082821b905092915050565b6000613462838361343e565b8261346d81356120a2565b925060208210156134ad576134a87fffffffffffffffffffffffffffffffffffffffffffffffffffffffffffffffff83602003600802613449565b831692505b505092915050565b60006134c182856130d1565b6020820191506134d182846130d1565b6020820191508190509392505050565b60006060820190506134f66000830186612365565b613503602083018561238f565b613510604083018461239e565b949350505050565b600061352382611f9b565b9050919050565b61353381613518565b811461353e57600080fd5b50565b6000815190506135508161352a565b92915050565b60006020828403121561356c5761356b611f3b565b5b600061357a84828501613541565b91505092915050565b600081519050919050565b600082825260208201905092915050565b60006135aa82613583565b6135b4818561358e565b93506135c4818560208601612ae6565b6135cd81612b19565b840191505092915050565b60006060820190506135ed600083018661239e565b6135fa60208301856120ac565b818103604083015261360c818461359f565b905094935050505056fe4e6f20726f7574657220656e726f6c6c656420666f7220646f6d61696e2e2044696420796f7520737065636966792074686520726967687420646f6d61696e2049443fa2646970667358221220dffd0c95cb75b0b5161d9368daebcae6a0831a83a103b19805921849ef9f612964736f6c634300080d0033",
  "linkReferences": {},
  "deployedLinkReferences": {}
}