{
  "_format": "hh-sol-artifact-1",
  "contractName": "ERC20MultichainAtomicSwapSender",
  "sourceName": "contracts/ERC20MultichainAtomicSwapSender.sol",
  "abi": [
    {
      "anonymous": false,
      "inputs": [
        {
          "indexed": true,
          "internalType": "address",
          "name": "abacusConnectionManager",
          "type": "address"
        }
      ],
      "name": "AbacusConnectionManagerSet",
      "type": "event"
    },
    {
      "anonymous": false,
      "inputs": [
        {
          "indexed": true,
          "internalType": "bytes32",
          "name": "htlcId",
          "type": "bytes32"
        },
        {
          "indexed": true,
          "internalType": "address",
          "name": "sender",
          "type": "address"
        },
        {
          "indexed": false,
          "internalType": "address",
          "name": "senderToken",
          "type": "address"
        },
        {
          "indexed": false,
          "internalType": "address",
          "name": "receiverToken",
          "type": "address"
        },
        {
          "indexed": false,
          "internalType": "uint32",
          "name": "receiverDomain",
          "type": "uint32"
        }
      ],
      "name": "HTLCERC20Created",
      "type": "event"
    },
    {
      "anonymous": false,
      "inputs": [
        {
          "indexed": true,
          "internalType": "bytes32",
          "name": "htlcId",
          "type": "bytes32"
        }
      ],
      "name": "HTLCERC20Refunded",
      "type": "event"
    },
    {
      "anonymous": false,
      "inputs": [
        {
          "indexed": true,
          "internalType": "bytes32",
          "name": "htlcId",
          "type": "bytes32"
        }
      ],
      "name": "HTLCERC20Withdrawn",
      "type": "event"
    },
    {
      "anonymous": false,
      "inputs": [
        {
          "indexed": false,
          "internalType": "uint8",
          "name": "version",
          "type": "uint8"
        }
      ],
      "name": "Initialized",
      "type": "event"
    },
    {
      "anonymous": false,
      "inputs": [
        {
          "indexed": true,
          "internalType": "address",
          "name": "interchainGasPaymaster",
          "type": "address"
        }
      ],
      "name": "InterchainGasPaymasterSet",
      "type": "event"
    },
    {
      "anonymous": false,
      "inputs": [
        {
          "indexed": true,
          "internalType": "address",
          "name": "previousOwner",
          "type": "address"
        },
        {
          "indexed": true,
          "internalType": "address",
          "name": "newOwner",
          "type": "address"
        }
      ],
      "name": "OwnershipTransferred",
      "type": "event"
    },
    {
      "anonymous": false,
      "inputs": [
        {
          "indexed": true,
          "internalType": "uint32",
          "name": "domain",
          "type": "uint32"
        },
        {
          "indexed": true,
          "internalType": "bytes32",
          "name": "router",
          "type": "bytes32"
        }
      ],
      "name": "RemoteRouterEnrolled",
      "type": "event"
    },
    {
      "inputs": [],
      "name": "abacusConnectionManager",
      "outputs": [
        {
          "internalType": "contract IAbacusConnectionManager",
          "name": "",
          "type": "address"
        }
      ],
      "stateMutability": "view",
      "type": "function"
    },
    {
      "inputs": [
        {
          "internalType": "uint32",
          "name": "_domain",
          "type": "uint32"
        },
        {
          "internalType": "bytes32",
          "name": "_router",
          "type": "bytes32"
        }
      ],
      "name": "enrollRemoteRouter",
      "outputs": [],
      "stateMutability": "nonpayable",
      "type": "function"
    },
    {
      "inputs": [],
      "name": "getDomain",
      "outputs": [
        {
          "internalType": "uint32",
          "name": "_senderDomain",
          "type": "uint32"
        }
      ],
      "stateMutability": "view",
      "type": "function"
    },
    {
      "inputs": [
        {
          "internalType": "bytes32",
          "name": "_htlcId",
          "type": "bytes32"
        }
      ],
      "name": "getHTLC",
      "outputs": [
        {
          "internalType": "address",
          "name": "sender",
          "type": "address"
        },
        {
          "internalType": "address",
          "name": "senderToken",
          "type": "address"
        },
        {
          "internalType": "uint256",
          "name": "senderAmount",
          "type": "uint256"
        },
        {
          "internalType": "address",
          "name": "receiver",
          "type": "address"
        },
        {
          "internalType": "uint32",
          "name": "receiverDomain",
          "type": "uint32"
        },
        {
          "internalType": "address",
          "name": "receiverToken",
          "type": "address"
        },
        {
          "internalType": "uint256",
          "name": "receiverAmount",
          "type": "uint256"
        },
        {
          "internalType": "uint256",
          "name": "timelock",
          "type": "uint256"
        },
        {
          "internalType": "bool",
          "name": "withdrawn",
          "type": "bool"
        },
        {
          "internalType": "bool",
          "name": "refunded",
          "type": "bool"
        }
      ],
      "stateMutability": "view",
      "type": "function"
    },
    {
      "inputs": [
        {
          "internalType": "uint32",
          "name": "_origin",
          "type": "uint32"
        },
        {
          "internalType": "bytes32",
          "name": "_sender",
          "type": "bytes32"
        },
        {
          "internalType": "bytes",
          "name": "_message",
          "type": "bytes"
        }
      ],
      "name": "handle",
      "outputs": [],
      "stateMutability": "nonpayable",
      "type": "function"
    },
    {
      "inputs": [
        {
          "internalType": "address",
          "name": "_connectionManager",
          "type": "address"
        },
        {
          "internalType": "address",
          "name": "_interchainGasPaymaster",
          "type": "address"
        },
        {
          "internalType": "uint32",
          "name": "_senderDomain",
          "type": "uint32"
        }
      ],
      "name": "initialize",
      "outputs": [],
      "stateMutability": "nonpayable",
      "type": "function"
    },
    {
      "inputs": [],
      "name": "interchainGasPaymaster",
      "outputs": [
        {
          "internalType": "contract IInterchainGasPaymaster",
          "name": "",
          "type": "address"
        }
      ],
      "stateMutability": "view",
      "type": "function"
    },
    {
      "inputs": [
        {
          "internalType": "uint256",
          "name": "_timelock",
          "type": "uint256"
        },
        {
          "internalType": "address",
          "name": "_senderToken",
          "type": "address"
        },
        {
          "internalType": "uint256",
          "name": "_senderAmount",
          "type": "uint256"
        },
        {
          "internalType": "uint32",
          "name": "_receiverDomain",
          "type": "uint32"
        },
        {
          "internalType": "address",
          "name": "_receiverToken",
          "type": "address"
        },
        {
          "internalType": "uint256",
          "name": "_receiverAmount",
          "type": "uint256"
        }
      ],
      "name": "newContract",
      "outputs": [
        {
          "internalType": "bytes32",
          "name": "htlcId",
          "type": "bytes32"
        }
      ],
      "stateMutability": "nonpayable",
      "type": "function"
    },
    {
      "inputs": [],
      "name": "owner",
      "outputs": [
        {
          "internalType": "address",
          "name": "",
          "type": "address"
        }
      ],
      "stateMutability": "view",
      "type": "function"
    },
    {
      "inputs": [
        {
          "internalType": "bytes32",
          "name": "_htlcId",
          "type": "bytes32"
        }
      ],
      "name": "refund",
      "outputs": [
        {
          "internalType": "bool",
          "name": "",
          "type": "bool"
        }
      ],
      "stateMutability": "nonpayable",
      "type": "function"
    },
    {
      "inputs": [],
      "name": "renounceOwnership",
      "outputs": [],
      "stateMutability": "nonpayable",
      "type": "function"
    },
    {
      "inputs": [
        {
          "internalType": "uint32",
          "name": "",
          "type": "uint32"
        }
      ],
      "name": "routers",
      "outputs": [
        {
          "internalType": "bytes32",
          "name": "",
          "type": "bytes32"
        }
      ],
      "stateMutability": "view",
      "type": "function"
    },
    {
      "inputs": [
        {
          "internalType": "address",
          "name": "_abacusConnectionManager",
          "type": "address"
        }
      ],
      "name": "setAbacusConnectionManager",
      "outputs": [],
      "stateMutability": "nonpayable",
      "type": "function"
    },
    {
      "inputs": [
        {
          "internalType": "address",
          "name": "_interchainGasPaymaster",
          "type": "address"
        }
      ],
      "name": "setInterchainGasPaymaster",
      "outputs": [],
      "stateMutability": "nonpayable",
      "type": "function"
    },
    {
      "inputs": [
        {
          "internalType": "address",
          "name": "newOwner",
          "type": "address"
        }
      ],
      "name": "transferOwnership",
      "outputs": [],
      "stateMutability": "nonpayable",
      "type": "function"
    }
  ],
  "bytecode": "0x608060405234801561001057600080fd5b50613439806100206000396000f3fe608060405234801561001057600080fd5b50600436106100f55760003560e01c80637249fbb611610097578063b49c53a711610066578063b49c53a71461027b578063b68d180914610297578063f1bd6f0a146102b5578063f2fde38b146102d1576100f5565b80637249fbb6146101d65780638da5cb5b1461020657806390c26838146102245780639a35c3591461025d576100f5565b806339bb4ad9116100d357806339bb4ad91461017657806356d5d475146101945780636ecf2b22146101b0578063715018a6146101cc576100f5565b8063059ee4d9146100fa57806312b1d7801461012a5780632ead72f614610146575b600080fd5b610114600480360381019061010f9190611e9f565b6102ed565b6040516101219190611f45565b60405180910390f35b610144600480360381019061013f9190611f60565b61087c565b005b610160600480360381019061015b9190611f8d565b610890565b60405161016d9190611f45565b60405180910390f35b61017e6108a8565b60405161018b9190612019565b60405180910390f35b6101ae60048036038101906101a991906120c5565b6108ce565b005b6101ca60048036038101906101c59190612139565b610991565b005b6101d4610af5565b005b6101f060048036038101906101eb919061218c565b610b09565b6040516101fd91906121d4565b60405180910390f35b61020e610e5e565b60405161021b91906121fe565b60405180910390f35b61023e6004803603810190610239919061218c565b610e88565b6040516102549a99989796959493929190612237565b60405180910390f35b610265610fe9565b60405161027291906122f4565b60405180910390f35b6102956004803603810190610290919061230f565b61100f565b005b61029f611025565b6040516102ac919061234f565b60405180910390f35b6102cf60048036038101906102ca9190611f60565b61103f565b005b6102eb60048036038101906102e69190611f60565b611053565b005b60008160008111610333576040517f08c379a000000000000000000000000000000000000000000000000000000000815260040161032a906123ed565b60405180910390fd5b86338760008111610379576040517f08c379a00000000000000000000000000000000000000000000000000000000081526004016103709061247f565b60405180910390fd5b808373ffffffffffffffffffffffffffffffffffffffff1663dd62ed3e84306040518363ffffffff1660e01b81526004016103b592919061249f565b602060405180830381865afa1580156103d2573d6000803e3d6000fd5b505050506040513d601f19601f820116820180604052508101906103f691906124dd565b1015610437576040517f08c379a000000000000000000000000000000000000000000000000000000000815260040161042e9061257c565b60405180910390fd5b8a42811161047a576040517f08c379a00000000000000000000000000000000000000000000000000000000081526004016104719061260e565b60405180910390fd5b6104ac61049b3360ca60009054906101000a900463ffffffff168e8e6110d6565b6104a68b8b8b61110f565b8e611145565b95506104b78661117b565b156104f7576040517f08c379a00000000000000000000000000000000000000000000000000000000081526004016104ee906126a0565b60405180910390fd5b8a73ffffffffffffffffffffffffffffffffffffffff166323b872dd33308d6040518463ffffffff1660e01b8152600401610534939291906126c0565b6020604051808303816000875af1158015610553573d6000803e3d6000fd5b505050506040513d601f19601f820116820180604052508101906105779190612723565b6105b6576040517f08c379a00000000000000000000000000000000000000000000000000000000081526004016105ad906127c2565b60405180910390fd5b6040518061014001604052803373ffffffffffffffffffffffffffffffffffffffff1681526020018c73ffffffffffffffffffffffffffffffffffffffff1681526020018b8152602001600073ffffffffffffffffffffffffffffffffffffffff1681526020018a63ffffffff1681526020018973ffffffffffffffffffffffffffffffffffffffff1681526020018881526020018d81526020016000151581526020016000151581525060c9600088815260200190815260200160002060008201518160000160006101000a81548173ffffffffffffffffffffffffffffffffffffffff021916908373ffffffffffffffffffffffffffffffffffffffff16021790555060208201518160010160006101000a81548173ffffffffffffffffffffffffffffffffffffffff021916908373ffffffffffffffffffffffffffffffffffffffff1602179055506040820151816002015560608201518160030160006101000a81548173ffffffffffffffffffffffffffffffffffffffff021916908373ffffffffffffffffffffffffffffffffffffffff16021790555060808201518160030160146101000a81548163ffffffff021916908363ffffffff16021790555060a08201518160040160006101000a81548173ffffffffffffffffffffffffffffffffffffffff021916908373ffffffffffffffffffffffffffffffffffffffff16021790555060c0820151816005015560e082015181600601556101008201518160070160006101000a81548160ff0219169083151502179055506101208201518160070160016101000a81548160ff0219169083151502179055509050503373ffffffffffffffffffffffffffffffffffffffff16867f43d3067c0e62c45bf3a2eb5595a91ef09293ef3ce97e2e9c0618802fa65a709a8d8b8d604051610865939291906127e2565b60405180910390a350505050509695505050505050565b6108846111ea565b61088d81611268565b50565b60976020528060005260406000206000915090505481565b606660009054906101000a900473ffffffffffffffffffffffffffffffffffffffff1681565b6108d7336112ef565b610916576040517f08c379a000000000000000000000000000000000000000000000000000000000815260040161090d90612865565b60405180910390fd5b83836109228282611394565b6040518060800160405280604381526020016133c1604391399061097c576040517f08c379a0000000000000000000000000000000000000000000000000000000008152600401610973919061290d565b60405180910390fd5b50610989868686866113c0565b505050505050565b60008060019054906101000a900460ff161590508080156109c25750600160008054906101000a900460ff1660ff16105b806109ef57506109d130611587565b1580156109ee5750600160008054906101000a900460ff1660ff16145b5b610a2e576040517f08c379a0000000000000000000000000000000000000000000000000000000008152600401610a25906129a1565b60405180910390fd5b60016000806101000a81548160ff021916908360ff1602179055508015610a6b576001600060016101000a81548160ff0219169083151502179055505b610a7584846115aa565b8160ca60006101000a81548163ffffffff021916908363ffffffff1602179055508015610aef5760008060016101000a81548160ff0219169083151502179055507f7f26b83ff96e1f2b6a682f133852f6798a09c465da95921460cefb38474024986001604051610ae69190612a09565b60405180910390a15b50505050565b610afd6111ea565b610b07600061160f565b565b600081610b158161117b565b610b54576040517f08c379a0000000000000000000000000000000000000000000000000000000008152600401610b4b90612a96565b60405180910390fd5b823373ffffffffffffffffffffffffffffffffffffffff1660c9600083815260200190815260200160002060000160009054906101000a900473ffffffffffffffffffffffffffffffffffffffff1673ffffffffffffffffffffffffffffffffffffffff1614610bf9576040517f08c379a0000000000000000000000000000000000000000000000000000000008152600401610bf090612b02565b60405180910390fd5b6000151560c9600083815260200190815260200160002060070160019054906101000a900460ff16151514610c63576040517f08c379a0000000000000000000000000000000000000000000000000000000008152600401610c5a90612b6e565b60405180910390fd5b6000151560c9600083815260200190815260200160002060070160009054906101000a900460ff16151514610ccd576040517f08c379a0000000000000000000000000000000000000000000000000000000008152600401610cc490612bda565b60405180910390fd5b4260c96000838152602001908152602001600020600601541115610d26576040517f08c379a0000000000000000000000000000000000000000000000000000000008152600401610d1d90612c6c565b60405180910390fd5b600060c96000868152602001908152602001600020905060018160070160016101000a81548160ff0219169083151502179055508060010160009054906101000a900473ffffffffffffffffffffffffffffffffffffffff1673ffffffffffffffffffffffffffffffffffffffff1663a9059cbb8260000160009054906101000a900473ffffffffffffffffffffffffffffffffffffffff1683600201546040518363ffffffff1660e01b8152600401610de1929190612c8c565b6020604051808303816000875af1158015610e00573d6000803e3d6000fd5b505050506040513d601f19601f82011682018060405250810190610e249190612723565b50847f25c0cb42002f469b8c07222f77709effe07c20669210af3511c8a0eaf671006660405160405180910390a260019350505050919050565b6000603360009054906101000a900473ffffffffffffffffffffffffffffffffffffffff16905090565b60008060008060008060008060008060001515610ea48c61117b565b151503610ed3576000806000806000806000806000809950995099509950995099509950995099509950610fdc565b600060c960008d815260200190815260200160002090508060000160009054906101000a900473ffffffffffffffffffffffffffffffffffffffff168160010160009054906101000a900473ffffffffffffffffffffffffffffffffffffffff1682600201548360030160009054906101000a900473ffffffffffffffffffffffffffffffffffffffff168460030160149054906101000a900463ffffffff168560040160009054906101000a900473ffffffffffffffffffffffffffffffffffffffff16866005015487600601548860070160009054906101000a900460ff168960070160019054906101000a900460ff169a509a509a509a509a509a509a509a509a509a50505b9193959799509193959799565b606560009054906101000a900473ffffffffffffffffffffffffffffffffffffffff1681565b6110176111ea565b61102182826116d5565b5050565b600060ca60009054906101000a900463ffffffff16905090565b6110476111ea565b61105081611731565b50565b61105b6111ea565b600073ffffffffffffffffffffffffffffffffffffffff168173ffffffffffffffffffffffffffffffffffffffff16036110ca576040517f08c379a00000000000000000000000000000000000000000000000000000000081526004016110c190612d27565b60405180910390fd5b6110d38161160f565b50565b6000848484846040516020016110ef9493929190612de6565b604051602081830303815290604052805190602001209050949350505050565b600083838360405160200161112693929190612e34565b6040516020818303038152906040528051906020012090509392505050565b600083838360405160200161115c93929190612e92565b6040516020818303038152906040528051906020012090509392505050565b60008073ffffffffffffffffffffffffffffffffffffffff1660c9600084815260200190815260200160002060000160009054906101000a900473ffffffffffffffffffffffffffffffffffffffff1673ffffffffffffffffffffffffffffffffffffffff1614159050919050565b6111f26117b8565b73ffffffffffffffffffffffffffffffffffffffff16611210610e5e565b73ffffffffffffffffffffffffffffffffffffffff1614611266576040517f08c379a000000000000000000000000000000000000000000000000000000000815260040161125d90612f1b565b60405180910390fd5b565b80606560006101000a81548173ffffffffffffffffffffffffffffffffffffffff021916908373ffffffffffffffffffffffffffffffffffffffff1602179055508073ffffffffffffffffffffffffffffffffffffffff167f7c10de8878ed89478ff01b9cd8c11a5271ea8ac91d46f662e6aea7e3adf5b11f60405160405180910390a250565b6000606560009054906101000a900473ffffffffffffffffffffffffffffffffffffffff1673ffffffffffffffffffffffffffffffffffffffff1663282f51eb836040518263ffffffff1660e01b815260040161134c91906121fe565b602060405180830381865afa158015611369573d6000803e3d6000fd5b505050506040513d601f19601f8201168201806040525081019061138d9190612723565b9050919050565b600081609760008563ffffffff1663ffffffff1681526020019081526020016000205414905092915050565b60006113d46113cf84846117c0565b6117e9565b905060006113e284846117f6565b90506113ed8161117b565b61142c576040517f08c379a000000000000000000000000000000000000000000000000000000000815260040161142390612f87565b60405180910390fd5b8563ffffffff1660c9600083815260200190815260200160002060030160149054906101000a900463ffffffff1663ffffffff16146114a0576040517f08c379a000000000000000000000000000000000000000000000000000000000815260040161149790613019565b60405180910390fd5b6000151560c9600083815260200190815260200160002060070160009054906101000a900460ff1615151461150a576040517f08c379a000000000000000000000000000000000000000000000000000000000815260040161150190613085565b60405180910390fd5b6000151560c9600083815260200190815260200160002060070160019054906101000a900460ff16151514611574576040517f08c379a000000000000000000000000000000000000000000000000000000000815260040161156b906130f1565b60405180910390fd5b61157e818361181f565b50505050505050565b6000808273ffffffffffffffffffffffffffffffffffffffff163b119050919050565b600060019054906101000a900460ff166115f9576040517f08c379a00000000000000000000000000000000000000000000000000000000081526004016115f090613183565b60405180910390fd5b61160281611731565b61160b826119e0565b5050565b6000603360009054906101000a900473ffffffffffffffffffffffffffffffffffffffff16905081603360006101000a81548173ffffffffffffffffffffffffffffffffffffffff021916908373ffffffffffffffffffffffffffffffffffffffff1602179055508173ffffffffffffffffffffffffffffffffffffffff168173ffffffffffffffffffffffffffffffffffffffff167f8be0079c531659141344cd1fd0a4f28419497f9722a3daafe3b4186f6b6457e060405160405180910390a35050565b80609760008463ffffffff1663ffffffff16815260200190815260200160002081905550808263ffffffff167f97fd51fef1f80c854cbd0150c248e8b2ac4ecdc97cc05e742b5f61c9f4dc645860405160405180910390a35050565b80606660006101000a81548173ffffffffffffffffffffffffffffffffffffffff021916908373ffffffffffffffffffffffffffffffffffffffff1602179055508073ffffffffffffffffffffffffffffffffffffffff167fb87f5a0bface22cde699143559fb99f990ae54eea236995fc54178af91af859f60405160405180910390a250565b600033905090565b600082826020906040926117d6939291906131ad565b906117e19190613200565b905092915050565b60008160001c9050919050565b6000828260009060209261180c939291906131ad565b906118179190613200565b905092915050565b60008060c960008581526020019081526020016000209050828160030160006101000a81548173ffffffffffffffffffffffffffffffffffffffff021916908373ffffffffffffffffffffffffffffffffffffffff16021790555060018160070160006101000a81548160ff0219169083151502179055508060010160009054906101000a900473ffffffffffffffffffffffffffffffffffffffff1673ffffffffffffffffffffffffffffffffffffffff1663a9059cbb8483600201546040518363ffffffff1660e01b81526004016118fa929190612c8c565b6020604051808303816000875af1158015611919573d6000803e3d6000fd5b505050506040513d601f19601f8201168201806040525081019061193d9190612723565b506119a88160030160149054906101000a900463ffffffff166119a28661199d8560000160009054906101000a900473ffffffffffffffffffffffffffffffffffffffff1673ffffffffffffffffffffffffffffffffffffffff16611a43565b611a66565b34611a92565b837f90b949193e894c5c3d695af213116f68e6d6d74c408b46f99eebacab52bff6be60405160405180910390a2600191505092915050565b600060019054906101000a900460ff16611a2f576040517f08c379a0000000000000000000000000000000000000000000000000000000008152600401611a2690613183565b60405180910390fd5b611a3881611268565b611a40611b50565b50565b60008173ffffffffffffffffffffffffffffffffffffffff1660001b9050919050565b60608282604051602001611a7b92919061325f565b604051602081830303815290604052905092915050565b6000611a9c611ba9565b90506000611aab828686611c41565b90506000831115611b4957606660009054906101000a900473ffffffffffffffffffffffffffffffffffffffff1673ffffffffffffffffffffffffffffffffffffffff1663a5703c8e848484896040518563ffffffff1660e01b8152600401611b169392919061328b565b6000604051808303818588803b158015611b2f57600080fd5b505af1158015611b43573d6000803e3d6000fd5b50505050505b5050505050565b600060019054906101000a900460ff16611b9f576040517f08c379a0000000000000000000000000000000000000000000000000000000008152600401611b9690613183565b60405180910390fd5b611ba7611cd9565b565b6000606560009054906101000a900473ffffffffffffffffffffffffffffffffffffffff1673ffffffffffffffffffffffffffffffffffffffff1663ce11e6ab6040518163ffffffff1660e01b8152600401602060405180830381865afa158015611c18573d6000803e3d6000fd5b505050506040513d601f19601f82011682018060405250810190611c3c9190613300565b905090565b600080611c4d84611d3a565b90508473ffffffffffffffffffffffffffffffffffffffff1663fa31de018583866040518463ffffffff1660e01b8152600401611c8c93929190613382565b6020604051808303816000875af1158015611cab573d6000803e3d6000fd5b505050506040513d601f19601f82011682018060405250810190611ccf91906124dd565b9150509392505050565b600060019054906101000a900460ff16611d28576040517f08c379a0000000000000000000000000000000000000000000000000000000008152600401611d1f90613183565b60405180910390fd5b611d38611d336117b8565b61160f565b565b6000609760008363ffffffff1663ffffffff1681526020019081526020016000205490506000801b8114156040518060800160405280604381526020016133c16043913990611dbf576040517f08c379a0000000000000000000000000000000000000000000000000000000008152600401611db6919061290d565b60405180910390fd5b50919050565b600080fd5b600080fd5b6000819050919050565b611de281611dcf565b8114611ded57600080fd5b50565b600081359050611dff81611dd9565b92915050565b600073ffffffffffffffffffffffffffffffffffffffff82169050919050565b6000611e3082611e05565b9050919050565b611e4081611e25565b8114611e4b57600080fd5b50565b600081359050611e5d81611e37565b92915050565b600063ffffffff82169050919050565b611e7c81611e63565b8114611e8757600080fd5b50565b600081359050611e9981611e73565b92915050565b60008060008060008060c08789031215611ebc57611ebb611dc5565b5b6000611eca89828a01611df0565b9650506020611edb89828a01611e4e565b9550506040611eec89828a01611df0565b9450506060611efd89828a01611e8a565b9350506080611f0e89828a01611e4e565b92505060a0611f1f89828a01611df0565b9150509295509295509295565b6000819050919050565b611f3f81611f2c565b82525050565b6000602082019050611f5a6000830184611f36565b92915050565b600060208284031215611f7657611f75611dc5565b5b6000611f8484828501611e4e565b91505092915050565b600060208284031215611fa357611fa2611dc5565b5b6000611fb184828501611e8a565b91505092915050565b6000819050919050565b6000611fdf611fda611fd584611e05565b611fba565b611e05565b9050919050565b6000611ff182611fc4565b9050919050565b600061200382611fe6565b9050919050565b61201381611ff8565b82525050565b600060208201905061202e600083018461200a565b92915050565b61203d81611f2c565b811461204857600080fd5b50565b60008135905061205a81612034565b92915050565b600080fd5b600080fd5b600080fd5b60008083601f84011261208557612084612060565b5b8235905067ffffffffffffffff8111156120a2576120a1612065565b5b6020830191508360018202830111156120be576120bd61206a565b5b9250929050565b600080600080606085870312156120df576120de611dc5565b5b60006120ed87828801611e8a565b94505060206120fe8782880161204b565b935050604085013567ffffffffffffffff81111561211f5761211e611dca565b5b61212b8782880161206f565b925092505092959194509250565b60008060006060848603121561215257612151611dc5565b5b600061216086828701611e4e565b935050602061217186828701611e4e565b925050604061218286828701611e8a565b9150509250925092565b6000602082840312156121a2576121a1611dc5565b5b60006121b08482850161204b565b91505092915050565b60008115159050919050565b6121ce816121b9565b82525050565b60006020820190506121e960008301846121c5565b92915050565b6121f881611e25565b82525050565b600060208201905061221360008301846121ef565b92915050565b61222281611dcf565b82525050565b61223181611e63565b82525050565b60006101408201905061224d600083018d6121ef565b61225a602083018c6121ef565b612267604083018b612219565b612274606083018a6121ef565b6122816080830189612228565b61228e60a08301886121ef565b61229b60c0830187612219565b6122a860e0830186612219565b6122b66101008301856121c5565b6122c46101208301846121c5565b9b9a5050505050505050505050565b60006122de82611fe6565b9050919050565b6122ee816122d3565b82525050565b600060208201905061230960008301846122e5565b92915050565b6000806040838503121561232657612325611dc5565b5b600061233485828601611e8a565b92505060206123458582860161204b565b9150509250929050565b60006020820190506123646000830184612228565b92915050565b600082825260208201905092915050565b7f746f6b656e416d6f756e7456616c69643a20746f6b656e20616d6f756e74206d60008201527f757374206265203e203000000000000000000000000000000000000000000000602082015250565b60006123d7602a8361236a565b91506123e28261237b565b604082019050919050565b60006020820190508181036000830152612406816123ca565b9050919050565b7f746f6b656e735472616e7366657261626c653a20746f6b656e20616d6f756e7460008201527f206d757374206265203e20300000000000000000000000000000000000000000602082015250565b6000612469602c8361236a565b91506124748261240d565b604082019050919050565b600060208201905081810360008301526124988161245c565b9050919050565b60006040820190506124b460008301856121ef565b6124c160208301846121ef565b9392505050565b6000815190506124d781611dd9565b92915050565b6000602082840312156124f3576124f2611dc5565b5b6000612501848285016124c8565b91505092915050565b7f746f6b656e735472616e7366657261626c653a20746f6b656e20616c6c6f776160008201527f6e6365206d757374206265203e3d20616d6f756e740000000000000000000000602082015250565b600061256660358361236a565b91506125718261250a565b604082019050919050565b6000602082019050818103600083015261259581612559565b9050919050565b7f66757475726554696d656c6f636b3a2074696d656c6f636b2074696d65206d7560008201527f737420626520696e207468652066757475726500000000000000000000000000602082015250565b60006125f860338361236a565b91506126038261259c565b604082019050919050565b60006020820190508181036000830152612627816125eb565b9050919050565b7f6e6577436f6e74726163743a20436f6e747261637420616c726561647920657860008201527f6973747300000000000000000000000000000000000000000000000000000000602082015250565b600061268a60248361236a565b91506126958261262e565b604082019050919050565b600060208201905081810360008301526126b98161267d565b9050919050565b60006060820190506126d560008301866121ef565b6126e260208301856121ef565b6126ef6040830184612219565b949350505050565b612700816121b9565b811461270b57600080fd5b50565b60008151905061271d816126f7565b92915050565b60006020828403121561273957612738611dc5565b5b60006127478482850161270e565b91505092915050565b7f7472616e7366657246726f6d2073656e64657220746f2074686973206661696c60008201527f6564000000000000000000000000000000000000000000000000000000000000602082015250565b60006127ac60228361236a565b91506127b782612750565b604082019050919050565b600060208201905081810360008301526127db8161279f565b9050919050565b60006060820190506127f760008301866121ef565b61280460208301856121ef565b6128116040830184612228565b949350505050565b7f21696e626f780000000000000000000000000000000000000000000000000000600082015250565b600061284f60068361236a565b915061285a82612819565b602082019050919050565b6000602082019050818103600083015261287e81612842565b9050919050565b600081519050919050565b60005b838110156128ae578082015181840152602081019050612893565b838111156128bd576000848401525b50505050565b6000601f19601f8301169050919050565b60006128df82612885565b6128e9818561236a565b93506128f9818560208601612890565b612902816128c3565b840191505092915050565b6000602082019050818103600083015261292781846128d4565b905092915050565b7f496e697469616c697a61626c653a20636f6e747261637420697320616c72656160008201527f647920696e697469616c697a6564000000000000000000000000000000000000602082015250565b600061298b602e8361236a565b91506129968261292f565b604082019050919050565b600060208201905081810360008301526129ba8161297e565b9050919050565b6000819050919050565b600060ff82169050919050565b60006129f36129ee6129e9846129c1565b611fba565b6129cb565b9050919050565b612a03816129d8565b82525050565b6000602082019050612a1e60008301846129fa565b92915050565b7f636f6e74726163744578697374733a2068746c63496420646f6573206e6f742060008201527f6578697374000000000000000000000000000000000000000000000000000000602082015250565b6000612a8060258361236a565b9150612a8b82612a24565b604082019050919050565b60006020820190508181036000830152612aaf81612a73565b9050919050565b7f726566756e6461626c653a206e6f742073656e64657200000000000000000000600082015250565b6000612aec60168361236a565b9150612af782612ab6565b602082019050919050565b60006020820190508181036000830152612b1b81612adf565b9050919050565b7f726566756e6461626c653a20616c726561647920726566756e64656400000000600082015250565b6000612b58601c8361236a565b9150612b6382612b22565b602082019050919050565b60006020820190508181036000830152612b8781612b4b565b9050919050565b7f726566756e6461626c653a20616c72656164792077697468647261776e000000600082015250565b6000612bc4601d8361236a565b9150612bcf82612b8e565b602082019050919050565b60006020820190508181036000830152612bf381612bb7565b9050919050565b7f726566756e6461626c653a2074696d656c6f636b206e6f74207965742070617360008201527f7365640000000000000000000000000000000000000000000000000000000000602082015250565b6000612c5660238361236a565b9150612c6182612bfa565b604082019050919050565b60006020820190508181036000830152612c8581612c49565b9050919050565b6000604082019050612ca160008301856121ef565b612cae6020830184612219565b9392505050565b7f4f776e61626c653a206e6577206f776e657220697320746865207a65726f206160008201527f6464726573730000000000000000000000000000000000000000000000000000602082015250565b6000612d1160268361236a565b9150612d1c82612cb5565b604082019050919050565b60006020820190508181036000830152612d4081612d04565b9050919050565b60008160601b9050919050565b6000612d5f82612d47565b9050919050565b6000612d7182612d54565b9050919050565b612d89612d8482611e25565b612d66565b82525050565b60008160e01b9050919050565b6000612da782612d8f565b9050919050565b612dbf612dba82611e63565b612d9c565b82525050565b6000819050919050565b612de0612ddb82611dcf565b612dc5565b82525050565b6000612df28287612d78565b601482019150612e028286612dae565b600482019150612e128285612d78565b601482019150612e228284612dcf565b60208201915081905095945050505050565b6000612e408286612dae565b600482019150612e508285612d78565b601482019150612e608284612dcf565b602082019150819050949350505050565b6000819050919050565b612e8c612e8782611f2c565b612e71565b82525050565b6000612e9e8286612e7b565b602082019150612eae8285612e7b565b602082019150612ebe8284612dcf565b602082019150819050949350505050565b7f4f776e61626c653a2063616c6c6572206973206e6f7420746865206f776e6572600082015250565b6000612f0560208361236a565b9150612f1082612ecf565b602082019050919050565b60006020820190508181036000830152612f3481612ef8565b9050919050565b7f5f68616e646c653a2068746c63496420646f6573206e6f742065786973740000600082015250565b6000612f71601e8361236a565b9150612f7c82612f3b565b602082019050919050565b60006020820190508181036000830152612fa081612f64565b9050919050565b7f5f68616e646c653a2063616c6c65642066726f6d2074686520696e636f72726560008201527f637420636861696e000000000000000000000000000000000000000000000000602082015250565b600061300360288361236a565b915061300e82612fa7565b604082019050919050565b6000602082019050818103600083015261303281612ff6565b9050919050565b7f5f68616e646c653a20616c72656164792077697468647261776e000000000000600082015250565b600061306f601a8361236a565b915061307a82613039565b602082019050919050565b6000602082019050818103600083015261309e81613062565b9050919050565b7f5f68616e646c653a20616c726561647920726566756e64656400000000000000600082015250565b60006130db60198361236a565b91506130e6826130a5565b602082019050919050565b6000602082019050818103600083015261310a816130ce565b9050919050565b7f496e697469616c697a61626c653a20636f6e7472616374206973206e6f74206960008201527f6e697469616c697a696e67000000000000000000000000000000000000000000602082015250565b600061316d602b8361236a565b915061317882613111565b604082019050919050565b6000602082019050818103600083015261319c81613160565b9050919050565b600080fd5b600080fd5b600080858511156131c1576131c06131a3565b5b838611156131d2576131d16131a8565b5b6001850283019150848603905094509492505050565b600082905092915050565b600082821b905092915050565b600061320c83836131e8565b826132178135611f2c565b92506020821015613257576132527fffffffffffffffffffffffffffffffffffffffffffffffffffffffffffffffff836020036008026131f3565b831692505b505092915050565b600061326b8285612e7b565b60208201915061327b8284612e7b565b6020820191508190509392505050565b60006060820190506132a060008301866121ef565b6132ad6020830185612219565b6132ba6040830184612228565b949350505050565b60006132cd82611e25565b9050919050565b6132dd816132c2565b81146132e857600080fd5b50565b6000815190506132fa816132d4565b92915050565b60006020828403121561331657613315611dc5565b5b6000613324848285016132eb565b91505092915050565b600081519050919050565b600082825260208201905092915050565b60006133548261332d565b61335e8185613338565b935061336e818560208601612890565b613377816128c3565b840191505092915050565b60006060820190506133976000830186612228565b6133a46020830185611f36565b81810360408301526133b68184613349565b905094935050505056fe4e6f20726f7574657220656e726f6c6c656420666f7220646f6d61696e2e2044696420796f7520737065636966792074686520726967687420646f6d61696e2049443fa26469706673582212200a9c9f7c1a41aa9957f0cb4af2659fd15bb154b7f6338ccb5f2617823e4fcd3464736f6c634300080d0033",
  "linkReferences": {},
  "deployedLinkReferences": {}
}