{
  "_format": "hh-sol-artifact-1",
  "contractName": "ERC20AtomicSwapSender",
  "sourceName": "contracts/ERC20AtomicSwapSender.sol",
  "abi": [
    {
      "anonymous": false,
      "inputs": [
        {
          "indexed": true,
          "internalType": "bytes32",
          "name": "contractId",
          "type": "bytes32"
        },
        {
          "indexed": true,
          "internalType": "address",
          "name": "sender",
          "type": "address"
        },
        {
          "indexed": false,
          "internalType": "address",
          "name": "senderToken",
          "type": "address"
        },
        {
          "indexed": false,
          "internalType": "address",
          "name": "receiverToken",
          "type": "address"
        },
        {
          "indexed": false,
          "internalType": "address",
          "name": "receiverContract",
          "type": "address"
        }
      ],
      "name": "HTLCERC20Created",
      "type": "event"
    },
    {
      "anonymous": false,
      "inputs": [
        {
          "indexed": true,
          "internalType": "bytes32",
          "name": "contractId",
          "type": "bytes32"
        }
      ],
      "name": "HTLCERC20Refunded",
      "type": "event"
    },
    {
      "anonymous": false,
      "inputs": [
        {
          "indexed": true,
          "internalType": "bytes32",
          "name": "contractId",
          "type": "bytes32"
        }
      ],
      "name": "HTLCERC20Withdrawn",
      "type": "event"
    },
    {
      "inputs": [
        {
          "internalType": "bytes32",
          "name": "_contractId",
          "type": "bytes32"
        }
      ],
      "name": "getContract",
      "outputs": [
        {
          "internalType": "address",
          "name": "sender",
          "type": "address"
        },
        {
          "internalType": "address",
          "name": "senderToken",
          "type": "address"
        },
        {
          "internalType": "uint256",
          "name": "senderAmount",
          "type": "uint256"
        },
        {
          "internalType": "address",
          "name": "receiverToken",
          "type": "address"
        },
        {
          "internalType": "uint256",
          "name": "receiverAmount",
          "type": "uint256"
        },
        {
          "internalType": "address",
          "name": "receiverContract",
          "type": "address"
        },
        {
          "internalType": "uint256",
          "name": "timelock",
          "type": "uint256"
        },
        {
          "internalType": "bool",
          "name": "withdrawn",
          "type": "bool"
        },
        {
          "internalType": "bool",
          "name": "refunded",
          "type": "bool"
        },
        {
          "internalType": "address",
          "name": "receiver",
          "type": "address"
        }
      ],
      "stateMutability": "view",
      "type": "function"
    },
    {
      "inputs": [
        {
          "internalType": "uint256",
          "name": "_timelock",
          "type": "uint256"
        },
        {
          "internalType": "address",
          "name": "_senderToken",
          "type": "address"
        },
        {
          "internalType": "uint256",
          "name": "_senderAmount",
          "type": "uint256"
        },
        {
          "internalType": "address",
          "name": "_receiverToken",
          "type": "address"
        },
        {
          "internalType": "uint256",
          "name": "_receiverAmount",
          "type": "uint256"
        },
        {
          "internalType": "address",
          "name": "_receiverContract",
          "type": "address"
        }
      ],
      "name": "newContract",
      "outputs": [
        {
          "internalType": "bytes32",
          "name": "contractId",
          "type": "bytes32"
        }
      ],
      "stateMutability": "nonpayable",
      "type": "function"
    },
    {
      "inputs": [
        {
          "internalType": "bytes32",
          "name": "_contractId",
          "type": "bytes32"
        }
      ],
      "name": "refund",
      "outputs": [
        {
          "internalType": "bool",
          "name": "",
          "type": "bool"
        }
      ],
      "stateMutability": "nonpayable",
      "type": "function"
    },
    {
      "inputs": [
        {
          "internalType": "bytes32",
          "name": "_contractId",
          "type": "bytes32"
        },
        {
          "internalType": "address",
          "name": "receiver",
          "type": "address"
        }
      ],
      "name": "withdraw",
      "outputs": [
        {
          "internalType": "bool",
          "name": "",
          "type": "bool"
        }
      ],
      "stateMutability": "nonpayable",
      "type": "function"
    }
  ],
  "bytecode": "0x608060405234801561001057600080fd5b50611cc2806100206000396000f3fe608060405234801561001057600080fd5b506004361061004c5760003560e01c8063088fd304146100515780631b258d50146100815780637249fbb6146100b1578063e16c7d98146100e1575b600080fd5b61006b60048036038101906100669190610fdb565b61011a565b6040516100789190611081565b60405180910390f35b61009b600480360381019061009691906110c8565b61071f565b6040516100a89190611123565b60405180910390f35b6100cb60048036038101906100c6919061113e565b610a14565b6040516100d89190611123565b60405180910390f35b6100fb60048036038101906100f6919061113e565b610d64565b6040516101119a99989796959493929190611189565b60405180910390f35b600085338660008111610162576040517f08c379a0000000000000000000000000000000000000000000000000000000008152600401610159906112a8565b60405180910390fd5b808373ffffffffffffffffffffffffffffffffffffffff1663dd62ed3e84306040518363ffffffff1660e01b815260040161019e9291906112c8565b602060405180830381865afa1580156101bb573d6000803e3d6000fd5b505050506040513d601f19601f820116820180604052508101906101df9190611306565b1015610220576040517f08c379a0000000000000000000000000000000000000000000000000000000008152600401610217906113a5565b60405180910390fd5b89428111610263576040517f08c379a000000000000000000000000000000000000000000000000000000000815260040161025a90611437565b60405180910390fd5b600087116102a6576040517f08c379a000000000000000000000000000000000000000000000000000000000815260040161029d906114c9565b60405180910390fd5b6002338c8c8c8c8c8c6040516020016102c59796959493929190611552565b6040516020818303038152906040526040516102e1919061164d565b602060405180830381855afa1580156102fe573d6000803e3d6000fd5b5050506040513d601f19601f820116820180604052508101906103219190611679565b945061032c85610ed4565b1561036c576040517f08c379a000000000000000000000000000000000000000000000000000000000815260040161036390611718565b60405180910390fd5b8973ffffffffffffffffffffffffffffffffffffffff166323b872dd33308c6040518463ffffffff1660e01b81526004016103a993929190611738565b6020604051808303816000875af11580156103c8573d6000803e3d6000fd5b505050506040513d601f19601f820116820180604052508101906103ec919061179b565b61042b576040517f08c379a00000000000000000000000000000000000000000000000000000000081526004016104229061183a565b60405180910390fd5b6040518061014001604052803373ffffffffffffffffffffffffffffffffffffffff1681526020018b73ffffffffffffffffffffffffffffffffffffffff1681526020018a81526020018973ffffffffffffffffffffffffffffffffffffffff1681526020018881526020018773ffffffffffffffffffffffffffffffffffffffff1681526020018c8152602001600015158152602001600015158152602001600073ffffffffffffffffffffffffffffffffffffffff1681525060008087815260200190815260200160002060008201518160000160006101000a81548173ffffffffffffffffffffffffffffffffffffffff021916908373ffffffffffffffffffffffffffffffffffffffff16021790555060208201518160010160006101000a81548173ffffffffffffffffffffffffffffffffffffffff021916908373ffffffffffffffffffffffffffffffffffffffff1602179055506040820151816002015560608201518160030160006101000a81548173ffffffffffffffffffffffffffffffffffffffff021916908373ffffffffffffffffffffffffffffffffffffffff1602179055506080820151816004015560a08201518160050160006101000a81548173ffffffffffffffffffffffffffffffffffffffff021916908373ffffffffffffffffffffffffffffffffffffffff16021790555060c0820151816006015560e08201518160070160006101000a81548160ff0219169083151502179055506101008201518160070160016101000a81548160ff0219169083151502179055506101208201518160070160026101000a81548173ffffffffffffffffffffffffffffffffffffffff021916908373ffffffffffffffffffffffffffffffffffffffff1602179055509050503373ffffffffffffffffffffffffffffffffffffffff16857f9f1c1ec2b13ca9c7bd8ccbdb4599d6a7e44724019e4679bf6cc5514e7317150c8c8b8a6040516107099392919061185a565b60405180910390a3505050509695505050505050565b60008261072b81610ed4565b61076a576040517f08c379a000000000000000000000000000000000000000000000000000000000815260040161076190611903565b60405180910390fd5b836000151560008083815260200190815260200160002060070160009054906101000a900460ff161515146107d4576040517f08c379a00000000000000000000000000000000000000000000000000000000081526004016107cb9061196f565b60405180910390fd5b42600080838152602001908152602001600020600601541161082b576040517f08c379a0000000000000000000000000000000000000000000000000000000008152600401610822906119db565b60405180910390fd5b600080600087815260200190815260200160002090503373ffffffffffffffffffffffffffffffffffffffff168160050160009054906101000a900473ffffffffffffffffffffffffffffffffffffffff1673ffffffffffffffffffffffffffffffffffffffff16146108d3576040517f08c379a00000000000000000000000000000000000000000000000000000000081526004016108ca90611a6d565b60405180910390fd5b848160070160026101000a81548173ffffffffffffffffffffffffffffffffffffffff021916908373ffffffffffffffffffffffffffffffffffffffff16021790555060018160070160006101000a81548160ff0219169083151502179055508060010160009054906101000a900473ffffffffffffffffffffffffffffffffffffffff1673ffffffffffffffffffffffffffffffffffffffff1663a9059cbb8683600201546040518363ffffffff1660e01b8152600401610996929190611a8d565b6020604051808303816000875af11580156109b5573d6000803e3d6000fd5b505050506040513d601f19601f820116820180604052508101906109d9919061179b565b50857f90b949193e894c5c3d695af213116f68e6d6d74c408b46f99eebacab52bff6be60405160405180910390a26001935050505092915050565b600081610a2081610ed4565b610a5f576040517f08c379a0000000000000000000000000000000000000000000000000000000008152600401610a5690611903565b60405180910390fd5b823373ffffffffffffffffffffffffffffffffffffffff1660008083815260200190815260200160002060000160009054906101000a900473ffffffffffffffffffffffffffffffffffffffff1673ffffffffffffffffffffffffffffffffffffffff1614610b03576040517f08c379a0000000000000000000000000000000000000000000000000000000008152600401610afa90611b02565b60405180910390fd5b6000151560008083815260200190815260200160002060070160019054906101000a900460ff16151514610b6c576040517f08c379a0000000000000000000000000000000000000000000000000000000008152600401610b6390611b6e565b60405180910390fd5b6000151560008083815260200190815260200160002060070160009054906101000a900460ff16151514610bd5576040517f08c379a0000000000000000000000000000000000000000000000000000000008152600401610bcc90611bda565b60405180910390fd5b42600080838152602001908152602001600020600601541115610c2d576040517f08c379a0000000000000000000000000000000000000000000000000000000008152600401610c2490611c6c565b60405180910390fd5b6000806000868152602001908152602001600020905060018160070160016101000a81548160ff0219169083151502179055508060010160009054906101000a900473ffffffffffffffffffffffffffffffffffffffff1673ffffffffffffffffffffffffffffffffffffffff1663a9059cbb8260000160009054906101000a900473ffffffffffffffffffffffffffffffffffffffff1683600201546040518363ffffffff1660e01b8152600401610ce7929190611a8d565b6020604051808303816000875af1158015610d06573d6000803e3d6000fd5b505050506040513d601f19601f82011682018060405250810190610d2a919061179b565b50847f25c0cb42002f469b8c07222f77709effe07c20669210af3511c8a0eaf671006660405160405180910390a260019350505050919050565b60008060008060008060008060008060001515610d808c610ed4565b151503610daf576000806000806000806000806000809950995099509950995099509950995099509950610ec7565b60008060008d815260200190815260200160002090508060000160009054906101000a900473ffffffffffffffffffffffffffffffffffffffff168160010160009054906101000a900473ffffffffffffffffffffffffffffffffffffffff1682600201548360030160009054906101000a900473ffffffffffffffffffffffffffffffffffffffff1684600401548560050160009054906101000a900473ffffffffffffffffffffffffffffffffffffffff1686600601548760070160009054906101000a900460ff168860070160019054906101000a900460ff168960070160029054906101000a900473ffffffffffffffffffffffffffffffffffffffff169a509a509a509a509a509a509a509a509a509a50505b9193959799509193959799565b60008073ffffffffffffffffffffffffffffffffffffffff1660008084815260200190815260200160002060000160009054906101000a900473ffffffffffffffffffffffffffffffffffffffff1673ffffffffffffffffffffffffffffffffffffffff1614159050919050565b600080fd5b6000819050919050565b610f5a81610f47565b8114610f6557600080fd5b50565b600081359050610f7781610f51565b92915050565b600073ffffffffffffffffffffffffffffffffffffffff82169050919050565b6000610fa882610f7d565b9050919050565b610fb881610f9d565b8114610fc357600080fd5b50565b600081359050610fd581610faf565b92915050565b60008060008060008060c08789031215610ff857610ff7610f42565b5b600061100689828a01610f68565b965050602061101789828a01610fc6565b955050604061102889828a01610f68565b945050606061103989828a01610fc6565b935050608061104a89828a01610f68565b92505060a061105b89828a01610fc6565b9150509295509295509295565b6000819050919050565b61107b81611068565b82525050565b60006020820190506110966000830184611072565b92915050565b6110a581611068565b81146110b057600080fd5b50565b6000813590506110c28161109c565b92915050565b600080604083850312156110df576110de610f42565b5b60006110ed858286016110b3565b92505060206110fe85828601610fc6565b9150509250929050565b60008115159050919050565b61111d81611108565b82525050565b60006020820190506111386000830184611114565b92915050565b60006020828403121561115457611153610f42565b5b6000611162848285016110b3565b91505092915050565b61117481610f9d565b82525050565b61118381610f47565b82525050565b60006101408201905061119f600083018d61116b565b6111ac602083018c61116b565b6111b9604083018b61117a565b6111c6606083018a61116b565b6111d3608083018961117a565b6111e060a083018861116b565b6111ed60c083018761117a565b6111fa60e0830186611114565b611208610100830185611114565b61121661012083018461116b565b9b9a5050505050505050505050565b600082825260208201905092915050565b7f746f6b656e735472616e7366657261626c653a20746f6b656e20616d6f756e7460008201527f206d757374206265203e20300000000000000000000000000000000000000000602082015250565b6000611292602c83611225565b915061129d82611236565b604082019050919050565b600060208201905081810360008301526112c181611285565b9050919050565b60006040820190506112dd600083018561116b565b6112ea602083018461116b565b9392505050565b60008151905061130081610f51565b92915050565b60006020828403121561131c5761131b610f42565b5b600061132a848285016112f1565b91505092915050565b7f746f6b656e735472616e7366657261626c653a20746f6b656e20616c6c6f776160008201527f6e6365206d757374206265203e3d20616d6f756e740000000000000000000000602082015250565b600061138f603583611225565b915061139a82611333565b604082019050919050565b600060208201905081810360008301526113be81611382565b9050919050565b7f66757475726554696d656c6f636b3a2074696d656c6f636b2074696d65206d7560008201527f737420626520696e207468652066757475726500000000000000000000000000602082015250565b6000611421603383611225565b915061142c826113c5565b604082019050919050565b6000602082019050818103600083015261145081611414565b9050919050565b7f6e6577436f6e74726163743a20746f6b656e20616d6f756e74206d757374206260008201527f65203e2030000000000000000000000000000000000000000000000000000000602082015250565b60006114b3602583611225565b91506114be82611457565b604082019050919050565b600060208201905081810360008301526114e2816114a6565b9050919050565b60008160601b9050919050565b6000611501826114e9565b9050919050565b6000611513826114f6565b9050919050565b61152b61152682610f9d565b611508565b82525050565b6000819050919050565b61154c61154782610f47565b611531565b82525050565b600061155e828a61151a565b60148201915061156e828961153b565b60208201915061157e828861151a565b60148201915061158e828761153b565b60208201915061159e828661151a565b6014820191506115ae828561153b565b6020820191506115be828461151a565b60148201915081905098975050505050505050565b600081519050919050565b600081905092915050565b60005b838110156116075780820151818401526020810190506115ec565b83811115611616576000848401525b50505050565b6000611627826115d3565b61163181856115de565b93506116418185602086016115e9565b80840191505092915050565b6000611659828461161c565b915081905092915050565b6000815190506116738161109c565b92915050565b60006020828403121561168f5761168e610f42565b5b600061169d84828501611664565b91505092915050565b7f6e6577436f6e74726163743a20436f6e747261637420616c726561647920657860008201527f6973747300000000000000000000000000000000000000000000000000000000602082015250565b6000611702602483611225565b915061170d826116a6565b604082019050919050565b60006020820190508181036000830152611731816116f5565b9050919050565b600060608201905061174d600083018661116b565b61175a602083018561116b565b611767604083018461117a565b949350505050565b61177881611108565b811461178357600080fd5b50565b6000815190506117958161176f565b92915050565b6000602082840312156117b1576117b0610f42565b5b60006117bf84828501611786565b91505092915050565b7f7472616e7366657246726f6d2073656e64657220746f2074686973206661696c60008201527f6564000000000000000000000000000000000000000000000000000000000000602082015250565b6000611824602283611225565b915061182f826117c8565b604082019050919050565b6000602082019050818103600083015261185381611817565b9050919050565b600060608201905061186f600083018661116b565b61187c602083018561116b565b611889604083018461116b565b949350505050565b7f636f6e74726163744578697374733a20636f6e7472616374496420646f65732060008201527f6e6f742065786973740000000000000000000000000000000000000000000000602082015250565b60006118ed602983611225565b91506118f882611891565b604082019050919050565b6000602082019050818103600083015261191c816118e0565b9050919050565b7f776974686472617761626c653a20616c72656164792077697468647261776e00600082015250565b6000611959601f83611225565b915061196482611923565b602082019050919050565b600060208201905081810360008301526119888161194c565b9050919050565b7f776974686472617761626c653a2074696d656c6f636b20657870697265640000600082015250565b60006119c5601e83611225565b91506119d08261198f565b602082019050919050565b600060208201905081810360008301526119f4816119b8565b9050919050565b7f77697468647261773a206d7573742062652063616c6c6564206279207468652060008201527f726563656976657220636f6e7472616374000000000000000000000000000000602082015250565b6000611a57603183611225565b9150611a62826119fb565b604082019050919050565b60006020820190508181036000830152611a8681611a4a565b9050919050565b6000604082019050611aa2600083018561116b565b611aaf602083018461117a565b9392505050565b7f726566756e6461626c653a206e6f742073656e64657200000000000000000000600082015250565b6000611aec601683611225565b9150611af782611ab6565b602082019050919050565b60006020820190508181036000830152611b1b81611adf565b9050919050565b7f726566756e6461626c653a20616c726561647920726566756e64656400000000600082015250565b6000611b58601c83611225565b9150611b6382611b22565b602082019050919050565b60006020820190508181036000830152611b8781611b4b565b9050919050565b7f726566756e6461626c653a20616c72656164792077697468647261776e000000600082015250565b6000611bc4601d83611225565b9150611bcf82611b8e565b602082019050919050565b60006020820190508181036000830152611bf381611bb7565b9050919050565b7f726566756e6461626c653a2074696d656c6f636b206e6f74207965742070617360008201527f7365640000000000000000000000000000000000000000000000000000000000602082015250565b6000611c56602383611225565b9150611c6182611bfa565b604082019050919050565b60006020820190508181036000830152611c8581611c49565b905091905056fea26469706673582212200601512f629f392dff748058c1c5081950ddbee6377735501df1eb301150aacc64736f6c634300080d0033",
  "linkReferences": {},
  "deployedLinkReferences": {}
}