{
  "_format": "hh-sol-artifact-1",
  "contractName": "ERC20PredefinedAtomicSwap",
  "sourceName": "contracts/ERC20PredefinedAtomicSwap.sol",
  "abi": [
    {
      "anonymous": false,
      "inputs": [
        {
          "indexed": true,
          "internalType": "bytes32",
          "name": "contractId",
          "type": "bytes32"
        },
        {
          "indexed": true,
          "internalType": "address",
          "name": "sender",
          "type": "address"
        },
        {
          "indexed": false,
          "internalType": "address",
          "name": "senderToken",
          "type": "address"
        },
        {
          "indexed": false,
          "internalType": "uint256",
          "name": "senderAmount",
          "type": "uint256"
        },
        {
          "indexed": false,
          "internalType": "address",
          "name": "receiverToken",
          "type": "address"
        },
        {
          "indexed": false,
          "internalType": "uint256",
          "name": "receiverAmount",
          "type": "uint256"
        }
      ],
      "name": "HTLCERC20Created",
      "type": "event"
    },
    {
      "anonymous": false,
      "inputs": [
        {
          "indexed": true,
          "internalType": "bytes32",
          "name": "contractId",
          "type": "bytes32"
        }
      ],
      "name": "HTLCERC20Refunded",
      "type": "event"
    },
    {
      "anonymous": false,
      "inputs": [
        {
          "indexed": true,
          "internalType": "bytes32",
          "name": "contractId",
          "type": "bytes32"
        }
      ],
      "name": "HTLCERC20Withdrawn",
      "type": "event"
    },
    {
      "inputs": [
        {
          "internalType": "bytes32",
          "name": "_contractId",
          "type": "bytes32"
        }
      ],
      "name": "getContract",
      "outputs": [
        {
          "internalType": "address",
          "name": "sender",
          "type": "address"
        },
        {
          "internalType": "address",
          "name": "senderToken",
          "type": "address"
        },
        {
          "internalType": "uint256",
          "name": "senderAmount",
          "type": "uint256"
        },
        {
          "internalType": "address",
          "name": "receiverToken",
          "type": "address"
        },
        {
          "internalType": "uint256",
          "name": "receiverAmount",
          "type": "uint256"
        },
        {
          "internalType": "uint256",
          "name": "timelock",
          "type": "uint256"
        },
        {
          "internalType": "bool",
          "name": "withdrawn",
          "type": "bool"
        },
        {
          "internalType": "bool",
          "name": "refunded",
          "type": "bool"
        },
        {
          "internalType": "address",
          "name": "receiver",
          "type": "address"
        },
        {
          "internalType": "bytes32",
          "name": "counterContractId",
          "type": "bytes32"
        }
      ],
      "stateMutability": "view",
      "type": "function"
    },
    {
      "inputs": [
        {
          "internalType": "uint256",
          "name": "_timelock",
          "type": "uint256"
        },
        {
          "internalType": "address",
          "name": "_senderToken",
          "type": "address"
        },
        {
          "internalType": "uint256",
          "name": "_senderAmount",
          "type": "uint256"
        },
        {
          "internalType": "address",
          "name": "_receiverToken",
          "type": "address"
        },
        {
          "internalType": "uint256",
          "name": "_receiverAmount",
          "type": "uint256"
        }
      ],
      "name": "newContract",
      "outputs": [
        {
          "internalType": "bytes32",
          "name": "contractId",
          "type": "bytes32"
        }
      ],
      "stateMutability": "nonpayable",
      "type": "function"
    },
    {
      "inputs": [
        {
          "internalType": "bytes32",
          "name": "_contractId",
          "type": "bytes32"
        }
      ],
      "name": "refund",
      "outputs": [
        {
          "internalType": "bool",
          "name": "",
          "type": "bool"
        }
      ],
      "stateMutability": "nonpayable",
      "type": "function"
    },
    {
      "inputs": [
        {
          "internalType": "bytes32",
          "name": "_contractId",
          "type": "bytes32"
        }
      ],
      "name": "withdraw",
      "outputs": [
        {
          "internalType": "bytes32",
          "name": "counterContractId",
          "type": "bytes32"
        }
      ],
      "stateMutability": "nonpayable",
      "type": "function"
    }
  ],
  "bytecode": "0x608060405234801561001057600080fd5b506121b6806100206000396000f3fe608060405234801561001057600080fd5b506004361061004c5760003560e01c80637249fbb6146100515780637493954d146100815780638e19899e146100b1578063e16c7d98146100e1575b600080fd5b61006b600480360381019061006691906114c6565b61011a565b604051610078919061150e565b60405180910390f35b61009b600480360381019061009691906115bd565b61046a565b6040516100a89190611647565b60405180910390f35b6100cb60048036038101906100c691906114c6565b610a1e565b6040516100d89190611647565b60405180910390f35b6100fb60048036038101906100f691906114c6565b6112c7565b6040516101119a99989796959493929190611680565b60405180910390f35b6000816101268161141d565b610165576040517f08c379a000000000000000000000000000000000000000000000000000000000815260040161015c9061179f565b60405180910390fd5b823373ffffffffffffffffffffffffffffffffffffffff1660008083815260200190815260200160002060000160009054906101000a900473ffffffffffffffffffffffffffffffffffffffff1673ffffffffffffffffffffffffffffffffffffffff1614610209576040517f08c379a00000000000000000000000000000000000000000000000000000000081526004016102009061180b565b60405180910390fd5b6000151560008083815260200190815260200160002060060160019054906101000a900460ff16151514610272576040517f08c379a000000000000000000000000000000000000000000000000000000000815260040161026990611877565b60405180910390fd5b6000151560008083815260200190815260200160002060060160009054906101000a900460ff161515146102db576040517f08c379a00000000000000000000000000000000000000000000000000000000081526004016102d2906118e3565b60405180910390fd5b42600080838152602001908152602001600020600501541115610333576040517f08c379a000000000000000000000000000000000000000000000000000000000815260040161032a90611975565b60405180910390fd5b6000806000868152602001908152602001600020905060018160060160016101000a81548160ff0219169083151502179055508060010160009054906101000a900473ffffffffffffffffffffffffffffffffffffffff1673ffffffffffffffffffffffffffffffffffffffff1663a9059cbb8260000160009054906101000a900473ffffffffffffffffffffffffffffffffffffffff1683600201546040518363ffffffff1660e01b81526004016103ed929190611995565b6020604051808303816000875af115801561040c573d6000803e3d6000fd5b505050506040513d601f19601f8201168201806040525081019061043091906119ea565b50847f25c0cb42002f469b8c07222f77709effe07c20669210af3511c8a0eaf671006660405160405180910390a260019350505050919050565b6000843385600081116104b2576040517f08c379a00000000000000000000000000000000000000000000000000000000081526004016104a990611a89565b60405180910390fd5b808373ffffffffffffffffffffffffffffffffffffffff1663dd62ed3e84306040518363ffffffff1660e01b81526004016104ee929190611aa9565b602060405180830381865afa15801561050b573d6000803e3d6000fd5b505050506040513d601f19601f8201168201806040525081019061052f9190611ae7565b1015610570576040517f08c379a000000000000000000000000000000000000000000000000000000000815260040161056790611b86565b60405180910390fd5b884281116105b3576040517f08c379a00000000000000000000000000000000000000000000000000000000081526004016105aa90611c18565b60405180910390fd5b600086116105f6576040517f08c379a00000000000000000000000000000000000000000000000000000000081526004016105ed90611caa565b60405180910390fd5b6002338b8b8b8b8b60405160200161061396959493929190611d33565b60405160208183030381529060405260405161062f9190611e1d565b602060405180830381855afa15801561064c573d6000803e3d6000fd5b5050506040513d601f19601f8201168201806040525081019061066f9190611e49565b945061067a8561141d565b156106ba576040517f08c379a00000000000000000000000000000000000000000000000000000000081526004016106b190611ee8565b60405180910390fd5b8873ffffffffffffffffffffffffffffffffffffffff166323b872dd33308b6040518463ffffffff1660e01b81526004016106f793929190611f08565b6020604051808303816000875af1158015610716573d6000803e3d6000fd5b505050506040513d601f19601f8201168201806040525081019061073a91906119ea565b610779576040517f08c379a000000000000000000000000000000000000000000000000000000000815260040161077090611fb1565b60405180910390fd5b6040518061014001604052803373ffffffffffffffffffffffffffffffffffffffff1681526020018a73ffffffffffffffffffffffffffffffffffffffff1681526020018981526020018873ffffffffffffffffffffffffffffffffffffffff1681526020018781526020018b8152602001600015158152602001600015158152602001600073ffffffffffffffffffffffffffffffffffffffff1681526020016000801b81525060008087815260200190815260200160002060008201518160000160006101000a81548173ffffffffffffffffffffffffffffffffffffffff021916908373ffffffffffffffffffffffffffffffffffffffff16021790555060208201518160010160006101000a81548173ffffffffffffffffffffffffffffffffffffffff021916908373ffffffffffffffffffffffffffffffffffffffff1602179055506040820151816002015560608201518160030160006101000a81548173ffffffffffffffffffffffffffffffffffffffff021916908373ffffffffffffffffffffffffffffffffffffffff1602179055506080820151816004015560a0820151816005015560c08201518160060160006101000a81548160ff02191690831515021790555060e08201518160060160016101000a81548160ff0219169083151502179055506101008201518160060160026101000a81548173ffffffffffffffffffffffffffffffffffffffff021916908373ffffffffffffffffffffffffffffffffffffffff16021790555061012082015181600701559050503373ffffffffffffffffffffffffffffffffffffffff16857ff6fb8f05cf4e98704b0df0dada7f9769cb4a1dae8ac91682e4139cd41083a2f48b8b8b8b604051610a099493929190611fd1565b60405180910390a35050505095945050505050565b600081610a2a8161141d565b610a69576040517f08c379a0000000000000000000000000000000000000000000000000000000008152600401610a609061179f565b60405180910390fd5b826000151560008083815260200190815260200160002060060160009054906101000a900460ff16151514610ad3576040517f08c379a0000000000000000000000000000000000000000000000000000000008152600401610aca90612062565b60405180910390fd5b426000808381526020019081526020016000206005015411610b2a576040517f08c379a0000000000000000000000000000000000000000000000000000000008152600401610b21906120ce565b60405180910390fd5b6000806000868152602001908152602001600020905080600401548160030160009054906101000a900473ffffffffffffffffffffffffffffffffffffffff1673ffffffffffffffffffffffffffffffffffffffff1663dd62ed3e33306040518363ffffffff1660e01b8152600401610ba4929190611aa9565b602060405180830381865afa158015610bc1573d6000803e3d6000fd5b505050506040513d601f19601f82011682018060405250810190610be59190611ae7565b1015610c26576040517f08c379a0000000000000000000000000000000000000000000000000000000008152600401610c1d90611b86565b60405180910390fd5b8060030160009054906101000a900473ffffffffffffffffffffffffffffffffffffffff1673ffffffffffffffffffffffffffffffffffffffff166323b872dd333084600401546040518463ffffffff1660e01b8152600401610c8b93929190611f08565b6020604051808303816000875af1158015610caa573d6000803e3d6000fd5b505050506040513d601f19601f82011682018060405250810190610cce91906119ea565b610d0d576040517f08c379a0000000000000000000000000000000000000000000000000000000008152600401610d0490612160565b60405180910390fd5b60023382600501548360030160009054906101000a900473ffffffffffffffffffffffffffffffffffffffff1684600401548560010160009054906101000a900473ffffffffffffffffffffffffffffffffffffffff168660020154604051602001610d7e96959493929190611d33565b604051602081830303815290604052604051610d9a9190611e1d565b602060405180830381855afa158015610db7573d6000803e3d6000fd5b5050506040513d601f19601f82011682018060405250810190610dda9190611e49565b93506040518061014001604052803373ffffffffffffffffffffffffffffffffffffffff1681526020018260030160009054906101000a900473ffffffffffffffffffffffffffffffffffffffff1673ffffffffffffffffffffffffffffffffffffffff168152602001826004015481526020018260010160009054906101000a900473ffffffffffffffffffffffffffffffffffffffff1673ffffffffffffffffffffffffffffffffffffffff16815260200182600201548152602001826005015481526020016001151581526020016000151581526020018260000160009054906101000a900473ffffffffffffffffffffffffffffffffffffffff1673ffffffffffffffffffffffffffffffffffffffff1681526020018681525060008086815260200190815260200160002060008201518160000160006101000a81548173ffffffffffffffffffffffffffffffffffffffff021916908373ffffffffffffffffffffffffffffffffffffffff16021790555060208201518160010160006101000a81548173ffffffffffffffffffffffffffffffffffffffff021916908373ffffffffffffffffffffffffffffffffffffffff1602179055506040820151816002015560608201518160030160006101000a81548173ffffffffffffffffffffffffffffffffffffffff021916908373ffffffffffffffffffffffffffffffffffffffff1602179055506080820151816004015560a0820151816005015560c08201518160060160006101000a81548160ff02191690831515021790555060e08201518160060160016101000a81548160ff0219169083151502179055506101008201518160060160026101000a81548173ffffffffffffffffffffffffffffffffffffffff021916908373ffffffffffffffffffffffffffffffffffffffff1602179055506101208201518160070155905050338160060160026101000a81548173ffffffffffffffffffffffffffffffffffffffff021916908373ffffffffffffffffffffffffffffffffffffffff16021790555083816007018190555060018160060160006101000a81548160ff0219169083151502179055508060010160009054906101000a900473ffffffffffffffffffffffffffffffffffffffff1673ffffffffffffffffffffffffffffffffffffffff1663a9059cbb8260060160029054906101000a900473ffffffffffffffffffffffffffffffffffffffff1683600201546040518363ffffffff1660e01b8152600401611183929190611995565b6020604051808303816000875af11580156111a2573d6000803e3d6000fd5b505050506040513d601f19601f820116820180604052508101906111c691906119ea565b508060030160009054906101000a900473ffffffffffffffffffffffffffffffffffffffff1673ffffffffffffffffffffffffffffffffffffffff1663a9059cbb8260000160009054906101000a900473ffffffffffffffffffffffffffffffffffffffff1683600401546040518363ffffffff1660e01b815260040161124e929190611995565b6020604051808303816000875af115801561126d573d6000803e3d6000fd5b505050506040513d601f19601f8201168201806040525081019061129191906119ea565b50837f90b949193e894c5c3d695af213116f68e6d6d74c408b46f99eebacab52bff6be60405160405180910390a2505050919050565b600080600080600080600080600080600015156112e38c61141d565b151503611318576000806000806000806000806000808060001b90509950995099509950995099509950995099509950611410565b60008060008d815260200190815260200160002090508060000160009054906101000a900473ffffffffffffffffffffffffffffffffffffffff168160010160009054906101000a900473ffffffffffffffffffffffffffffffffffffffff1682600201548360030160009054906101000a900473ffffffffffffffffffffffffffffffffffffffff16846004015485600501548660060160009054906101000a900460ff168760060160019054906101000a900460ff168860060160029054906101000a900473ffffffffffffffffffffffffffffffffffffffff1689600701549a509a509a509a509a509a509a509a509a509a50505b9193959799509193959799565b60008073ffffffffffffffffffffffffffffffffffffffff1660008084815260200190815260200160002060000160009054906101000a900473ffffffffffffffffffffffffffffffffffffffff1673ffffffffffffffffffffffffffffffffffffffff1614159050919050565b600080fd5b6000819050919050565b6114a381611490565b81146114ae57600080fd5b50565b6000813590506114c08161149a565b92915050565b6000602082840312156114dc576114db61148b565b5b60006114ea848285016114b1565b91505092915050565b60008115159050919050565b611508816114f3565b82525050565b600060208201905061152360008301846114ff565b92915050565b6000819050919050565b61153c81611529565b811461154757600080fd5b50565b60008135905061155981611533565b92915050565b600073ffffffffffffffffffffffffffffffffffffffff82169050919050565b600061158a8261155f565b9050919050565b61159a8161157f565b81146115a557600080fd5b50565b6000813590506115b781611591565b92915050565b600080600080600060a086880312156115d9576115d861148b565b5b60006115e78882890161154a565b95505060206115f8888289016115a8565b94505060406116098882890161154a565b935050606061161a888289016115a8565b925050608061162b8882890161154a565b9150509295509295909350565b61164181611490565b82525050565b600060208201905061165c6000830184611638565b92915050565b61166b8161157f565b82525050565b61167a81611529565b82525050565b600061014082019050611696600083018d611662565b6116a3602083018c611662565b6116b0604083018b611671565b6116bd606083018a611662565b6116ca6080830189611671565b6116d760a0830188611671565b6116e460c08301876114ff565b6116f160e08301866114ff565b6116ff610100830185611662565b61170d610120830184611638565b9b9a5050505050505050505050565b600082825260208201905092915050565b7f636f6e74726163744578697374733a20636f6e7472616374496420646f65732060008201527f6e6f742065786973740000000000000000000000000000000000000000000000602082015250565b600061178960298361171c565b91506117948261172d565b604082019050919050565b600060208201905081810360008301526117b88161177c565b9050919050565b7f726566756e6461626c653a206e6f742073656e64657200000000000000000000600082015250565b60006117f560168361171c565b9150611800826117bf565b602082019050919050565b60006020820190508181036000830152611824816117e8565b9050919050565b7f726566756e6461626c653a20616c726561647920726566756e64656400000000600082015250565b6000611861601c8361171c565b915061186c8261182b565b602082019050919050565b6000602082019050818103600083015261189081611854565b9050919050565b7f726566756e6461626c653a20616c72656164792077697468647261776e000000600082015250565b60006118cd601d8361171c565b91506118d882611897565b602082019050919050565b600060208201905081810360008301526118fc816118c0565b9050919050565b7f726566756e6461626c653a2074696d656c6f636b206e6f74207965742070617360008201527f7365640000000000000000000000000000000000000000000000000000000000602082015250565b600061195f60238361171c565b915061196a82611903565b604082019050919050565b6000602082019050818103600083015261198e81611952565b9050919050565b60006040820190506119aa6000830185611662565b6119b76020830184611671565b9392505050565b6119c7816114f3565b81146119d257600080fd5b50565b6000815190506119e4816119be565b92915050565b600060208284031215611a00576119ff61148b565b5b6000611a0e848285016119d5565b91505092915050565b7f746f6b656e735472616e7366657261626c653a20746f6b656e20616d6f756e7460008201527f206d757374206265203e20300000000000000000000000000000000000000000602082015250565b6000611a73602c8361171c565b9150611a7e82611a17565b604082019050919050565b60006020820190508181036000830152611aa281611a66565b9050919050565b6000604082019050611abe6000830185611662565b611acb6020830184611662565b9392505050565b600081519050611ae181611533565b92915050565b600060208284031215611afd57611afc61148b565b5b6000611b0b84828501611ad2565b91505092915050565b7f746f6b656e735472616e7366657261626c653a20746f6b656e20616c6c6f776160008201527f6e6365206d757374206265203e3d20616d6f756e740000000000000000000000602082015250565b6000611b7060358361171c565b9150611b7b82611b14565b604082019050919050565b60006020820190508181036000830152611b9f81611b63565b9050919050565b7f66757475726554696d656c6f636b3a2074696d656c6f636b2074696d65206d7560008201527f737420626520696e207468652066757475726500000000000000000000000000602082015250565b6000611c0260338361171c565b9150611c0d82611ba6565b604082019050919050565b60006020820190508181036000830152611c3181611bf5565b9050919050565b7f6e6577436f6e74726163743a20746f6b656e20616d6f756e74206d757374206260008201527f65203e2030000000000000000000000000000000000000000000000000000000602082015250565b6000611c9460258361171c565b9150611c9f82611c38565b604082019050919050565b60006020820190508181036000830152611cc381611c87565b9050919050565b60008160601b9050919050565b6000611ce282611cca565b9050919050565b6000611cf482611cd7565b9050919050565b611d0c611d078261157f565b611ce9565b82525050565b6000819050919050565b611d2d611d2882611529565b611d12565b82525050565b6000611d3f8289611cfb565b601482019150611d4f8288611d1c565b602082019150611d5f8287611cfb565b601482019150611d6f8286611d1c565b602082019150611d7f8285611cfb565b601482019150611d8f8284611d1c565b602082019150819050979650505050505050565b600081519050919050565b600081905092915050565b60005b83811015611dd7578082015181840152602081019050611dbc565b83811115611de6576000848401525b50505050565b6000611df782611da3565b611e018185611dae565b9350611e11818560208601611db9565b80840191505092915050565b6000611e298284611dec565b915081905092915050565b600081519050611e438161149a565b92915050565b600060208284031215611e5f57611e5e61148b565b5b6000611e6d84828501611e34565b91505092915050565b7f6e6577436f6e74726163743a20436f6e747261637420616c726561647920657860008201527f6973747300000000000000000000000000000000000000000000000000000000602082015250565b6000611ed260248361171c565b9150611edd82611e76565b604082019050919050565b60006020820190508181036000830152611f0181611ec5565b9050919050565b6000606082019050611f1d6000830186611662565b611f2a6020830185611662565b611f376040830184611671565b949350505050565b7f7472616e7366657246726f6d2073656e64657220746f2074686973206661696c60008201527f6564000000000000000000000000000000000000000000000000000000000000602082015250565b6000611f9b60228361171c565b9150611fa682611f3f565b604082019050919050565b60006020820190508181036000830152611fca81611f8e565b9050919050565b6000608082019050611fe66000830187611662565b611ff36020830186611671565b6120006040830185611662565b61200d6060830184611671565b95945050505050565b7f776974686472617761626c653a20616c72656164792077697468647261776e00600082015250565b600061204c601f8361171c565b915061205782612016565b602082019050919050565b6000602082019050818103600083015261207b8161203f565b9050919050565b7f776974686472617761626c653a2074696d656c6f636b20657870697265640000600082015250565b60006120b8601e8361171c565b91506120c382612082565b602082019050919050565b600060208201905081810360008301526120e7816120ab565b9050919050565b7f77697468647261773a207472616e7366657246726f6d2073656e64657220746f60008201527f2074686973206661696c65640000000000000000000000000000000000000000602082015250565b600061214a602c8361171c565b9150612155826120ee565b604082019050919050565b600060208201905081810360008301526121798161213d565b905091905056fea26469706673582212205b4565fb5103c6fc61dde334a6e382190418f834a586b5f67df1f5107b2326da64736f6c634300080d0033",
  "linkReferences": {},
  "deployedLinkReferences": {}
}