{
  "_format": "hh-sol-artifact-1",
  "contractName": "ERC20AtomicSwapReceiver",
  "sourceName": "contracts/ERC20AtomicSwapReceiver.sol",
  "abi": [
    {
      "anonymous": false,
      "inputs": [
        {
          "indexed": true,
          "internalType": "bytes32",
          "name": "contractId",
          "type": "bytes32"
        }
      ],
      "name": "HTLCERC20Refunded",
      "type": "event"
    },
    {
      "anonymous": false,
      "inputs": [
        {
          "indexed": true,
          "internalType": "bytes32",
          "name": "contractId",
          "type": "bytes32"
        }
      ],
      "name": "HTLCERC20WithdrawalCompleted",
      "type": "event"
    },
    {
      "anonymous": false,
      "inputs": [
        {
          "indexed": true,
          "internalType": "bytes32",
          "name": "contractId",
          "type": "bytes32"
        }
      ],
      "name": "HTLCERC20WithdrawalInitiated",
      "type": "event"
    },
    {
      "inputs": [
        {
          "internalType": "bytes32",
          "name": "_counterContractId",
          "type": "bytes32"
        }
      ],
      "name": "finishWithdrawal",
      "outputs": [
        {
          "internalType": "bool",
          "name": "",
          "type": "bool"
        }
      ],
      "stateMutability": "nonpayable",
      "type": "function"
    },
    {
      "inputs": [
        {
          "internalType": "bytes32",
          "name": "_contractId",
          "type": "bytes32"
        }
      ],
      "name": "getCounterContract",
      "outputs": [
        {
          "internalType": "address",
          "name": "senderContract",
          "type": "address"
        },
        {
          "internalType": "bool",
          "name": "confirmed",
          "type": "bool"
        },
        {
          "internalType": "bool",
          "name": "refunded",
          "type": "bool"
        },
        {
          "internalType": "address",
          "name": "receiver",
          "type": "address"
        }
      ],
      "stateMutability": "view",
      "type": "function"
    },
    {
      "inputs": [
        {
          "internalType": "bytes32",
          "name": "_contractId",
          "type": "bytes32"
        }
      ],
      "name": "refund",
      "outputs": [
        {
          "internalType": "bool",
          "name": "",
          "type": "bool"
        }
      ],
      "stateMutability": "nonpayable",
      "type": "function"
    },
    {
      "inputs": [
        {
          "internalType": "address",
          "name": "_senderContract",
          "type": "address"
        },
        {
          "internalType": "bytes32",
          "name": "_counterContractId",
          "type": "bytes32"
        }
      ],
      "name": "startWithdrawal",
      "outputs": [
        {
          "internalType": "bool",
          "name": "",
          "type": "bool"
        }
      ],
      "stateMutability": "nonpayable",
      "type": "function"
    }
  ],
  "bytecode": "0x608060405234801561001057600080fd5b50611a9f806100206000396000f3fe608060405234801561001057600080fd5b506004361061004c5760003560e01c8063484d0e52146100515780637249fbb614610084578063986c4226146100b4578063ace302b4146100e4575b600080fd5b61006b60048036038101906100669190610eb8565b610114565b60405161007b9493929190610f41565b60405180910390f35b61009e60048036038101906100999190610eb8565b6101d6565b6040516100ab9190610f86565b60405180910390f35b6100ce60048036038101906100c99190610fcd565b610520565b6040516100db9190610f86565b60405180910390f35b6100fe60048036038101906100f99190610eb8565b610a64565b60405161010b9190610f86565b60405180910390f35b6000806000806000151561012786610e0f565b1515036101415760008060008093509350935093506101cf565b600080600087815260200190815260200160002090508060000160009054906101000a900473ffffffffffffffffffffffffffffffffffffffff168160000160149054906101000a900460ff168260000160159054906101000a900460ff168360010160009054906101000a900473ffffffffffffffffffffffffffffffffffffffff169450945094509450505b9193509193565b6000816101e281610e0f565b610221576040517f08c379a000000000000000000000000000000000000000000000000000000000815260040161021890611090565b60405180910390fd5b60008060008581526020019081526020016000209050600015158160000160149054906101000a900460ff1615151461028f576040517f08c379a0000000000000000000000000000000000000000000000000000000008152600401610286906110fc565b60405180910390fd5b600015158160000160159054906101000a900460ff161515146102e7576040517f08c379a00000000000000000000000000000000000000000000000000000000081526004016102de90611168565b60405180910390fd5b6000806000808460000160009054906101000a900473ffffffffffffffffffffffffffffffffffffffff1673ffffffffffffffffffffffffffffffffffffffff1663e16c7d98896040518263ffffffff1660e01b815260040161034a9190611197565b61014060405180830381865afa158015610368573d6000803e3d6000fd5b505050506040513d601f19601f8201168201806040525081019061038c9190611229565b505097509750509650965050505060001515811515146103e1576040517f08c379a00000000000000000000000000000000000000000000000000000000081526004016103d8906110fc565b60405180910390fd5b42821115610424576040517f08c379a000000000000000000000000000000000000000000000000000000000815260040161041b9061137a565b60405180910390fd5b60018560000160156101000a81548160ff0219169083151502179055508373ffffffffffffffffffffffffffffffffffffffff1663a9059cbb8660010160009054906101000a900473ffffffffffffffffffffffffffffffffffffffff16856040518363ffffffff1660e01b81526004016104a09291906113a9565b6020604051808303816000875af11580156104bf573d6000803e3d6000fd5b505050506040513d601f19601f820116820180604052508101906104e391906113d2565b50877f25c0cb42002f469b8c07222f77709effe07c20669210af3511c8a0eaf671006660405160405180910390a260019650505050505050919050565b60008161052c81610e0f565b1561056c576040517f08c379a000000000000000000000000000000000000000000000000000000000815260040161056390611471565b60405180910390fd5b60008060008060008873ffffffffffffffffffffffffffffffffffffffff1663e16c7d98896040518263ffffffff1660e01b81526004016105ad9190611197565b61014060405180830381865afa1580156105cb573d6000803e3d6000fd5b505050506040513d601f19601f820116820180604052508101906105ef9190611229565b5050975097509750975097505050503073ffffffffffffffffffffffffffffffffffffffff168373ffffffffffffffffffffffffffffffffffffffff161461066c576040517f08c379a000000000000000000000000000000000000000000000000000000000815260040161066390611503565b60405180910390fd5b60001515811515146106b3576040517f08c379a00000000000000000000000000000000000000000000000000000000081526004016106aa90611595565b60405180910390fd5b4282116106f5576040517f08c379a00000000000000000000000000000000000000000000000000000000081526004016106ec90611627565b60405180910390fd5b838573ffffffffffffffffffffffffffffffffffffffff1663dd62ed3e33306040518363ffffffff1660e01b8152600401610731929190611647565b602060405180830381865afa15801561074e573d6000803e3d6000fd5b505050506040513d601f19601f820116820180604052508101906107729190611670565b10156107b3576040517f08c379a00000000000000000000000000000000000000000000000000000000081526004016107aa9061170f565b60405180910390fd5b8473ffffffffffffffffffffffffffffffffffffffff166323b872dd3330876040518463ffffffff1660e01b81526004016107f09392919061172f565b6020604051808303816000875af115801561080f573d6000803e3d6000fd5b505050506040513d601f19601f8201168201806040525081019061083391906113d2565b610872576040517f08c379a0000000000000000000000000000000000000000000000000000000008152600401610869906117d8565b60405180910390fd5b60405180608001604052808a73ffffffffffffffffffffffffffffffffffffffff1681526020016000151581526020016000151581526020013373ffffffffffffffffffffffffffffffffffffffff168152506000808a815260200190815260200160002060008201518160000160006101000a81548173ffffffffffffffffffffffffffffffffffffffff021916908373ffffffffffffffffffffffffffffffffffffffff16021790555060208201518160000160146101000a81548160ff02191690831515021790555060408201518160000160156101000a81548160ff02191690831515021790555060608201518160010160006101000a81548173ffffffffffffffffffffffffffffffffffffffff021916908373ffffffffffffffffffffffffffffffffffffffff1602179055509050508873ffffffffffffffffffffffffffffffffffffffff16631b258d5089336040518363ffffffff1660e01b81526004016109e39291906117f8565b6020604051808303816000875af1158015610a02573d6000803e3d6000fd5b505050506040513d601f19601f82011682018060405250810190610a2691906113d2565b50877fe59f6ed7e6aa917139f70a9ff46948c557c38f09881a8649fd3f68e29689b82e60405160405180910390a26001965050505050505092915050565b600081610a7081610e0f565b610aaf576040517f08c379a0000000000000000000000000000000000000000000000000000000008152600401610aa690611090565b60405180910390fd5b60008060008581526020019081526020016000209050600015158160000160149054906101000a900460ff16151514610b1d576040517f08c379a0000000000000000000000000000000000000000000000000000000008152600401610b1490611893565b60405180910390fd5b600015158160000160159054906101000a900460ff16151514610b75576040517f08c379a0000000000000000000000000000000000000000000000000000000008152600401610b6c90611925565b60405180910390fd5b6000806000808460000160009054906101000a900473ffffffffffffffffffffffffffffffffffffffff1673ffffffffffffffffffffffffffffffffffffffff1663e16c7d98896040518263ffffffff1660e01b8152600401610bd89190611197565b61014060405180830381865afa158015610bf6573d6000803e3d6000fd5b505050506040513d601f19601f82011682018060405250810190610c1a9190611229565b50509750505095509550505093503373ffffffffffffffffffffffffffffffffffffffff168473ffffffffffffffffffffffffffffffffffffffff161480610cb157503373ffffffffffffffffffffffffffffffffffffffff168560010160009054906101000a900473ffffffffffffffffffffffffffffffffffffffff1673ffffffffffffffffffffffffffffffffffffffff16145b610cf0576040517f08c379a0000000000000000000000000000000000000000000000000000000008152600401610ce7906119b7565b60405180910390fd5b6001151581151514610d37576040517f08c379a0000000000000000000000000000000000000000000000000000000008152600401610d2e90611a49565b60405180910390fd5b8273ffffffffffffffffffffffffffffffffffffffff1663a9059cbb85846040518363ffffffff1660e01b8152600401610d729291906113a9565b6020604051808303816000875af1158015610d91573d6000803e3d6000fd5b505050506040513d601f19601f82011682018060405250810190610db591906113d2565b5060018560000160146101000a81548160ff021916908315150217905550877fda7cf22fe8502350535e86f79b05f9e563096630898b73b0b985c95e342c360260405160405180910390a260019650505050505050919050565b60008073ffffffffffffffffffffffffffffffffffffffff1660008084815260200190815260200160002060000160009054906101000a900473ffffffffffffffffffffffffffffffffffffffff1673ffffffffffffffffffffffffffffffffffffffff1614159050919050565b600080fd5b6000819050919050565b610e9581610e82565b8114610ea057600080fd5b50565b600081359050610eb281610e8c565b92915050565b600060208284031215610ece57610ecd610e7d565b5b6000610edc84828501610ea3565b91505092915050565b600073ffffffffffffffffffffffffffffffffffffffff82169050919050565b6000610f1082610ee5565b9050919050565b610f2081610f05565b82525050565b60008115159050919050565b610f3b81610f26565b82525050565b6000608082019050610f566000830187610f17565b610f636020830186610f32565b610f706040830185610f32565b610f7d6060830184610f17565b95945050505050565b6000602082019050610f9b6000830184610f32565b92915050565b610faa81610f05565b8114610fb557600080fd5b50565b600081359050610fc781610fa1565b92915050565b60008060408385031215610fe457610fe3610e7d565b5b6000610ff285828601610fb8565b925050602061100385828601610ea3565b9150509250929050565b600082825260208201905092915050565b7f636f6e74726163744578697374733a20636f6e7472616374496420646f65732060008201527f6e6f742065786973740000000000000000000000000000000000000000000000602082015250565b600061107a60298361100d565b91506110858261101e565b604082019050919050565b600060208201905081810360008301526110a98161106d565b9050919050565b7f726566756e6461626c653a20616c72656164792077697468647261776e000000600082015250565b60006110e6601d8361100d565b91506110f1826110b0565b602082019050919050565b60006020820190508181036000830152611115816110d9565b9050919050565b7f726566756e6461626c653a20616c726561647920726566756e64656400000000600082015250565b6000611152601c8361100d565b915061115d8261111c565b602082019050919050565b6000602082019050818103600083015261118181611145565b9050919050565b61119181610e82565b82525050565b60006020820190506111ac6000830184611188565b92915050565b6000815190506111c181610fa1565b92915050565b6000819050919050565b6111da816111c7565b81146111e557600080fd5b50565b6000815190506111f7816111d1565b92915050565b61120681610f26565b811461121157600080fd5b50565b600081519050611223816111fd565b92915050565b6000806000806000806000806000806101408b8d03121561124d5761124c610e7d565b5b600061125b8d828e016111b2565b9a5050602061126c8d828e016111b2565b995050604061127d8d828e016111e8565b985050606061128e8d828e016111b2565b975050608061129f8d828e016111e8565b96505060a06112b08d828e016111b2565b95505060c06112c18d828e016111e8565b94505060e06112d28d828e01611214565b9350506101006112e48d828e01611214565b9250506101206112f68d828e016111b2565b9150509295989b9194979a5092959850565b7f726566756e6461626c653a2074696d656c6f636b206e6f74207965742070617360008201527f7365640000000000000000000000000000000000000000000000000000000000602082015250565b600061136460238361100d565b915061136f82611308565b604082019050919050565b6000602082019050818103600083015261139381611357565b9050919050565b6113a3816111c7565b82525050565b60006040820190506113be6000830185610f17565b6113cb602083018461139a565b9392505050565b6000602082840312156113e8576113e7610e7d565b5b60006113f684828501611214565b91505092915050565b7f636f6e74726163744e6f6e4578697374656e743a20636f6e747261637420667560008201527f6c66696c6c656420616c72656164790000000000000000000000000000000000602082015250565b600061145b602f8361100d565b9150611466826113ff565b604082019050919050565b6000602082019050818103600083015261148a8161144e565b9050919050565b7f73746172745769746864726177616c3a2063616e6e6f7420706572666f726d2060008201527f737761702066726f6d207468697320726563656976657220636f6e7472616374602082015250565b60006114ed60408361100d565b91506114f882611491565b604082019050919050565b6000602082019050818103600083015261151c816114e0565b9050919050565b7f73746172745769746864726177616c3a20616c7265616479207769746864726160008201527f776e000000000000000000000000000000000000000000000000000000000000602082015250565b600061157f60228361100d565b915061158a82611523565b604082019050919050565b600060208201905081810360008301526115ae81611572565b9050919050565b7f73746172745769746864726177616c3a2074696d656c6f636b2065787069726560008201527f6400000000000000000000000000000000000000000000000000000000000000602082015250565b600061161160218361100d565b915061161c826115b5565b604082019050919050565b6000602082019050818103600083015261164081611604565b9050919050565b600060408201905061165c6000830185610f17565b6116696020830184610f17565b9392505050565b60006020828403121561168657611685610e7d565b5b6000611694848285016111e8565b91505092915050565b7f73746172745769746864726177616c3a20746f6b656e20616c6c6f77616e636560008201527f206d757374206265203e3d20616d6f756e740000000000000000000000000000602082015250565b60006116f960328361100d565b91506117048261169d565b604082019050919050565b60006020820190508181036000830152611728816116ec565b9050919050565b60006060820190506117446000830186610f17565b6117516020830185610f17565b61175e604083018461139a565b949350505050565b7f77697468647261773a207472616e7366657246726f6d2073656e64657220746f60008201527f2074686973206661696c65640000000000000000000000000000000000000000602082015250565b60006117c2602c8361100d565b91506117cd82611766565b604082019050919050565b600060208201905081810360008301526117f1816117b5565b9050919050565b600060408201905061180d6000830185611188565b61181a6020830184610f17565b9392505050565b7f66696e6973685769746864726177616c3a20616c72656164792077697468647260008201527f61776e0000000000000000000000000000000000000000000000000000000000602082015250565b600061187d60238361100d565b915061188882611821565b604082019050919050565b600060208201905081810360008301526118ac81611870565b9050919050565b7f66696e6973685769746864726177616c3a20616c726561647920726566756e6460008201527f6564000000000000000000000000000000000000000000000000000000000000602082015250565b600061190f60228361100d565b915061191a826118b3565b604082019050919050565b6000602082019050818103600083015261193e81611902565b9050919050565b7f66696e6973685769746864726177616c3a2063616e206f6e6c7920626520636160008201527f6c6c65642066726f6d2072656365697665722061646472657373000000000000602082015250565b60006119a1603a8361100d565b91506119ac82611945565b604082019050919050565b600060208201905081810360008301526119d081611994565b9050919050565b7f66696e6973685769746864726177616c3a207769746864726177616c206e6f7460008201527f2066696e616c697a656400000000000000000000000000000000000000000000602082015250565b6000611a33602a8361100d565b9150611a3e826119d7565b604082019050919050565b60006020820190508181036000830152611a6281611a26565b905091905056fea26469706673582212200ef01671ddf95cb8c6c9d032e8db4ae13e508061649681f53f433cdfe99faff964736f6c634300080d0033",
  "linkReferences": {},
  "deployedLinkReferences": {}
}